:020000040800F2
:10000000A806002029020008FF0C0008890C00083F
:10001000FD0C00081704000835110008000000005E
:100020000000000000000000000000008B1000082D
:100030001904000800000000891000088D10000855
:10004000430200084302000843020008430200087C
:10005000430200084302000843020008430200086C
:10006000430200084302000843020008430200085C
:10007000430200084302000843020008430200084C
:10008000430200084302000843020008430200083C
:10009000430200084302000843020008430200082C
:1000A000430200084302000843020008430200081C
:1000B000430200084302000843020008430200080C
:1000C00043020008430200084302000843020008FC
:1000D00043020008430200084302000843020008EC
:1000E00043020008430200084302000843020008DC
:1000F00043020008430200084302000843020008CC
:1001000043020008430200084302000843020008BB
:1001100043020008430200084302000843020008AB
:10012000430200084302000843020008430200089B
:10013000430200084302000843020008430200088B
:10014000430200084302000843020008430200087B
:10015000430200084302000843020008430200086B
:10016000430200084302000843020008430200085B
:100170004302000843020008430200080000000098
:10018000430200084302000800F002F800F03CF8C7
:100190000AA090E8000C82448344AAF10107DA45E2
:1001A00001D100F031F8AFF2090EBAE80F0013F0F8
:1001B000010F18BFFB1A43F0010318474410000059
:1001C00064100000103A24BF78C878C1FAD85207EA
:1001D00024BF30C830C144BF04680C6070470000C1
:1001E0000023002400250026103A28BF78C1FBD840
:1001F000520728BF30C148BF0B6070471FB500F0E1
:10020000F1FF1FBD10B510BD00F0CFF81146FFF78C
:10021000F5FF00F0C9FF00F0EDF803B4FFF7F2FFBF
:1002200003BC00F0F1F80000094880470948004786
:10023000FEE7FEE7FEE7FEE7FEE7FEE7FEE7FEE796
:10024000FEE7FEE704480549054A064B70470000F3
:100250002511000889010008A8000020A806002038
:10026000A8020020A802002053EA020C00F06980D6
:100270002DE9F04B4FF00006002B1FBFB3FA83F5BA
:1002800003FA05F424FA05F65E4012BF1643B2FAEB
:1002900082F502FA05F4C5F120051EBF22FA05FC1D
:1002A00044EA0C04203556EA044C4FEA144418BFC3
:1002B000641C4FF000084FF00009904271EB030CF2
:1002C00039D3002919BFB1FA81F701FA07F6B0FA5C
:1002D00080F700FA07F6C7F120071EBF20FA07FCD7
:1002E00046EA0C062037B6FBF4FCA7EB0507103FE7
:1002F00007F01F0BCBF120060CFA0BFB2CFA06F6CD
:1003000044BFB3460026202FA4BF5E464FF0000B2B
:100310005BEA060C08BF4FF0010B19EB0B09ABFBB6
:10032000027C48EB0608C01B06FB02CC0BFB03CC8F
:1003300071EB0C01C1E70B46024641464846BDE859
:10034000F08B13B54FF000004FF00001AFF30080C9
:10035000BDE81C4070474FF0000200B513469446BC
:100360009646203922BFA0E80C50A0E80C50B1F10D
:100370002001BFF4F7AF090728BFA0E80C5048BF21
:100380000CC05DF804EB890028BF40F8042B08BFBF
:10039000704748BF20F8022B11F0804F18BF00F8BB
:1003A000012B7047704770477047754600F028F87A
:1003B000AE4605006946534620F00700854618B052
:1003C00020B5FFF73FFFBDE820404FF000064FF09B
:1003D00000074FF000084FF0000B21F00701AC467A
:1003E000ACE8C009ACE8C009ACE8C009ACE8C00999
:1003F0008D4670470446AFF300802046FFF70DFF9F
:10040000004870474400002001491820ABBEFEE7B9
:10041000260002007047FEE77047000070B50446F2
:1004200000F00CF90546601C02D004480078044432
:1004300000F004F9401BA042FAD370BD2800002050
:100440002DE9F84FDFF8BCA1002201250AF1040BC9
:1004500003264FF00F090BF1040E00BF0B6805FADD
:1004600002F42340A34270D10F7907F00307012F54
:1004700001D0022F16D187684FEA420806FA08FC1D
:1004800027EA0C07D1F80CC00CFA08FC4CEA070C60
:10049000C0F808C04768A7430C79C4F3001494401F
:1004A0003C4344600C79E443A4070AD0C4684FEA93
:1004B000420C06FA0CF7BC438F6807FA0CF7274387
:1004C000C7600C7904F00304022C12D1D40800EBAD
:1004D000840CDCF820405707FF0E09FA07F824EADD
:1004E0000804D1F8108008FA07F848EA0408CCF8A4
:1004F000208004684FEA420C06FA0CF7BC430F79DF
:1005000007F0030707FA0CF7274307604C6814F459
:10051000403F70D03C4C276847F4804727602468F0
:1005200022F0030704F480440094384C07EB040CD9
:10053000DCF8084897074FEA177809FA08F7BC4330
:10054000334FB84202D1002724E054E0314FB84283
:1005500001D101271EE0304FB84201D1022719E036
:100560002E4FB84201D1032714E02D4FB84201D1DC
:1005700004270FE02B4FB84201D105270AE02A4F8C
:10058000B84201D1062705E0284FB84201D107271C
:1005900000E0082707FA08F72743CCF80878DAF8CC
:1005A00000405746D1F804C09C435FEACC3C00D5DC
:1005B0001C433C60DBF800405F46D1F804C09C431C
:1005C0005FEA8C3C00D51C433C60DEF80040774677
:1005D000D1F804C09C435FEACC2C00D51C433C609E
:1005E000084F0C373C68D1F804C09C435FEA8C2C60
:1005F00000D51C433C60521C102AFFF42FAFBDE80D
:10060000F88F0000003C01404438024000300140B7
:10061000000002400004024000080240000C0240BA
:10062000001002400014024000180240001C02406A
:100630000AB1816170470904FBE700000148806846
:1006400070470000280000200248816802781144A9
:1006500081607047280000200B4810B5016841F404
:1006600000710160016841F480610160016841F43A
:1006700080710160032000F061F80F2000F006F89F
:1006800000F024F8002010BD003C024070B50D4D74
:1006900004464FF47A712878B1FBF0F00A490968F2
:1006A000B1FBF0F000F0DCFA48B9102C07D20022C0
:1006B0002146501E00F022F800206C6070BD012021
:1006C00070BD000028000020340000200A4808B552
:1006D000016841F480410160006800F480400090AE
:1006E0000548001F016841F080510160006800F07A
:1006F0008050009008BD000044380240F0B40E4B1A
:100700001B680C46C3F30223C3F10705042D00D96F
:100710000425191D072901D2002300E0DB1E012654
:1007200006FA05F1491E214099409E40761E16406A
:100730003143F0BC00F0FFBC0CED00E0064900F0D6
:10074000070208684FF6FF03184040EA0220034AF8
:1007500010430860704700000CED00E00000FA054F
:100760002DE9F0470E46050065D0DFF81481D8F872
:100770000000F7B200F00700B04207D288F800701E
:10078000D8F8000000F00700B04254D128683D4C72
:10079000810712D5400703D5206840F4E05020605F
:1007A0002878000703D5206840F460402060206866
:1007B000A96820F0F000084320602878C0072DD0F9
:1007C000304968680839012812D0022813D003285C
:1007D00011D00968890700292DDA216821F0030169
:1007E00001432160FFF72AFF814641F2883A0EE07B
:1007F00009688903EFE709688901ECE7FFF71EFF45
:10080000A0EB0901514502D90320BDE8F08720681B
:10081000696800F00C00B0EB810FEFD1D8F8001040
:10082000404601F00701B14207D90770006800F0A7
:100830000700B04201D00120E7E72878400705D53E
:100840002068E96820F4E050084320602878000719
:1008500006D52068296920F4604040EAC100206084
:1008600000F018F82168084AC1F30311515CC84030
:100870000649086006480068FFF708FF0020C4E743
:10088000003C024008380240EE110008340000200D
:100890002C000020154810B5006810F00C02144818
:1008A00013D04110042A0FD0082A0ED10F4C241F58
:1008B0002268236802F03F025B0207D52068C0F37C
:1008C0008810A0FB010106E0084610BD2168C1F3B5
:1008D0008811A1FB00010023FFF7C6FC2168C1F3CA
:1008E0000141491C4900B0FBF1F010BD083802403D
:1008F0000024F4002DE9F84F04006ED02078DFF8D2
:100900004C93C007A9F104054AD009F1040001681D
:10091000C1F38101012908D00068C0F381000228D9
:100920000AD1D9F80000400206D52868800337D5DF
:1009300060680028E1D033E06068B0F5803F10D0F7
:10094000B0F5A02F286810D020F4803028602868E7
:1009500020F4802028606068A8B1FFF76FFE06468B
:100960000DE0286840F48030F4E740F480202860EF
:10097000F7E700BFFFF762FE801B642873D8286882
:100980008003F7D50CE0FFF759FE064605E000BFEF
:10099000FFF754FE801B6428F0D828688003F7D442
:1009A0002078DFF8AC8280074FF0000A3ED5A748D8
:1009B000001D016811F00C0F08D00068C0F3810021
:1009C00002280BD1D9F80000400207D4286880071C
:1009D00016D5E068012800D112E033E1E068B8B133
:1009E0000120C8F80000FFF729FE064605E000BF19
:1009F000FFF724FE801B0228C0D828688007F7D59F
:100A00002868216920F0F80040EAC10028600DE064
:100A1000C8F800A0FFF712FE064604E0FFF70EFE3E
:100A2000801B02281FD828688007F7D42078000789
:100A300022D5864F87486169703771B10121016005
:100A4000FFF7FCFD064604E0FFF7F8FD801B0228D7
:100A500009D838688007F7D50EE0C0F800A0FFF786
:100A6000EDFD064605E082E0FFF7E8FD801B022869
:100A70007DD838688007F7D42078400768D5DFF83C
:100A8000CCB100270BF13C0BDBF80000C0000BD40D
:100A9000DBF8001041F08051CBF80010DBF80000CB
:100AA000012700F0805000906B4E3068C00510D4D4
:100AB000306840F480703060FFF7C0FD009005E0C2
:100AC000FFF7BCFD0099401A022850D83068C005D5
:100AD000F6D55E4EA0686C3601280FD00528306828
:100AE00010D020F001003060306820F00400306049
:100AF000A068B8B1FFF7A2FD00900FE0306840F0A9
:100B00000100F4E740F004003060F7E7FFF796FDDE
:100B10000099411A41F28830814266D830688007D6
:100B2000F4D50EE0FFF78AFD009007E0FFF786FDA1
:100B30000099411A41F28830814256D830688007C6
:100B4000F4D42FB1DBF8001021F08051CBF8001065
:100B5000A069C8B33D49091D0968C1F38101022993
:100B60004AD00228504607D0C8F8600000E03CE0B8
:100B7000FFF764FD04463BE04746C8F86000FFF716
:100B80005DFD064605E000BFFFF758FD801B02280B
:100B90002BD828688001F7D4D4E907010843A16A5B
:100BA0002E4A490802EB0141626A41EA8211084378
:100BB00094F82C1040EA0161C9F800100120386651
:100BC000FFF73CFD044606E03EE000BFFFF736FDC0
:100BD000001B022809D828688001F7D534E000BF3F
:100BE000FFF72CFD001B022802D90320BDE8F88F77
:100BF00028688001F4D427E00128F7D0D9F8000054
:100C0000E26900F4800191421CD1226A00F03F01A8
:100C1000914217D147F6C071626A0140B1EB821F61
:100C200010D1A26A4FF0FF3300F4403103EB5202BF
:100C3000B1EB024F06D194F82C1000F07060B0EBCD
:100C4000016F01D00120D1E70020CFE70438024036
:100C500000004742800E4742007000400000FFFF46
:100C600010B5401EB0F1807F01D3012010BD4FF0C0
:100C7000E02460610F21601700F05DFA0020A061A0
:100C800007202061002010BDFEE70000F0B587B00E
:100C900014216846FFF75FFB16480024016841F005
:100CA00080010160016801F080010591016841F057
:100CB000020101600068104F00F002004FF460462E
:100CC0000590224631463846FFF7B2FCB81402259B
:100CD0008DE8310069463846FFF7B2FB01AA0120D2
:100CE000009682E8310069463846FFF7A9FB07B055
:100CF000F0BD00003038024000040240FEE7FEE78D
:100D00000020044902460A54401CC0B20928FAD304
:100D100070470000380000202DE9F8430125814686
:100D2000ADF800501C4800264670ADF800501B4C32
:100D300080464FF6FF7725E0BDF8000010EA090F66
:100D400002D0C4F8B45201E0C4F8B462C4F8BC5292
:100D5000052000F001FAC4F8BC62052000F0FCF99F
:100D6000C4F8BC52D4F8300230B198F80110BDF884
:100D70000020114388F80110BDF8000007EA400088
:100D8000ADF80000BDF80000FF28D5D9BDE8F84354
:100D9000102000F0E1B9000038000020008040423F
:100DA00030B5FFF7ADFF00F077F80B480B4BB0F80C
:100DB00003100A481B1D41800020012413F8105025
:100DC00000F101006D1E04FA05F20A42C0B202D021
:100DD0001028F3D3002030BD380000200000002090
:100DE00010B5154C0020C4F8B802102004F52E747C
:100DF00000F0B2F90120FFF78FFF4320FFF78CFFCF
:100E00000020FFF789FF0120FFF786FF0020FFF792
:100E100083FF0020FFF780FF0020FFF77DFF002009
:100E2000FFF77AFF0020FFF777FF01202060BDE881
:100E30001040102000F090B90080404210B5154CD1
:100E40000020C4F8B802102004F52E7400F084F9D4
:100E50000120FFF761FF4320FFF75EFF0020FFF74F
:100E60005BFF0020FFF758FF5A20FFF755FF5A207D
:100E7000FFF752FF5A20FFF74FFF5A20FFF74CFFB2
:100E80005A20FFF749FF01202060BDE810401020E4
:100E900000F062B9008040422DE9FC4100268DF847
:100EA00000600124ADF80440244DC5F8B862244F19
:100EB0003878FFF731FF7878FFF72EFF02208DF8A2
:100EC0000000DFF880804FF6FF772FE0ADF8044098
:100ED00020E000BFC5F8BC42052000F03DF9C5F890
:100EE000BC62052000F038F9C5F8BC42D5F83002E4
:100EF00050B19DF80010BDF8042018F801101143FE
:100F00009DF8002008F80210BDF8040007EA400030
:100F1000ADF80400BDF80400FF28DBD9102000F074
:100F20001BF99DF80000401C8DF800009DF80000A2
:100F30000928CBD3C5F8B842BDE8FC810080404207
:100F4000000000203800002030B50B4C0020C4F811
:100F5000B8020A4D04F52E742878FFF7DDFE687894
:100F6000FFF7DAFE0120206005484078732801D0A1
:100F7000012030BD002030BD008040420000002034
:100F80003800002000B500F00FF800F00DF800F078
:100F90000BF8FFF725FF00F029F800F053F85DF893
:100FA00004EBFFF74BBF000010B50F4C0020C4F856
:100FB000B802102004F52E7400F0CEF80120FFF7DF
:100FC000ABFE4220FFF7A8FE0020FFF7A5FE0020A1
:100FD000FFF7A2FE0020FFF79FFE01202060BDE882
:100FE0001040102000F0B8B80080404210B5144CFA
:100FF0000020C4F8B802012004F52E74FFF78CFE1F
:101000004420FFF789FE0020FFF786FE0120FFF74E
:1010100083FEEE20FFF780FE0020FFF77DFE00201C
:10102000FFF77AFE0020FFF777FE0020FFF774FE3F
:1010300001202060BDE81040102000F08DB80000B5
:101040000080404210B50F4C0020C4F8B8021020B8
:1010500004F52E7400F080F80120FFF75DFE4D20AE
:10106000FFF75AFE0020FFF757FE0020FFF754FE5F
:101070000120FFF751FE01202060BDE81040102044
:1010800000F06AB80080404270477047FFF7DCBA52
:1010900030B593B030216846FFF75DF914210CA8F4
:1010A000FFF759F91D480025016841F080510160A2
:1010B000006800F0805011901948016841F48041A7
:1010C00001600068022400F480401190012000902B
:1010D000000401908001CDE9064008AA0420A8215F
:1010E00082E813000B906846FFF704FC08B172B663
:1010F000FEE70CA90F2081E831004FF4A0500F90BB
:101100004FF48050109005210CA8FFF729FB002810
:1011100001D072B6FEE713B030BD00004038024087
:10112000007000400248016841F47001016070479E
:1011300088ED00E0FEE70907090E002804DB00F156
:10114000E02080F80014704700F00F0000F1E0206C
:1011500080F8141D7047000071B54FF461754FF0B1
:10116000E023104E00981AE02C46A04200D8044616
:101170009869A4EBC40101EB410110EBC10105D456
:101180009A69824208DA8A42FADA05E08A1999698C
:101190008142FCDD9142FADC0098001B009000289F
:1011A000E2D178BD40900200FFF756FAFFF770FFDA
:1011B000FFF76CFDFFF7E6FE094C00BFFFF7C4FE2A
:1011C00000284FF0320002D0FFF728F9F6E7FFF7CA
:1011D00025F9FFF7E5FD2078401C2070EEE70000C0
:1011E000240000204FF04070E1EE100A704700002C
:1011F00000000000000001020304060708090000C7
:10120000201200080000002038000000C40100087F
:10121000581200083800002070060000E0010008A5
:101220000142000001000200030004000500060066
:101230000700080009000A000B000C000D000E005A
:101240000F0010000000000001000000100000006E
:08125000000000000024F4007E
:040000050800018965
:00000001FF
