:020000040800F2
:1000000030050020C1010008EF1500083515000873
:10001000ED150008F90200089D1A00080000000014
:10002000000000000000000000000000F3150008C0
:100030002504000800000000F1150008F51500086F
:10004000DB010008DB010008DB010008DB01000820
:10005000DB010008DB010008DB010008DB01000810
:10006000DB010008DB010008DB010008DB01000800
:10007000DB010008DB010008DB010008DB010008F0
:100080006903000875030008DB010008DB010008B4
:10009000DB010008DB010008DB010008DB010008D0
:1000A000DB010008DB010008DB010008DB010008C0
:1000B000DB010008DB010008DB010008DB010008B0
:1000C000DB010008DB010008DB010008DB010008A0
:1000D000DB010008DB010008411A0008DB01000811
:1000E000DB010008DB010008DB010008DB01000880
:1000F000DB010008DB010008DB010008DB01000870
:10010000DB010008DB010008DB010008DB0100085F
:10011000DB010008DB010008DB010008DB0100084F
:10012000DB010008DB010008DB010008DB0100083F
:10013000DB010008DB010008DB010008DB0100082F
:10014000DB010008DB010008DB010008DB0100081F
:10015000DB010008DB010008DB010008DB0100080F
:10016000DB010008DB010008DB010008DB010008FF
:10017000DB010008DB010008DB01000800000000D3
:10018000DB010008DB010008DB010008DB010008DF
:10019000DB010008DB010008DB010008DB010008CF
:1001A000DB010008DB010008DB010008DFF80CD0F0
:1001B00000F090F800480047D11C000830050020EE
:1001C0000648804706480047FEE7FEE7FEE7FEE7F1
:1001D000FEE7FEE7FEE7FEE7FEE7FEE79116000812
:1001E000AD0100082DE9F05F0546002092469B46D0
:1001F00088460646814640241BE02846414647463D
:10020000224600F057F853465A46C01A914110D37F
:1002100011461846224600F03EF82D1A67EB0108F9
:100220004F4622460120002100F035F817EB000967
:100230004E41201EA4F10104DFDC484631462A4627
:100240004346BDE8F09FD2B201E000F8012B491E01
:10025000FBD270470022F6E710B513460A46044663
:100260001946FFF7F0FF204610BD30B50B4601469A
:1002700000202022012409E021FA02F59D4205D345
:1002800003FA02F5491B04FA02F52844151EA2F1EF
:100290000102F1DC30BD202A04DB203A00FA02F131
:1002A000002070479140C2F1200320FA03F3194364
:1002B00090407047202A04DB203A21FA02F0002106
:1002C000704721FA02F3D040C2F120029140084366
:1002D00019467047064C074D06E0E06840F0010300
:1002E00094E8070098471034AC42F6D3FFF762FF5A
:1002F0000C1D00082C1D0008FEE7000070B50D4D18
:100300002878012814D10C4C0CA0217801F0C8FBEE
:100310000E490FA001F0C4FB002001460B4B2278D0
:1003200002E01954401CC0B29042FAD321702970E7
:1003300070BD0000010000200000002052785F6CBA
:10034000656E203D2025640A000000001800002092
:100350004920676F7420746865206D6573736167E9
:100360006520257300000000014800F0B7B80000C8
:1003700070000020014800F0B1B80000D00000205B
:1003800001681823CAB2103AB2FBF3F2054B6FF3BF
:100390000901032A9B5CC36500D9091D81650846D4
:1003A00070470000EA1C000810B5014600208B6968
:1003B0008A6A4FF0C07453B1B3F5005F15D072B1C3
:1003C000012A0CD0022A0AD0032A09D104E01AB16A
:1003D000012A06D0022A03D1C96AC90100D5012029
:1003E00010BDC96AA142FAD010BD002AF7D0012A77
:1003F000F2D0022AF3D0032AF3D010BD30B504683E
:10040000256825F480252560046863608368402B97
:10041000036803D099600068C26030BD9A600068CC
:10042000C16030BD704772B6FEE72DE9F041044669
:10043000876D00F0DDFA064694F8350000250228A5
:1004400006D08020606584F834500120BDE8F0813A
:100450002068016821F0160101602068416921F0DF
:1004600080014161206C08B9A06C20B1206801684E
:1004700021F0080101602068016821F0010101609C
:100480000BE000F0B5FA801B052806D92020606536
:1004900004F8345F03206070D8E720680068C00764
:1004A000EFD194F85C103F208840B86004F8345FC6
:1004B000012060700020C9E790F83510022903D0B0
:1004C0008021416501207047052180F835100068C2
:1004D000016821F001010160002070472DE9F84317
:1004E00004464FF00009CDF8009063484FF41651D0
:1004F000A56D0068B0FBF1F72E6894F85C10082039
:1005000000FA01F131420FD021680A6852070BD579
:100510000A6822F004020A6094F85C108840A8601F
:10052000606D40F00100606594F85C104FF00108C8
:1005300008FA01F0304208D021684969090604D55B
:10054000A860606D40F00200606594F85C100420C3
:100550008840304208D021680968890704D5A8601E
:10056000606D40F00400606594F85C1010208840D5
:10057000304218D021680968090714D5A86020689E
:100580000168490304D50068000308D5A16C07E0A1
:100590000168C90503D4016821F008010160216CDC
:1005A00009B12046884794F85C10202088403042EA
:1005B00031D021680968C9062DD5A86094F83500A6
:1005C00005282068016806D0490347D50068000364
:1005D0001DD4616C1CE021F01601016020684169A6
:1005E00021F080014161206C08B9A06C20B1206825
:1005F000016821F00801016094F85C103F208840F8
:10060000A86084F8349084F83580216D1FE0E16B98
:1006100009B120468847606D00282BD0606DC00767
:1006200014D0052084F835002068016821F001010C
:1006300001600098401C0090B84203D82068006810
:10064000C007F6D184F8349084F83580E16C002935
:1006500010D001B02046BDE8F04308470168C90545
:10066000D5D4016821F01001016084F8349084F839
:100670003580CCE7BDE8F883100000202DE9F0417B
:10068000044600F0B5F906465CB1002584F8345004
:10069000022084F835002068016821F00101016022
:1006A0000DE00120BDE8F08100F0A2F9801B0528D3
:1006B00005D920206065032084F83500F2E7206822
:1006C0000068C007F0D12268116820480140D4E9D1
:1006D00001031843D4E903363343184363691843CD
:1006E000A3691843E3691843236A18430843616AFE
:1006F000042903D1D4E90B1319430843106020687F
:100700004069666A20F0070130460E43012704283D
:100710000CD1A06A0643E06A40B12046FFF744FED0
:1007200020B14020606584F83570BAE720684661E2
:100730002046FFF725FE94F85C203F219140816020
:10074000656584F835700020ACE700003F8010F04C
:100750002DE9F0410446866D90F83400002501280B
:100760000DD0012084F8340094F835700020012F5A
:1007700007D084F8340002252846BDE8F081022025
:10078000FBE7022784F8357060652046FFF736FEE8
:1007900094F85C103F208840B0602068016841F008
:1007A00016010160206C20B12068016841F0080149
:1007B00001602068016841F001010160DCE7000090
:1007C0002DE9F84FDFF8F4A1002201240AF1040B0F
:1007D00003254FF00F090BF1040E00BF0B6804FA5C
:1007E00002F63340B3426FD10F7907F00307012FB0
:1007F00001D0022F16D187684FEA420805FA08FC9B
:1008000027EA0C07D1F80CC00CFA08FC4CEA070CDC
:10081000C0F808C04768B7430E79C6F30016964083
:100820003E4346600E79F643B6070AD0C7684FEAE2
:10083000420C05FA0CF6B7438E6806FA0CF63E43F6
:10084000C6600E7906F00306022E10D1D60800EB22
:100850008608D8F8206057074FEAD76C09FA0CF7DA
:10086000BE430F6907FA0CF73743C8F820700668D3
:100870004FEA420C05FA0CF7BE430F7907F0030765
:1008800007FA0CF7374307604E68F6001CD54C4E4C
:10089000376847F480473760366822F0030706F46C
:1008A00080460096474E07EB060CDCF80868970771
:1008B0003F0F09FA07F826EA0806DFF80C814045E1
:1008C00003D14FF0000841E072E0DFF800814045BD
:1008D00002D14FF0010839E0DFF8F480404502D141
:1008E0004FF0020832E0DFF8EC80404502D14FF0D3
:1008F00003082BE0DFF8E080404502D14FF0040808
:1009000024E0DFF8D880404502D14FF005081DE013
:10091000DFF8CC80404502D14FF0060816E0DFF842
:10092000C480404502D14FF007080FE0DFF8B880DF
:10093000404502D14FF0080808E0DFF8B08040459C
:1009400002D14FF0090801E04FF00A0808FA07F851
:1009500048EA0608CCF80888DAF800605746D1F86B
:1009600004C09E435FEACC3C00D51E433E60DBF8EA
:1009700000605F46D1F804C09E435FEA8C3C00D51E
:100980001E433E60DEF800607746D1F804C09E4307
:100990005FEACC2C00D51E433E60084F0C373E6802
:1009A000D1F804C09E435FEA8C2C00D51E433E6004
:1009B000521C102AFFF412AFBDE8F88F003C014032
:1009C0004438024000300140000002400004024070
:1009D00000080240000C02400010024000140240D7
:1009E00000180240001C0240002002400024024087
:1009F00001488068704700000400002002488168B8
:100A00000278114481607047040000200B4810B543
:100A1000016841F400710160016841F48061016086
:100A2000016841F480710160032000F06FF800203C
:100A300000F006F800F024F8002010BD003C024051
:100A400070B50D4D04464FF47A712878B1FBF0F083
:100A50000A490968B1FBF0F000F00CFB48B9102C12
:100A600007D200222146501E00F030F800206C60B2
:100A700070BD012070BD00000400002010000020A7
:100A80000A4808B5016841F480410160006800F43B
:100A9000804000900548001F016841F080510160CE
:100AA000006800F08050009008BD0000443802400B
:100AB000002809DB00F01F0201219140400980005D
:100AC00000F1E020C0F8001170470000F0B40E4BB8
:100AD0001B680C46C3F30223C3F10705042D00D99C
:100AE0000425191D072901D2002300E0DB1E012681
:100AF00006FA05F1491E214099409E40761E164097
:100B00003143F0BC00F0DCBF0CED00E0064900F022
:100B1000070208684FF6FF03184040EA0220034A24
:100B200010430860704700000CED00E00000FA057B
:100B30002DE9F0470E46050065D0DFF81481D8F89E
:100B40000000F7B200F00F00B04207D288F8007042
:100B5000D8F8000000F00F00B04254D128683D4C96
:100B6000810712D5400703D5206840F4E05020608B
:100B70002878000703D5206840F460402060206892
:100B8000A96820F0F000084320602878C0072DD025
:100B9000304968680839012812D0022813D0032888
:100BA00011D00968890700292DDA216821F0030195
:100BB00001432160FFF71CFF814641F2883A0EE0B5
:100BC00009688903EFE709688901ECE7FFF710FF7F
:100BD000A0EB0901514502D90320BDE8F087206848
:100BE000696800F00C00B0EB810FEFD1D8F800106D
:100BF000404601F00F01B14207D90770006800F0CC
:100C00000F00B04201D00120E7E72878400705D562
:100C10002068E96820F4E050084320602878000745
:100C200006D52068296920F4604040EAC1002060B0
:100C300000F038F82168084AC1F30311515CC8403C
:100C40000649086006480068FFF7FAFE0020C4E77E
:100C5000003C024008380240F21C0008100000204E
:100C6000080000200448054900680968044AC1F3E7
:100C70008221515CC84070471000002008380240B3
:100C8000021D00080448054900680968044AC1F3C8
:100C90004231515CC84070471000002008380240C3
:100CA000021D0008154810B5006810F00C02144829
:100CB00013D01449042A0FD0082A0ED10F4C241F38
:100CC0002268236802F03F025B0207D52068C0F368
:100CD0008810A0FB010106E0084610BD2168C1F3A1
:100CE0008811A1FB00010023FFF77CFA2168C1F302
:100CF0000141491C4900B0FBF1F010BD0838024029
:100D00000024F40040787D012DE9F84F04006ED0F6
:100D10002078DFF84C93C007A9F104054AD009F107
:100D200004000168C1F38101012908D00068C0F303
:100D3000810002280AD1D9F80000400206D52868AF
:100D4000800337D560680028E1D033E06068B0F5F3
:100D5000803F10D0B0F5A02F286810D020F480304C
:100D60002860286820F4802028606068A8B1FFF718
:100D70003FFE06460DE0286840F48030F4E740F47A
:100D800080202860F7E700BFFFF732FE801B642851
:100D900073D828688003F7D50CE0FFF729FE0646D4
:100DA00005E000BFFFF724FE801B6428F0D8286808
:100DB0008003F7D42078DFF8AC8280074FF0000A78
:100DC0003ED5A748001D016811F00C0F08D000683F
:100DD000C0F3810002280BD1D9F80000400207D4EB
:100DE0002868800716D5E068012800D112E033E1B9
:100DF000E068B8B10120C8F80000FFF7F9FD064629
:100E000005E000BFFFF7F4FD801B0228C0D828686A
:100E10008007F7D52868216920F0F80040EAC10072
:100E200028600DE0C8F800A0FFF7E2FD064604E0E8
:100E3000FFF7DEFD801B02281FD828688007F7D443
:100E40002078000722D5864F87486169703771B1D5
:100E500001210160FFF7CCFD064604E0FFF7C8FD65
:100E6000801B022809D838688007F7D50EE0C0F843
:100E700000A0FFF7BDFD064605E082E0FFF7B8FDE4
:100E8000801B02287DD838688007F7D42078400777
:100E900068D5DFF8CCB100270BF13C0BDBF8000084
:100EA000C0000BD4DBF8001041F08051CBF80010EB
:100EB000DBF80000012700F0805000906B4E306896
:100EC000C00510D4306840F480703060FFF790FDAA
:100ED000009005E0FFF78CFD0099401A022850D8D9
:100EE0003068C005F6D55E4EA0686C3601280FD07C
:100EF0000528306810D020F001003060306820F004
:100F000004003060A068B8B1FFF772FD00900FE0F8
:100F1000306840F00100F4E740F004003060F7E78B
:100F2000FFF766FD0099411A41F28830814266D888
:100F300030688007F4D50EE0FFF75AFD009007E017
:100F4000FFF756FD0099411A41F28830814256D888
:100F500030688007F4D42FB1DBF8001021F0805105
:100F6000CBF80010A069C8B33D49091D0968C1F359
:100F7000810102294AD00228504607D0C8F86000F3
:100F800000E03CE0FFF734FD04463BE04746C8F88C
:100F90006000FFF72DFD064605E000BFFFF728FDC6
:100FA000801B02282BD828688001F7D4D4E90701D8
:100FB0000843A16A2E4A490802EB0141626A41EAEC
:100FC0008211084394F82C1040EA0161C9F800101E
:100FD00001203866FFF70CFD044606E03EE000BF46
:100FE000FFF706FD001B022809D828688001F7D505
:100FF00034E000BFFFF7FCFC001B022802D90320ED
:10100000BDE8F88F28688001F4D427E00128F7D0E4
:10101000D9F80000E26900F4800191421CD1226AF3
:1010200000F03F01914217D147F6C071626A01405A
:10103000B1EB821F10D1A26A4FF0FF3300F44031B0
:1010400003EB5202B1EB024F06D194F82C1000F0E2
:101050007060B0EB016F01D00120D1E70020CFE735
:101060000438024000004742800E474200700040B2
:101070000000FFFF10B5401EB0F1807F01D30120BA
:1010800010BD4FF0E02460610F21601700F018FDE3
:101090000020A06107202061002010BD704710B51E
:1010A00004460068416994F83D20C1F3C011212A2B
:1010B0000BD151B1416921F080014161606B08B1F0
:1010C000FFF7B3F9204600F06AFB2068416994F805
:1010D0003E20C1F38011222A0BD151B1416921F088
:1010E00040014161A06B08B1FFF79FF9204600F075
:1010F0003EFB002010BD7047F8B50268044610683A
:10110000D168536910F00F0F4FF0000554D003F071
:10111000010601F4907737435FD0C20705D0CA05B6
:1011200003D5226C42F001022264420705D5DA079A
:1011300003D0226C42F002022264820705D5DA074E
:1011400003D0226C42F004022264020707D501F0AA
:101150002002324303D0226C42F008022264226C47
:10116000002A35D0800604D5880602D5204600F036
:101170001FFB20684069216CC0F3801001F008015A
:101180000143204625D000F0F2FA20684169490663
:101190001BD5416921F040014161A06BA8B15949BB
:1011A0000165A06BFFF788F9002811D0A06B016DD5
:1011B00001B0BDE8F040084783060ED58B060CD57C
:1011C0002046BDE8F84000F0F3BA2046FFF793FF51
:1011D000F8BDFFF790FF2564F8BD266B2023012E94
:1011E00053D1C60651D5CE064FD510685068009031
:1011F000506940062BD5A16B086840680004000CBC
:10120000EAD0A68D8642E7D9E085C869B0F5807F2F
:1012100018D0D06820F48070D0602068416921F037
:10122000010141612068416921F04001416184F878
:101230003E3025632068C16821F01001C160A06BB9
:10124000FFF7F3F8A08DE18D401A81B219E0A08D6F
:10125000E18D401A81B2E08D0028BDD00029BBD0BD
:10126000D06820F49070D0602068426922F00102BA
:10127000426184F83E3025632068C26822F0100283
:10128000C2602046FFF70AFFF8BD05062BD50D0604
:1012900029D594F83D002128F6D1A068B0F5805FEB
:1012A00001D12069B0B1206A411C21622168007817
:1012B0004860E08C401E0004000CE084E4D120680B
:1012C000C16821F08001C1602068C16841F040011F
:1012D000C160F8BD206A0088C0F308005060206A31
:1012E000801C2062E5E74006F3D54806F1D5D168B9
:1012F000204621F04001D16084F83D3000F019F91A
:10130000F8BD0000A116000870B5040004D094F8E0
:101310003D00002510B106E0012070BD84F83C506E
:10132000204600F023F8242084F83D002068C1689E
:1013300021F40051C160204600F092FA2068016952
:1013400021F4904101612068416921F02A01416145
:101350002068C16841F40051C1602564202084F8F0
:101360003D0084F83E00002070BD00002DE9F041F2
:1013700086B0064614216846FEF76CFF2F49306898
:10138000884258D12E480024016841F400310160A0
:10139000006800F40030059029481038016841F0D9
:1013A000010101600068694600F0010005900C2011
:1013B00000900220CDE9010403200390072004904F
:1013C0002048FFF7FDF9214D1F484FF000672860C6
:1013D000C5E901744FF48068C5E903486C61AC61EC
:1013E000EC612C6228466C62FFF748F908B1FFF700
:1013F0001AF8B563AE63154D134860351830E5E84B
:1014000002074020A5E81101104845F81449603052
:10141000AC61EC612C626C62FFF730F908B1FFF748
:1014200002F87563002211462620AE63FFF74EFBDB
:101430002620FFF73DFB06B0BDE8F08100440040E8
:1014400040380240000002408860024070000020E6
:1014500090F83E30202B0ED159B152B190F83C306B
:10146000012B08D0012380F83C300023036300F0F7
:101470007DBA012070470220704770477047000016
:101480002DE9F843044690F83D001F4616460D46E8
:1014900020284CD1C5B1BEB194F83C00012846D0FB
:1014A000012084F83C004FF00008C4F8408021205F
:1014B00084F83D00FFF79CFAA6848146E684A06884
:1014C000B0F5805F03D004E00120BDE8F883206917
:1014D00028B12E465FF0000584F83C800EE000261F
:1014E000FAE78021204600F079FAA0B9AEB116F8EB
:1014F000010B21684860E08C401EE084E08C4B4684
:101500004FF0000200970028EBD14FF04001204639
:1015100000F064FA30B10320D7E735F8020BC0F3CE
:101520000800E6E7202084F83D000020CDE70220F7
:10153000CBE77047FEE700000D4808B5016841F4AD
:10154000001101600068002200F4001000901146B4
:101550001020FFF7BBFA1020FFF7AAFA002211466D
:101560001120FFF7B3FABDE808401120FFF7A0BA39
:1015700030380240094808B5016841F08001016037
:10158000016801F080010091016841F001010160F2
:10159000006800F00100009008BD000030380240F3
:1015A00010B5114C0F480C2120604FF416506060AC
:1015B0000020A060E060C4E90401A061E061204671
:1015C000FFF7A2FE08B1FEF72EFF2068C16841F0C8
:1015D0001001C16004491422BDE8104014390248CA
:1015E000FFF736BF004400402C000020FEE7FEE776
:1015F00070477047FFF702BA30B593B030216846A4
:10160000FEF728FE14210CA8FEF724FE1E48002534
:10161000016841F080510160006800F08050119035
:101620001A48016841F4404101600068022400F456
:101630004040119001200090000401908001CDE90C
:101640000640192008904FF4A870CDE90904042041
:101650000B906846FFF758FB08B172B6FEE70CA97D
:101660000F2081E831004FF4A0500F904FF48050CC
:10167000109005210CA8FFF75BFA002801D072B684
:10168000FEE713B030BD000040380240007000405B
:101690000248016841F470010160704788ED00E084
:1016A00010B5806B0021C185C184FFF724FD10BDFA
:1016B00070B5846B2068406994F83D10C0F3C01089
:1016C0000025212904D118B1E584204600F067F8EF
:1016D0002068406994F83E10C0F38010222904D19C
:1016E00018B1E585204600F042F8206C40F010006B
:1016F00020642046FFF7FFFC70BD10B50146806BEB
:1017000009680968C9051BD40021C1850168CA6838
:1017100022F48072CA6001684A6922F001024A61BB
:1017200001684A6922F040024A61202180F83E1097
:10173000016B012904D10168CA6822F01002CA6055
:10174000016B012902D0FFF798FE10BD818DFFF7D4
:10175000A5FC10BD10B5806B016B012902D0FFF70D
:101760008DFE10BD818D4908FFF798FC10BD016802
:10177000CA6822F49072CA6001684A6922F00102C4
:101780004A61016B012904D10168CA6822F0100284
:10179000CA60202180F83E10002101637047016873
:1017A000CA6822F0C002CA60202180F83D1070474C
:1017B00010B5044690F83E00222801D0022010BD4A
:1017C000A1684FF48052914201D1206920B1A06AF2
:1017D00091421BD049B10AE02168A06A4968C1F36F
:1017E00008010180A06A801C08E0216971B12168AC
:1017F000496801F07F010170A06A401CA062E08D81
:10180000401E0004000CE08503D01CE021684968FC
:10181000F1E72068C16821F02001C1602068C1683B
:1018200021F48071C1602068416921F001014161AA
:10183000202084F83E00206B012806D02046FFF7C8
:101840001CFE00202063002010BD2068C16821F02C
:101850001001C160A18D2046FFF720FCF1E70000D8
:1018600070B5044600680169E26821F440511143F3
:1018700001612169A068E269084361691143084375
:101880002168CA6849F20C639A430243CA6020681F
:101890004169A26921F440711143416131492068D5
:1018A000884202D03049884202D1FFF7EBF901E0CB
:1018B000FFF7D8F9E2690023192164253226B2F531
:1018C000004F626828D0A0FB0101930F9200FEF741
:1018D00089FC0146B0FBF5F06FF01802504301EBB4
:1018E000800006EB0010B0FBF5F000F0F002B1FB59
:1018F000F5F002EB0012B1FBF5F06FF0180358435E
:1019000001EB800006EB0010B0FBF5F000F00F00DB
:1019100021681044886070BDA0FB010192185B41F2
:10192000FEF760FC0146B0FBF5F00201B1FBF5F0FB
:101930006FF01803584301EB800006EBC000B0FBCA
:10194000F5F000F0F80002EB4002B1FBF5F058436F
:1019500001EB800006EBC000B0FBF5F000F00700E3
:10196000D6E70000001001400014014038B5816244
:1019700082850025134604460564222084F83E0033
:10198000A26B1348D063A26B12481064A26B12487A
:10199000D064A06B0A4605652168A06B091DFEF79F
:1019A000D7FE206801684168009184F83C50C16806
:1019B00041F48071C1602068416941F001014161D9
:1019C0002068416941F040014161002038BD0000BC
:1019D000FB16000855170008B11600082DE9F04164
:1019E000984617460E460446069D1DE0681C1BD00F
:1019F0002DB1FEF7FDFFA0EB0800A84214D9206826
:101A0000C16821F4D071C1602068416921F00101F1
:101A10004161202084F83D0084F83E00002084F8D5
:101A20003C000320BDE8F0812068006836EA000031
:101A300004D00020B842D9D00020F3E70120F9E714
:101A4000114808B500680168C1F3001189B1016847
:101A500041680091016840680B48FFF720FB0B4884
:101A6000006840680A49C0F1140008700949012063
:101A70000870142208490448FFF7EAFCBDE8084052
:101A80000148FFF739BB00002C0000207000002047
:101A9000000000200100002018000020FEE70000E8
:101AA0000FB4054B10B503A9044A029800F028F8BA
:101AB00010BC5DF814FB0000B91C000814000020E5
:101AC0000907090E002804DB00F1E02080F800146B
:101AD000704700F00F0000F1E02080F8141D7047FF
:101AE00002E008C8121F08C1002AFAD170477047E7
:101AF000002001E001C1121F002AFBD17047000045
:101B00002DE9FF4F8BB09A460F460546002606E0AA
:101B100025280BD052460D9990476D1C761C2878CD
:101B20000028F5D10FB03046BDE8F08F0024A04664
:101B30000122604900E0044315F8013F203B02FA0E
:101B400003F00842F7D128782E2817D115F8010F95
:101B500044F004042A280ED06FF02F022878A0F158
:101B6000300109290AD808EB880102EB410100EB9A
:101B700001086D1CF2E757F8048B6D1C2878692862
:101B80003ED006DC0028CDD063280BD0642804D1D9
:101B900036E0732810D075284BD052460D999047E7
:101BA000761C85E017F8040B8DF8000000208DF8F6
:101BB0000100E946012003E057F8049B4FF0FF3095
:101BC00061074FF0000401D40AE0641C44450DDABB
:101BD0008442FADB19F804100029F6D106E0641CEF
:101BE0008442FCDB19F804100029F8D1264404E0F3
:101BF00019F8010B52460D999047641EF8D257E030
:101C000001CF4FF00A0B002802DA40422D2102E0FA
:101C1000210504D52B218DF82410012103E0E107D3
:101C200005D02021F7E70DF1200908910CE00021F3
:101C3000F9E701CF4FF00A0BF9E75946FEF715FB1C
:101C400001F1300209F8012D0028F6D1ADEB0900B1
:101C500000F1200B600701D44FF00108D84502DDE8
:101C6000A8EB0B0000E000208046002406E009A855
:101C70005246005D0D999047641C761C089884427A
:101C8000F5DB04E0302052460D999047761CB8F100
:101C90000001A8F10108F5DC05E019F8010B524636
:101CA0000D999047761CBBF10001ABF1010BF4DC00
:101CB0006D1C34E70928010013B54FF47A73012233
:101CC00069460248FFF7DCFB01201CBD2C00002008
:101CD000FEF79CFEFFF790FCFFF74CFCFFF72CFC97
:101CE000FFF75EFCFEF70AFBFCE700061016000695
:101CF00010160000000000000000010203040607A7
:101D00000809000000000102030400002C1D000867
:101D10000000002018000000E01A0008441D000820
:101D20001800002018050000F01A0008000000004C
:101D30000100000010000000000000000024F4007A
:041D4000000000009F
:04000005080001AD41
:00000001FF
