:020000040800F2
:10000000D8070020CD01000879150008A7120008C4
:100010003D140008CF0200082D1900080000000060
:10002000000000000000000000000000471600086B
:10003000D10200080000000045160008491600081B
:10004000E7010008E7010008E7010008E7010008F0
:10005000E7010008E7010008E7010008E7010008E0
:10006000E7010008E7010008E7010008E7010008D0
:10007000E7010008E7010008E7010008E7010008C0
:10008000E7010008E7010008E7010008E7010008B0
:10009000E7010008E7010008E7010008E7010008A0
:1000A000E7010008AD160008E7010008E7010008B5
:1000B000E7010008E7010008E7010008E701000880
:1000C000E7010008E7010008E7010008E701000870
:1000D000E7010008E7010008E7010008E701000860
:1000E000E7010008E7010008E7010008E701000850
:1000F000E7010008E7010008E7010008E701000840
:10010000E7010008E7010008E7010008E70100082F
:10011000E7010008E7010008B9160008E701000838
:10012000E7010008E7010008E7010008E70100080F
:1001300000F002F800F03AF80AA090E8000C8244BF
:100140008344AAF10107DA4501D100F02FF8AFF29C
:10015000090EBAE80F0013F0010F18BFFB1A43F0A5
:10016000010318474C1E00006C1E0000103A24BF0B
:1001700078C878C1FAD8520724BF30C830C144BF0C
:1001800004680C607047000000230024002500264E
:10019000103A28BF78C1FBD8520728BF30C148BFEA
:1001A0000B6070471FB51FBD10B510BD00F058F8AB
:1001B0001146FFF7F7FF01F0CBFB00F076F803B430
:1001C000FFF7F2FF03BC00F07BF80000094880470E
:1001D00009480047FEE7FEE7FEE7FEE7FEE7FEE729
:1001E000FEE7FEE7FEE7FEE704480549054A064B41
:1001F00070470000AB16000831010008D80100204C
:10020000D8070020D8030020D80300204FF00002B8
:1002100000B5134694469646203922BFA0E80C50FC
:10022000A0E80C50B1F12001BFF4F7AF090728BFD7
:10023000A0E80C5048BF0CC05DF804EB890028BF53
:1002400040F8042B08BF704748BF20F8022B11F07C
:10025000804F18BF00F8012B7047704770477047F8
:10026000754600F029F8AE4605006946534620F071
:100270000700854618B020B5FFF7B6FFBDE820405F
:100280004FF000064FF000074FF000084FF0000B52
:1002900021F00701AC46ACE8C009ACE8C009ACE805
:1002A000C009ACE8C0098D4670470446AFF3008032
:1002B0002046FFF784FF00000048704778010020C7
:1002C00001491820ABBEFEE7260002007047FEE79A
:1002D000704772B6FEE700002DE9F84FDFF8C891CD
:1002E000002409F1040A0AF1040B23460F270BF13D
:1002F000040ED1E00125A54006EA0502AA4276D106
:10030000DFF8A8C14E68A6EB0C0866452BD00DDCC3
:10031000032E34D005DC36B3012E19D0022E2FD196
:100320001BE0112E16D0122E2AD119E0B8F5881F25
:1003300019D006DCB8F5803F15D0B8F5801F1FD165
:1003400011E0B8F5001F0ED0B8F5041F18D10AE06F
:10035000CB6815E0CB681B1D12E0CB6808330FE0BB
:10036000CB680C330CE08B682BB1012B4FF00803EA
:1003700003D0456104E0042302E0056100E00023AE
:10038000FF2A01D8064601E000F104064FEA840581
:1003900001D9A5F12005D6F8008007FA05FC28EA66
:1003A0000C0803FA05F548EA0508C6F800804D6810
:1003B000ED0070D53E4DAE6946F00106AE61AD6907
:1003C00024F0030605F0010500953A4D06EB050CF7
:1003D000DCF80850A607360F07FA06F825EA0805E4
:1003E000DFF8D480404503D14FF0000825E052E00B
:1003F000DFF8C880404502D14FF001081DE0DFF86A
:10040000C080404502D14FF0020816E0DFF8B4800A
:10041000404502D14FF003080FE0DFF8AC804045C3
:1004200002D14FF0040808E0DFF8A080404502D177
:100430004FF0050801E04FF0060808FA06F848EA10
:100440000508CCF808804D68D9F80060ED034D46EA
:1004500001D5164300E096432E604D68DAF800603F
:10046000AD03554601D5164300E096432E604D6816
:10047000DBF80060ED025D4601D5164300E09643CF
:100480002E604D68DEF80060AD02754601D516435A
:1004900000E096432E60641C0A681646E2407FF432
:1004A00029AFBDE8F88F00000004014000001110E2
:1004B000001002400000014000080140000C014013
:1004C000001001400014014000180140001C0140D0
:1004D0000AB1016170470904FBE700000148806828
:1004E000704700000800002002488168027811442B
:1004F0008160704708000020074810B5016841F08E
:1005000010010160032000F075F8002000F006F8EB
:1005100000F024F8002010BD0020024070B50D4D01
:1005200004464FF47A712878B1FBF0F00A49096863
:10053000B1FBF0F000F0CCFA48B9102C07D2002241
:100540002146501E00F036F800206C6070BD01207E
:1005500070BD000008000020140000200C4808B501
:10056000816941F001018161816901F0010100911E
:10057000C16941F08051C161C06900F080500090B4
:100580000448416821F0E06141F00071416008BD1C
:100590000010024000000140002809DB00F01F02AB
:1005A000012191404009800000F1E020C0F80011D5
:1005B00070470000F0B40E4B1B680C46C3F30223D7
:1005C000C3F10705042D00D90425191D072901D2FF
:1005D000002300E0DB1E012606FA05F1491E21403A
:1005E00099409E40761E16403143F0BC01F09FB901
:1005F0000CED00E0064900F0070208684FF6FF0323
:10060000184040EA0220034A104308607047000087
:100610000CED00E00000FA052DE9F0470F4605005B
:1006200061D0434E306800F00700B84209D230680C
:1006300020F0070038433060306800F00700B8420F
:1006400051D128683B4C810712D5400703D560681B
:1006500040F4E06060602878000703D5606840F4EB
:10066000605060606068A96820F0F0000843606036
:100670002878C00728D06868012810D0216802288F
:1006800010D0890700292EDA616821F003010143A7
:100690006160FFF723FF804641F288390DE0216851
:1006A0008903EFE78901EDE7FFF718FFA0EB0801E9
:1006B000494502D90320BDE8F0876068696800F009
:1006C0000C00B0EB810FEFD1306800F00700B842AA
:1006D0000BD9306820F0070038433060306800F0F4
:1006E0000700B84201D00120E5E72878400705D58A
:1006F0006068E96820F4E0600843606028780007DB
:1007000006D56068296920F4605040EAC100606045
:1007100000F018F86168084AC1F30311515CC84041
:100720000649086006480068FFF7F8FE0020C2E7A7
:1007300000200240001002409E1F0008140000200C
:100740000C00002012A185B00FC98DE80F0014A085
:10075000144A006804905168134801F00C03042BFC
:1007600010D0082B0ED1C1F38343C9031DF8030039
:100770000AD5516804AAC1F34041515C0A4A50436A
:10078000B0FBF1F005B0704708494843FAE70000B4
:1007900002030405060708090A0B0C0D0E0F1010C2
:1007A000010200000010024000127A0000093D0022
:1007B0002DE9F84F040070D02078C04DC00749D013
:1007C0006868C0F38100012807D06868C0F3810021
:1007D000022809D16868C00306D52868800339D586
:1007E00060680028E7D035E06068B0F5803F0BD046
:1007F00010B1B0F5A02F11D0286820F48030286007
:10080000286820F4802002E0286840F480302860C6
:10081000606890B1FFF762FE06460AE0286840F47F
:1008200080202860F0E700BFFFF758FE801B642897
:1008300073D828688003F7D50CE0FFF74FFE064613
:1008400005E000BFFFF74AFE801B6428F0D8286847
:100850008003F7D420789A4E80074FF001094FF0BB
:10086000000839D5686810F00C0F07D06868C0F32D
:100870008100022809D16868C00306D4286880076F
:1008800014D52069012808D110E02069B0B1C6F85C
:100890000090FFF723FE074605E00AE1FFF71EFE82
:1008A000C01B0228C4D828688007F7D5286861696A
:1008B00020F0F80040EAC10028600DE0C6F8008092
:1008C000FFF70CFE074604E0FFF708FEC01B0228F6
:1008D00023D828688007F7D4207800072CD57948DA
:1008E000A169D9B1C0F80090FFF7F8FD074604E010
:1008F000FFF7F4FDC01B02280FD8686A8007F7D500
:1009000071484FF4FA510068B0FBF1F0009000BF5D
:100910000098411E0091FAD20EE080E0C0F80080FD
:10092000FFF7DCFD074604E0FFF7D8FDC01B0228F7
:1009300075D8686A8007F7D42078400760D5E869E1
:100940000027C00008D4E86940F08050E861E869F9
:10095000012700F0805000905C480168C90513D45D
:100960000168834641F480710160FFF7B7FD82465C
:1009700006E000BFFFF7B2FDA0EB0A0064284ED8E6
:10098000DBF80000C005F5D5E06801280AD008B101
:10099000052813D0286A20F001002862286A20F078
:1009A000040002E0286A40F001002862E06841F299
:1009B000883B98B1FFF792FD82460BE0286A40F031
:1009C00004002862EEE700BFFFF788FDA0EB0A01F4
:1009D00059455AD8286A8007F6D50CE0FFF77EFD06
:1009E000824605E0FFF77AFDA0EB0A0159454CD895
:1009F000286A8007F6D41FB1E86920F08050E861CA
:100A0000E06988B36968C1F38101022944D00228F2
:100A1000C6F8608004D0FFF761FD044638E034E09A
:100A2000FFF75CFD074604E0FFF758FDC01B0228F6
:100A30002BD828688001F7D4206AB0F5803F05D113
:100A40006868A16820F4003008436860D4E90801B0
:100A50000843696821F4741108436860C6F860901F
:100A6000FFF73CFD044606E025E000BFFFF736FD3A
:100A7000001B022809D828688001F7D51BE000BFB9
:100A8000FFF72CFD001B022802D90320BDE8F88FD8
:100A900028688001F4D40EE00128F7D06868226A43
:100AA00000F48031914204D1616A00F470108842F0
:100AB00001D00120EAE70020E8E700000010024032
:100AC00000004242800442421400002000700040B6
:100AD00010B5401EB0F1807F01D3012010BD4FF052
:100AE000E02460610F21601700F021FF0020A06169
:100AF00007202061002010BD7047704770B590F846
:100B00003C20012A32D0012480F83C40022280F8A7
:100B10003D2003685A689D6822F070060A683243D7
:100B20005A60134B02689A4214D0124B9A4211D069
:100B3000B2F1804F0ED0104B9A420BD00F4B9A421D
:100B400008D00F4B9A4205D00E4B9A4202D00E4B62
:100B50009A4204D1496825F080031943916080F8D6
:100B60003D40002180F83C10084670BD022070BD59
:100B7000002C014000340140000400400008004007
:100B8000000C0040004C01400018004010B504006B
:100B900003D094F83D0010B107E0012010BD002003
:100BA00084F83C00204600F01FF8022084F83D0045
:100BB000211D206800F086FD012084F8460084F89D
:100BC0003E0084F83F0084F8400084F8410084F837
:100BD000420084F8430084F8440084F8450084F817
:100BE0003D00002010BD000008B500680B49884298
:100BF00012D10B48C16941F01001C161C0690022E6
:100C000000F01000009001213620FFF7D3FCBDE872
:100C100008403620FFF7C0BC08BD000000100040AF
:100C20000010024090F83D10012901D001207047CA
:100C3000022180F83D100168CA6842F00102CA60D2
:100C400000681149884214D01049884211D0B0F18F
:100C5000804F0ED00E4988420BD00E49884208D0F2
:100C60000D49884205D00D49884202D00C4988427E
:100C700004D1816801F00701062903D0016841F021
:100C80000101016000207047002C01400034014048
:100C90000004004000080040000C0040004C0140EF
:100CA000001800402DE9F0410D46040003D094F8EF
:100CB0003D0018B108E00120BDE8F081002084F873
:100CC0003C00204600F040F8022084F83D002068F7
:100CD000816844F2070291438160211D206800F081
:100CE000F1FC226890689169166A2B68AF6903432A
:100CF00040F20330814341EA0721A868EF690843C5
:100D00004FF6FC418843E96840EA0720014328691F
:100D10002F6A000140EA0730084369686D6926F0D0
:100D2000220646EA0515294393602268906154F82B
:100D3000460B0162012004F81F09E0752076E07679
:100D40002077A0750020B7E700B585B0002100919D
:100D500001910291039100681649884228D11648F2
:100D6000816941F400618161816901F4006104914C
:100D7000816941F0400181618069694600F040006D
:100D800004904FF4206000900C48FFF7A5FA0C483F
:100D9000416821F0C00141F0E06141F0C0014160D3
:100DA000002211461920FFF705FC1920FFF7F4FB7C
:100DB00005B000BD002C01400010024000180140A9
:100DC0000000014070B590F83E60044690F83F5036
:100DD00090F8423090F84320022021B104290ED02F
:100DE000012E1BD114E0012E18D1012B16D184F84D
:100DF0003E0084F8420001220021206820E0012DFD
:100E00000CD1012A0AD184F83F0084F8430014E091
:100E1000012D03D1012B01D1012A01D0012070BD88
:100E200084F83E0084F83F0084F8420084F84300D0
:100E300001220021206800F0A9FC01220421206881
:100E400000F0A4FC2068016841F00101016000206D
:100E500070BD704770B50446006801694FF0000529
:100E6000C943890715D4C168C943890711D4E91E4C
:100E7000016101202077206880698007204602D028
:100E8000FFF7E7FF04E000F0BDF8204600F060F94E
:100E9000257720680169C943490717D4C168C94348
:100EA000490713D46FF00401016102202077206804
:100EB000806910F4407F204602D0FFF7CAFF04E0AB
:100EC00000F0A0F8204600F043F92577206801697A
:100ED000C943090716D4C168C943090712D46FF082
:100EE00008010161042020772068C069800720463E
:100EF00002D0FFF7AEFF04E000F084F8204600F0D7
:100F000027F9257720680169C943C90617D4C16844
:100F1000C943C90613D46FF010010161082020777E
:100F20002068C06910F4407F204602D0FFF791FF8F
:100F300004E000F067F8204600F00AF92577206801
:100F40000169C943C90708D1C168C943C90704D1A8
:100F5000891E0161204600F061F920680169C943DA
:100F6000090609D4C168C943090605D46FF0800198
:100F700001612046FFF7C0FD20680169C9434906A9
:100F800009D4C168C943490605D46FF04001016125
:100F9000204600F087F920680169C94389060BD40F
:100FA000C168C943890607D46FF02001016120465A
:100FB000BDE87040FFF7A1BD70BD000000B585B071
:100FC0000021009101910291039100680A49884231
:100FD00010D10A48816941F0040181618069694644
:100FE00000F0040004900220009001900390044857
:100FF000FFF772F905B000BD000C00400010024080
:1010000000080140704770B5044690F83C000D465A
:1010100001280AD0012084F83C0042B1042A18D0EB
:10102000082A2AD00C2A4DD139E0022070BD206850
:1010300000F0BAFB2068816941F0080181612068F5
:10104000816921F004018161206881692A69114365
:1010500011E0206800F0D8FB2068816941F400614C
:1010600081612068816921F48061816120688169E2
:101070002A6941EA0221816124E0206800F0FAFB3C
:101080002068C16941F00801C1612068C16921F08F
:101090000401C1612068C1692A69114311E0206817
:1010A00000F01CFC2068C16941F40061C161206846
:1010B000C16921F48061C1612068C1692A6941EA7E
:1010C0000221C161002084F83C0070BD10B504000D
:1010D00003D094F83D0010B107E0012010BD0020BE
:1010E00084F83C00204600F01FF8022084F83D0000
:1010F000211D206800F0E6FA012084F8460084F8FB
:101100003E0084F83F0084F8400084F8410084F8F1
:10111000420084F8430084F8440084F8450084F8D1
:101120003D00002010BD000008B500680649884257
:1011300008D10648C16941F00801C161C06900F0E9
:101140000800009008BD0000000C004000100240A4
:101150007047000010B50446022249B104290ED0A0
:10116000082913D094F84100012816D0012010BDA1
:1011700094F83E000128F9D184F83E200FE094F85D
:101180003F000128F2D184F83F2008E094F84000A5
:101190000128EBD184F8402001E084F841200122AD
:1011A000206800F0F3FA16492068164A884201D0F8
:1011B000904203D1436C43F4004343642068884267
:1011C00013D0904211D0B0F1804F0ED00E4988421A
:1011D0000BD00E49884208D00D49884205D00D49F0
:1011E000884202D00C49884204D1816801F007018D
:1011F000062903D0016841F001010160002010BD03
:10120000002C014000340140000400400008004070
:10121000000C0040004C01400018004070B502680E
:101220001A481B4C1B490368B4F9080009689A4224
:101230001BD14A6ACB6AC96AA2EB530212B2484375
:1012400002EB500565602068281A00F0E9FC12499D
:1012500000F004FC114900F02FFD2560E06010480B
:101260000078BDE8704000F03BB98A420CD14B6A6F
:1012700042F21072934201D2401C03E04B6A934247
:1012800001D9401E20814A6270BD0000300100205B
:1012900018000020A00000200000C3440080BB45CF
:1012A000000000207047FEE730B585B000241848E4
:1012B0000094019402940394816941F004018161D6
:1012C000816901F004010491816941F0100181619B
:1012D000816901F010010491816941F0400181614F
:1012E00080690C4D00F04000049000223021284617
:1012F000FFF7EEF8302000900120CDE90104022034
:10130000039069462846FEF7E7FF05B030BD0000B0
:10131000001002400010014010B58CB02421684636
:10132000FEF774FF00241648099414490A94C0E992
:10133000001444F62061C0E9024104614461846103
:101340000320CDE900040120CDE902040494CDE995
:101350000540079469460A480894FFF7A3FC08B1C2
:10136000FEF7B7FF099409A905480A94FFF7C6FBE1
:10137000002801D0FEF7ADFF0CB010BD002C0140DD
:10138000A000002010B58AB0002407941C216846F4
:101390000894FEF73BFF1748154901604721C0E953
:1013A000011442F21071C0E9031480218161FFF73A
:1013B0008DFE08B1FEF78DFF079407A90D4808942C
:1013C000FFF79CFB08B1FEF784FF6020CDE9000425
:1013D00002940422694607480494FFF714FE08B1FA
:1013E000FEF777FF0348FFF7E9FD0AB010BD0000E4
:1013F000000C0040E80000201CB500240E480094BA
:101400000C49019401604721C0E9011442F21071B6
:101410008461C160FFF7BAFB08B1FEF75AFF009480
:10142000694605480194FFF769FB002801D0FEF7E3
:1014300050FF1CBD0010004030010020FEE70000FE
:101440007CB53C211C48FFF7BDFC1C48FFF7EAFBBC
:1014500004211B48FFF77EFE174842F21071026814
:1014600051620068C16841F00101C1601548164C25
:10147000164D00784FF00003A8B1154ECDE9005489
:1014800032461449144800F086F81348CDE9005458
:1014900000231A463146243000F07DF80E49002022
:1014A0003C3908817CBD0C48CDE900544FF08142A5
:1014B0000A492438F0E70000A00000203001002095
:1014C000E80000200000002000401C4600409C4531
:1014D0009A99D93F00007A43540000200000164337
:1014E0002DE9F041214C0100214F224EE5684FF0DB
:1014F000000002D0012908D025E01C482A461830F7
:10150000216900F050F8606B0FE0606800F088FB24
:101510008046606900F084FB014614482B46424631
:101520003C3000F02AF8D4F88400B0F5000F0ADB54
:1015300000F056FB39688863002210213046FEF720
:10154000C7FF01220BE080F0004000F049FB396842
:101550008863012210213046FEF7BAFF0022304690
:10156000BDE8F0412021FEF7B3BF000018000020C5
:10157000E800002000100140FEE770B504461D465B
:10158000243000F010F82A462046216C00F00BF8B9
:10159000E069A06470BD30B5DDE903450562846192
:1015A00080E80E0030BD70B50B46C5680446056185
:1015B0001146184600F07EFC06462946E06000F021
:1015C00079FCA16800F078FB05463046216800F000
:1015D00073FB294600F0D4F9E0613046616800F001
:1015E0006BFB616900F0CCF901466061A06980F095
:1015F000004000F02DFC03D8A06980F0004107E016
:10160000D4E9050100F024FC01D8A16900E061697A
:101610006161E06900F0B4F90146E061206A80F0A0
:10162000004000F015FC03D8206A80F0004007E07D
:10163000D4E9070100F00CFC01D8206A00E0E06961
:10164000E06170BD70477047FEF74EBF30B58FB098
:1016500028216846FEF7DAFD14210AA8FEF7D6FD18
:1016600001210804CDE90010002402940225049110
:10167000CDE907504FF4E01009906846FFF798F85D
:1016800008B172B6FEE70F20CDE90A054FF480607D
:10169000CDE90C4002210AA80E94FEF7BDFF0028F8
:1016A00001D072B6FEE70FB030BD70470148FFF7BA
:1016B000D1BB0000A00000200148FFF7CBBB000019
:1016C00030010020F0B50268254C264D264E274FEC
:1016D000274B4FF0804CA04209D0984207D060457C
:1016E00005D0A84203D0B04201D0B84204D122F0C4
:1016F000700E4A6842EA0E02A0421BD0984219D0EE
:10170000604517D0A84215D0B04213D0B84211D0CE
:10171000184DA8420ED0184DA8420BD0174DA84224
:1017200008D0174DA84205D0164DA84202D0164D3C
:10173000A84203D122F44075CA682A434D6922F0B9
:1017400080022A4302608A68C2620A688262A042FA
:1017500001D0984201D10969016301214161F0BDC5
:10176000002C01400004004000080040000C004034
:1017700000340140004C0140005001400054014041
:1017800000180040001C00400020004010B501F08F
:101790001F030121046A99408C430462016A9A4044
:1017A0001143016210BD0000F0B5026A22F001028F
:1017B0000262036A42688469124E24F073050C6861
:1017C0002C4323F002058B682B430D4DA84201D01A
:1017D000B04205D123F00807CB683B4323F0040354
:1017E000A84201D0B04205D14D6922F440721543A0
:1017F0008A692A4342608461496841630362F0BD9B
:10180000002C014000340140F0B5026A22F01002C1
:101810000262026A436884690D6824F4E64444EA7B
:1018200005248D6822F0200242EA05120F4D104E69
:10183000A84201D0B04206D1CF6822F0800242EA2D
:10184000071222F04002A84201D0B04207D14D69F0
:1018500023F4406343EA85038D6943EA85034360CB
:101860008461496881630262F0BD0000002C014080
:1018700000340140F0B5026A22F480720262026A0A
:101880004368C46922F4007224F073050C68124E98
:101890002C438D6842EA05220E4DA84201D0B04289
:1018A00006D1CF6822F4006242EA072222F4806265
:1018B000A84201D0B04207D14D6923F4405343EA16
:1018C00005138D6943EA05134360C4614968C16328
:1018D0000262F0BD002C01400034014030B5026AC4
:1018E00022F480520262046A4268C3690D6823F4DC
:1018F000E64343EA05238D6824F4005444EA0534A2
:10190000084DA84202D0084DA84204D14D6922F4E6
:10191000804242EA85124260C36149680164046200
:1019200030BD0000002C014000340140FEE70907F3
:10193000090E002804DB00F1E02080F80014704755
:1019400000F00F0000F1E02080F8141D7047000047
:10195000FEF7D2FDFFF77AFEFFF7A6FCFFF7DCFCEF
:10196000FFF74AFDFFF70EFDFFF76AFD0248034946
:1019700000680861FEE70000040000201800002055
:1019800090EA010F48BF81F0004100F19A82421AAB
:101990003CBF801A89184FEAD0524FF07F4C1CEAA6
:1019A000410FA2EBD15318BF9CEA026F00F03B80BD
:1019B0004FF0004C4CEA00204CEA012121FA03FCD4
:1019C00010EB0C0C1ED202F1FF325FEA1C2040EB40
:1019D000C25038BF70471CF07F0F4FEA400C18BF51
:1019E000BCF17F4F38BF7047C3F12003994008BF57
:1019F00020F00100BCF17F4F38BF7047A0F1C0401C
:101A000000F021BA4FEA3C00000A40EBC25028BF68
:101A10001CF0FF0F4FEA400CE6D018BFBCF17F4F1F
:101A200038BF7047EAE79CEA026F05D010EA5C0F06
:101A300008BF00F00040704710B500F0BEF900BFCD
:101A400064FBBE3E401058BFC0F14040491058BF33
:101A5000C1F140418142EFF3008070474FF47F0CA9
:101A60001CEAD0121EBF1CEAD11392EA0C0F93EAB3
:101A70000C0F00F0858090EA010F48BF42F480729D
:101A800040F4000C41F400002CF07F4120F07F4036
:101A900000B58142A2EB03020FF2081CACEB504EE2
:101AA000C0F100009EF800E04FEA4E0E00FB0EFC75
:101AB00038BF49004FEA2C1C02F5FA020CFB0EF36A
:101AC0004FEACE1E4FEA112C4FEAC1210EEB635EA6
:101AD00042EB22420EFB0CFC4FEA1C5300FB0311AD
:101AE0004FEA112C4FEA01310EFB0CFC4FEADC4CA3
:101AF00000FB0C11C14228BF09184CEB03335DF801
:101B000004EB10EB410143EBC250B2F57C0F38BF40
:101B1000704729D512F0F00F1CBF00F1C04000F053
:101B200000407047008182838485868788898B8CFA
:101B30008D8E8F919293959697999A9C9D9FA0A236
:101B4000A3A5A7A8AAACAEB0B2B3B5B7B9BCBEC086
:101B5000C2C5C7C9CCCED1D4D7D9DCDFE2E6E9EC27
:101B6000F0F3F7FAFE0000004FEA400C0CF1807C25
:101B7000BCF17E4F28BF7047B0F1C04000F063B9A0
:101B800090EA010F0CEAD11348BF42F4807262451B
:101B900038BF634507D213F47F0F16D080EA0100E7
:101BA00000F00040704710B500F007F9097EFC3ED8
:101BB00000F005B880EA010000F00040704780EABC
:101BC000010000F0004000F03EB912F47F0F04BFA6
:101BD0000248704780EA010000F035B90000C07F7C
:101BE000C10DD1F19E0206DB4FEA002343F0004312
:101BF00023FA02F07047004207D54FEA4001B1F1E5
:101C0000FE4F02D24FF00000704710B500F0D5F83B
:101C100049922480002070476FEA2000704700003E
:101C200010F0004148BF4042B0FA80F310FA03F2CE
:101C3000C3F19D030BD051EAC35101EB12205306AF
:101C400038BF704700F1010008BF20F00100704765
:101C500050EA010C00F113801CF5000F58BFBCF5D1
:101C6000000F01D48842704707D710F5000F58BF06
:101C700011F5000F15D488427047894270471CF552
:101C8000000F04D5BCF5000FF7D5814270474FF027
:101C9000807C1CEB400F38BF1CEB410F01D281420E
:101CA000704710B500F089F8922449004FF00050B9
:101CB0004FF08051FFF7C6BE4FF47F0C1CEAD012E4
:101CC0001EBF1CEAD11392EA0C0F93EA0C0F00F02E
:101CD000478090EA010F48BF42F480724FF0004CF9
:101CE0004CEA00204CEA012102EB0302A0FB0113A5
:101CF000A2F50002002918BF43F001035B0028BFD2
:101D00004FEA330342EB22425FEA132C4CEBC25002
:101D10002EBFBCEB436FB2F57C0F70474FEA036CEC
:101D2000BCF1004F08BF20F00100B2F57C0F38BFB6
:101D300070470BD582F0FF0212F5803FC8BF704795
:101D400000F1C040D8BF00F00040704700F5000C23
:101D50005FEA4C0C48BF7047B0F1C04000F073B868
:101D600090EA010F0CEAD11348BF42F48072624539
:101D700038BF634504D280EA010000F0004070479C
:101D800010B500F01AF800BF8900013E00F007B856
:101D900000F009B85FEA410C5FEA1C6C08D080EAE9
:101DA000010000F050B85FEA400C5FEA1C6CF6D10D
:101DB0004FF00040A0F5800070470EF1020E2EF0AB
:101DC000030E5EF8044B244204D44FEA4102B2F100
:101DD0007F4F11D84FEA4003B3F17F4F0CD80ED19B
:101DE0004FEAD07CB2F17F4F0CEB4C0C0CF1020CA3
:101DF00008BF4CEBD17C04E04FF0080C01E04FEA47
:101E0000D17C0CEB4C0324FA03F404F00704B4F186
:101E1000040C06D20EEB840CBDE810404CF0010C13
:101E20006047DFE80CF0070802024FF00040A0F521
:101E3000800010BD0846420018BFD2F1807288BFF2
:101E400000F0004010BDFF2141EAD050C0057047AE
:101E500051EA000C00F113801CF5000F58BFBCF5CF
:101E6000000F01D48142704707D711F5000F58BF0A
:101E700010F5000F15D481427047894270471CF558
:101E8000000F04D5BCF5000FF7D5884270474FF01E
:101E9000807C1CEB410F38BF1CEB400F01D2884205
:101EA000704780EA010081EA000180EA0100FFF743
:101EB000F8BE000090EA010F48BF81F000413FF5F5
:101EC00066AD421A04D882F00042A0EB0200114431
:101ED0004FEAD0524FF07F4C1CEA410FA2EBD15396
:101EE00018BF9CEA026F4AD04FF0004C4CEA002029
:101EF0004CEA012121FA03FCB0EB0C0C0FD412F0D8
:101F0000FE0F36D05FEA4C001DD5001240EBC250E8
:101F100038BF70471CF03F0F18BF70470BE0A2F1AD
:101F200001025FEA1C2040EBC25038BF70471CF032
:101F30007F0F18BF7047C3F12003994014BF401EA4
:101F400020F00100704780084FEA122308BF704755
:101F5000B0FA80FCA2EB0C02CCF1280C60FA0CF079
:101F600093EA122F04BF00EBC25070474FEAC370D0
:101F70007047130A5FEADC1008BF7047F6E79CEA77
:101F8000026F04D010EA5C0F08BF0020704710B544
:101F9000FFF713FF40DFF63E81F00040704700007E
:101FA0000000000000000102030406070809000009
:101FB000D01F000800000020180000006C0100087D
:101FC000E81F000818000020C00700008801000872
:101FD00001000000000000000100000010000000EF
:081FE000000000000024F400E1
:0400000508000131BD
:00000001FF
