:020000040800F2
:10000000600500209D010008AF160008B514000827
:10001000AD160008A9020008ED1B00080000000052
:10002000000000000000000000000000B3160008FF
:100030005D03000800000000B1160008B5160008B6
:10004000B7010008B7010008B7010008B7010008B0
:10005000B7010008B7010008B7010008B7010008A0
:10006000B7010008B7010008B7010008B701000890
:10007000B7010008B7010008B7010008B701000880
:10008000B7010008B7010008B7010008B701000870
:10009000B7010008B7010008B7010008B701000860
:1000A000B7010008B7010008B7010008B701000850
:1000B000B7010008B7010008B7010008B701000840
:1000C000B7010008B7010008B7010008B701000830
:1000D000B7010008911B0008B7010008B70100082C
:1000E000B7010008B7010008B7010008B701000810
:1000F000B7010008B7010008B7010008B701000800
:10010000B7010008B7010008B7010008B7010008EF
:10011000B7010008B7010008B7010008B7010008DF
:10012000B7010008AD020008B7010008B7010008D8
:10013000B7010008B7010008B7010008B7010008BF
:10014000B7010008B7010008B7010008B7010008AF
:10015000B7010008B7010008B70100089D1B00089F
:10016000B7010008B7010008B7010008B70100088F
:10017000B7010008B7010008B7010008000000003F
:10018000B7010008B7010008DFF80CD000F07AF8DA
:1001900000480047911C0008600500200648804781
:1001A00006480047FEE7FEE7FEE7FEE7FEE7FEE75C
:1001B000FEE7FEE7FEE7FEE74D17000889010008AD
:1001C0002DE9F05F0546002092469B46884606468C
:1001D000814640241BE0284641464746224600F01F
:1001E00041F853465A46C01A914110D31146184659
:1001F000224600F028F82D1A67EB01084F462246E8
:100200000120002100F01FF817EB00094E41201ECD
:10021000A4F10104DFDC484631462A464346BDE8E6
:10022000F09FD2B201E000F8012B491EFBD27047CB
:100230000022F6E710B513460A4604461946FFF7B2
:10024000F0FF204610BD202A04DB203A00FA02F11C
:10025000002070479140C2F1200320FA03F31943B4
:1002600090407047202A04DB203A21FA02F0002156
:10027000704721FA02F3D040C2F1200291400843B6
:1002800019467047064C074D06E0E06840F0010350
:1002900094E8070098471034AC42F6D3FFF778FF94
:1002A000E81C0008081D0008FEE70000014800F0F7
:1002B000B3B80000FC00002001681823CAB2103A4D
:1002C000B2FBF3F2054B6FF30901032A9B5CC36594
:1002D00000D9091D8165084670470000C81C000848
:1002E00010B5014600208B698A6A4FF0C07453B183
:1002F000B3F5005F15D072B1012A0CD0022A0AD0E2
:10030000032A09D104E01AB1012A06D0022A03D136
:10031000C96AC90100D5012010BDC96AA142FAD03D
:1003200010BD002AF7D0012AF2D0022AF3D0032A06
:10033000F3D010BD30B50468256825F4802525600C
:10034000046863608368402B036803D09960006889
:10035000C26030BD9A600068C16030BD704772B63F
:10036000FEE72DE9F0410446876D00F0BFFA06462E
:1003700094F835000025022806D08020606584F8B6
:1003800034500120BDE8F0812068016821F0160199
:1003900001602068416921F080014161206C08B949
:1003A000A06C20B12068016821F00801016020687C
:1003B000016821F0010101600CE000F097FA801B58
:1003C000052807D920206065032084F8350084F8CB
:1003D0003450D7E720680068C007EED194F85C106D
:1003E0003F208840B860012084F8350084F83450FC
:1003F0000020C7E790F83510022903D0802141651D
:1004000001207047052180F835100068016821F04F
:1004100001010160002070472DE9F84304464FF0C8
:100420000009CDF8009063484FF41651A56D00689F
:10043000B0FBF1F72E6894F85C10082000FA01F187
:1004400031420FD021680A6852070BD50A6822F0A2
:1004500004020A6094F85C108840A860606D40F067
:100460000100606594F85C104FF0010808FA01F093
:10047000304208D021684969090604D5A860606D3A
:1004800040F00200606594F85C100420884030421F
:1004900008D021680968890704D5A860606D40F01C
:1004A0000400606594F85C1010208840304218D039
:1004B00021680968090714D5A86020680168490304
:1004C00004D50068000308D5A16C07E00168C905E0
:1004D00003D4016821F008010160216C09B12046B4
:1004E000884794F85C1020208840304231D0216841
:1004F0000968C9062DD5A86094F83500052820683C
:10050000016806D0490347D5006800031DD4616C1B
:100510001CE021F0160101602068416921F0800192
:100520004161206C08B9A06C20B12068016821F0FD
:100530000801016094F85C103F208840A86084F8AE
:10054000358084F83490216D1FE0E16B09B12046BD
:100550008847606D00282BD0606DC00714D005203F
:1005600084F835002068016821F0010101600098DD
:10057000401C0090B84203D820680068C007F6D13C
:1005800084F8358084F83490E16C002910D001B0F3
:100590002046BDE8F04308470168C905D5D4016885
:1005A00021F01001016084F8358084F83490CCE7A4
:1005B000BDE8F883240000202DE9F041044600F056
:1005C00095F906465CB1022084F83500002584F8D0
:1005D00034502068016821F0010101600DE0012024
:1005E000BDE8F08100F082F9801B052805D92020A4
:1005F0006065032084F83500F2E720680068C007D2
:10060000F0D12268116820480140D4E90103184361
:10061000D4E903363343184363691843A369184385
:10062000E3691843236A18430843616A042903D124
:10063000D4E90B1319430843106020684069666AC7
:1006400020F0070130460E43012704280CD1A06A90
:100650000643E06A40B12046FFF742FE20B1402049
:10066000606584F83570BAE7206846612046FFF778
:1006700023FE94F85C203F2191408160656584F8F9
:1006800035700020ACE700003F8010F02DE9F0410C
:100690000446866D90F83400002501280DD0012015
:1006A00084F8340094F835700020012F07D084F8C6
:1006B000340002252846BDE8F0810220FBE702272E
:1006C00084F8357060652046FFF734FE94F85C10BE
:1006D0003F208840B0602068016841F01601016049
:1006E000206C20B12068016841F008010160206899
:1006F000016841F001010160DCE700002DE9F84FDD
:10070000DFF8BCA1002201250AF1040B03264FF0FB
:100710000F090BF1040E00BF0B6805FA02F4234029
:10072000A34270D10F7907F00307012F01D0022FE8
:1007300016D187684FEA420806FA08FC27EA0C0738
:10074000D1F80CC00CFA08FC4CEA070CC0F808C041
:100750004768A7430C79C4F3001494403C434460B9
:100760000C79E443A4070AD0C4684FEA420C06FAA5
:100770000CF7BC438F6807FA0CF72743C7600C7966
:1007800004F00304022C12D1D40800EB840CDCF832
:1007900020405707FF0E09FA07F824EA0804D1F8A9
:1007A000108008FA07F848EA0408CCF820800468AA
:1007B0004FEA420C06FA0CF7BC430F7907F0030727
:1007C00007FA0CF7274307604C6814F4403F70D0D9
:1007D0003C4C276847F480472760246822F00307D1
:1007E00004F480440094384C07EB040CDCF808480F
:1007F00097074FEA177809FA08F7BC43334FB84216
:1008000002D1002724E054E0314FB84201D1012742
:100810001EE0304FB84201D1022719E02E4FB842F6
:1008200001D1032714E02D4FB84201D104270FE076
:100830002B4FB84201D105270AE02A4FB84201D117
:10084000062705E0284FB84201D1072700E0082716
:1008500007FA08F72743CCF80878DAF8004057463B
:10086000D1F804C09C435FEACC3C00D51C433C60FB
:10087000DBF800405F46D1F804C09C435FEA8C3C43
:1008800000D51C433C60DEF800407746D1F804C038
:100890009C435FEACC2C00D51C433C60084F0C37CE
:1008A0003C68D1F804C09C435FEA8C2C00D51C4303
:1008B0003C60521C102AFFF42FAFBDE8F88F0000F7
:1008C000003C01404438024000300140000002403A
:1008D0000004024000080240000C024000100240E8
:1008E0000014024000180240001C024001488068C9
:1008F0007047000018000020024881680278114407
:1009000081607047180000200B4810B5016841F461
:1009100000710160016841F480610160016841F487
:1009200080710160032000F06FF80F2000F006F8DE
:1009300000F024F8002010BD003C024070B50D4DC1
:1009400004464FF47A712878B1FBF0F00A4909683F
:10095000B1FBF0F000F00AFB48B9102C07D20022DE
:100960002146501E00F030F800206C6070BD012060
:1009700070BD000018000020240000200A4808B5BF
:10098000016841F480410160006800F480400090FB
:100990000548001F016841F080510160006800F0C7
:1009A0008050009008BD000044380240002809DB58
:1009B00000F01F02012191404009800000F1E02079
:1009C000C0F8001170470000F0B40E4B1B680C46D5
:1009D000C3F30223C3F10705042D00D90425191D13
:1009E000072901D2002300E0DB1E012606FA05F1EB
:1009F000491E214099409E40761E16403143F0BC6E
:100A000001F00AB90CED00E0064900F007020868A1
:100A10004FF6FF03184040EA0220034A10430860E3
:100A2000704700000CED00E00000FA052DE9F047EA
:100A30000E46050065D0DFF81481D8F80000F7B243
:100A400000F00700B04207D288F80070D8F8000024
:100A500000F00700B04254D128683D4C810712D500
:100A6000400703D5206840F4E05020602878000754
:100A700003D5206840F4604020602068A96820F019
:100A8000F000084320602878C0072DD030496868FE
:100A90000839012812D0022813D0032811D0096880
:100AA000890700292DDA216821F003010143216023
:100AB000FFF71CFF814641F2883A0EE0096889037E
:100AC000EFE709688901ECE7FFF710FFA0EB0901E8
:100AD000514502D90320BDE8F0872068696800F01D
:100AE0000C00B0EB810FEFD1D8F80010404601F0B8
:100AF0000701B14207D90770006800F00700B04253
:100B000001D00120E7E72878400705D52068E9688B
:100B100020F4E050084320602878000706D52068BC
:100B2000296920F4604040EAC100206000F038F8F4
:100B30002168084AC1F30311515CC84006490860A6
:100B400006480068FFF7FAFE0020C4E7003C0240B8
:100B500008380240D01C0008240000201C0000209F
:100B60000448054900680968044AC1F38221515CC0
:100B7000C84070472400002008380240E01C0008EC
:100B80000448054900680968044AC1F34231515CD0
:100B9000C84070472400002008380240E01C0008CC
:100BA000154810B5006810F00C02144813D041101D
:100BB000042A0FD0082A0ED10F4C241F2268236864
:100BC00002F03F025B0207D52068C0F38810A0FB4B
:100BD000010106E0084610BD2168C1F38811A1FBA0
:100BE00000010023FFF7ECFA2168C1F30141491C21
:100BF0004900B0FBF1F010BD083802400024F400B9
:100C00002DE9F84F04006ED02078DFF84C93C00730
:100C1000A9F104054AD009F104000168C1F381017A
:100C2000012908D00068C0F3810002280AD1D9F850
:100C30000000400206D52868800337D56068002888
:100C4000E1D033E06068B0F5803F10D0B0F5A02F60
:100C5000286810D020F480302860286820F4802094
:100C600028606068A8B1FFF741FE06460DE02868DD
:100C700040F48030F4E740F480202860F7E700BFBC
:100C8000FFF734FE801B642873D828688003F7D5EB
:100C90000CE0FFF72BFE064605E000BFFFF726FE3F
:100CA000801B6428F0D828688003F7D42078DFF808
:100CB000AC8280074FF0000A3ED5A748001D0168AE
:100CC00011F00C0F08D00068C0F3810002280BD18E
:100CD000D9F80000400207D42868800716D5E068DC
:100CE000012800D112E033E1E068B8B10120C8F872
:100CF0000000FFF7FBFD064605E000BFFFF7F6FD2D
:100D0000801B0228C0D828688007F7D52868216989
:100D100020F0F80040EAC10028600DE0C8F800A00B
:100D2000FFF7E4FD064604E0FFF7E0FD801B022824
:100D30001FD828688007F7D42078000722D5864F6F
:100D400087486169703771B101210160FFF7CEFDFD
:100D5000064604E0FFF7CAFD801B022809D8386860
:100D60008007F7D50EE0C0F800A0FFF7BFFD0646EC
:100D700005E082E0FFF7BAFD801B02287DD83868C5
:100D80008007F7D42078400768D5DFF8CCB100277A
:100D90000BF13C0BDBF80000C0000BD4DBF80010BB
:100DA00041F08051CBF80010DBF80000012700F083
:100DB000805000906B4E3068C00510D4306840F40D
:100DC00080703060FFF792FD009005E0FFF78EFD28
:100DD0000099401A022850D83068C005F6D55E4EFA
:100DE000A0686C3601280FD00528306810D020F09C
:100DF00001003060306820F004003060A068B8B1B5
:100E0000FFF774FD00900FE0306840F00100F4E758
:100E100040F004003060F7E7FFF768FD0099411AE1
:100E200041F28830814266D830688007F4D50EE000
:100E3000FFF75CFD009007E0FFF758FD0099411AAD
:100E400041F28830814256D830688007F4D42FB1FF
:100E5000DBF8001021F08051CBF80010A069C8B376
:100E60003D49091D0968C1F3810102294AD00228C0
:100E7000504607D0C8F8600000E03CE0FFF736FDC0
:100E800004463BE04746C8F86000FFF72FFD0646E2
:100E900005E000BFFFF72AFD801B02282BD8286839
:100EA0008001F7D4D4E907010843A16A2E4A490812
:100EB00002EB0141626A41EA8211084394F82C1066
:100EC00040EA0161C9F8001001203866FFF70EFD05
:100ED000044606E03EE000BFFFF708FD001B0228C5
:100EE00009D828688001F7D534E000BFFFF7FEFC81
:100EF000001B022802D90320BDE8F88F2868800172
:100F0000F4D427E00128F7D0D9F80000E26900F412
:100F1000800191421CD1226A00F03F01914217D119
:100F200047F6C071626A0140B1EB821F10D1A26A1C
:100F30004FF0FF3300F4403103EB5202B1EB024FAC
:100F400006D194F82C1000F07060B0EB016F01D066
:100F50000120D1E70020CFE70438024000004742DB
:100F6000800E4742007000400000FFFF10B5401E99
:100F7000B0F1807F01D3012010BD4FF0E02460610B
:100F80000F21601700F048FE0020A06107202061BB
:100F9000002010BD704710B504460068406994F801
:100FA0003D10C0F3C010212911D180B12068143048
:100FB00050E8001F21F0800140E80012002AF5D11E
:100FC000606B08B1FFF7CDF9204600F069FC20689E
:100FD000406994F83E10C0F38010222911D180B1ED
:100FE0002068143050E8001F21F0400140E8001252
:100FF000002AF5D1A06B08B1FFF7B3F9204600F045
:1010000028FC002010BD7047F8B501680446086848
:10101000CA684B6910F00F0F4FF000055AD003F06B
:10102000010602F49077374365D0C10705D0D1059A
:1010300003D5216C41F001012164410705D5D90791
:1010400003D0216C41F002012164810705D5D90745
:1010500003D0216C41F004012164010707D502F09F
:101060002001314303D0216C41F008012164216C3F
:1010700000293BD0800604D5900602D5204600F01A
:101080001DFC20684069216CC0F3801001F008014C
:10109000014320462BD000F0DCFB2068406940066D
:1010A00021D52068143050E8001F21F0400140E8AD
:1010B0000012002AF5D1A06BA8B16C490165A06BA4
:1010C000FFF798F9002811D0A06B016D01B0BDE8C1
:1010D000F040084783060ED593060CD52046BDE8A0
:1010E000F84000F0EBBB2046FFF78DFFF8BDFFF79F
:1010F0008AFF2564F8BD266B2023012E79D1C60610
:1011000077D5D60675D508684868009048694006C6
:1011100040D5A16B086840680004000CEAD0A28D9D
:101120008242E7D9E085C869B0F5807F2DD020687C
:101130000C3050E8001F21F4807140E80012002AB2
:10114000F5D12068143050E8001F21F0010140E87B
:101150000012002AF5D12068143050E8001F21F059
:10116000400140E80012002AF5D184F83E302563A2
:1011700020680C3050E8001F21F0100140E80012F8
:10118000002AF5D1A06BFFF7ECF8A08DE18D401A95
:1011900081B229E0A08DE18D401A81B2E08D002856
:1011A000A8D00029A6D020680C3050E8002F22F4E7
:1011B000907240E80026002EF5D12068143050E8E7
:1011C000002F22F0010240E80026002EF5D184F81D
:1011D0003E30256320680C3050E8002F22F01002CA
:1011E00040E80023002BF5D12046FFF7D3FEF8BDE1
:1011F000FFE705062BD5150629D594F83D002128D3
:10120000F5D1A068B0F5805F01D12069B0B1206A46
:10121000411C2162216800784860E08C401E000477
:10122000000CE084E3D12068C16821F08001C16036
:101230002068C16841F04001C160D8E7206A008899
:10124000C0F308004860206A801C2062E5E7400681
:10125000CDD55006CBD5CA68204622F04002CA60E0
:1012600084F83D3000F025F9C1E700005D17000863
:1012700070B5040004D094F83D00002510B106E0DC
:10128000012070BD84F83C50204600F023F8242053
:1012900084F83D002068C16821F40051C1602046F7
:1012A00000F06CFB2068016921F490410161206825
:1012B000416921F02A0141612068C16841F400516F
:1012C000C1602564202084F83D0084F83E000020A1
:1012D00070BD0000F0B587B0064614216846FEF7E1
:1012E000A7FF3549334F34680025334814390222AB
:1012F0000323BC4220D1046844F010040460006859
:1013000000F010000590086840F0010008600868CF
:10131000694600F00100059058028DE8250007207D
:10132000CDE903302548FFF7E9F9002211462520D1
:10133000FFF74AFB252038E0214FBC4237D1046833
:1013400044F020040460006800F020000590086864
:1013500040F0040008600868694600F00400059049
:10136000C0208DE825000820CDE903301548FFF79F
:10137000C5F9164C144820608005C4E901053815EC
:10138000C4E903506561A561E56125622046656297
:10139000FFF712F908B1FEF7E2FFB463002211462D
:1013A0004720A663FFF710FB4720FFF7FFFA07B0BF
:1013B000F0BD00000010014044380240000002402F
:1013C000001401400008024028640240FC00002094
:1013D00090F83E30202B0ED159B152B190F83C30EC
:1013E000012B08D0012380F83C300023036300F078
:1013F0004BBB0120704702207047704770470000C8
:101400002DE9F843044690F83D001F4616460D4668
:1014100020284CD1C5B1BEB194F83C00012846D07B
:10142000012084F83C004FF00008C4F840802120DF
:1014300084F83D00FFF75AFAA6848146E684A06846
:10144000B0F5805F03D004E00120BDE8F883206997
:1014500028B12E465FF0000584F83C800EE000269F
:10146000FAE78021204600F057FBA0B9AEB116F88C
:10147000010B21684860E08C401EE084E08C4B4604
:101480004FF0000200970028EBD14FF040012046BA
:1014900000F042FB30B10320D7E735F8020BC0F370
:1014A0000800E6E7202084F83D000020CDE7022078
:1014B000CBE77047FEE7000030B53B49487821286C
:1014C00070D33A4B9FED3A0A002200BF02EB420074
:1014D00000EBC20008448D78C478AC425ED1047938
:1014E000512C04D0522C1ED0532C57D139E050F837
:1014F000054F1C60406858600020B3EE001A00BF22
:1015000033F9104000EE904A01EB8004401CF8EEE5
:10151000E00AC0B2032860EE800A60EE810AC4EDE2
:101520000C0AEDD33AE050F8054F9C604068D86053
:101530001E4C0020DFED1F0A083400BF34F91050A4
:1015400001EE105A01EB8005401CB8EEC11AC0B282
:10155000032821EE001A21EE201A85ED0F1AEDD393
:101560001CE050F8054F1C61406858610F4C00208A
:10157000DFED110A103400BF34F9105001EE105A9B
:1015800001EB8005401CB8EEC11AC0B2032821EE61
:10159000001A21EE201A85ED091AEDD3521CD2B2A1
:1015A000042A93D330BD00002C000020000000204E
:1015B000000000380000FA4400003443094808B530
:1015C000016841F4800101600068002200F480009D
:1015D000009011463920FFF7F7F9BDE8084039209F
:1015E000FFF7E4B9303802400D4808B5016841F012
:1015F00080010160016801F080010091016841F003
:1016000004010160016801F004010091016841F0EA
:1016100001010160006800F00100009008BD0000B9
:10162000303802400C4810B50A4901604FF4E131EE
:101630004160002181600C22C160C0E90412816117
:10164000C161FFF715FE002803D0BDE81040FEF78A
:1016500086BE10BD001001407400002010B5114C72
:101660000F480C2120604FF4E13060600020A06042
:10167000E060C4E90401A061E0612046FFF7F8FDE5
:1016800008B1FEF76CFE2068C16841F01001C1602E
:10169000BDE81040212204490248FFF799BE00002E
:1016A00000140140B80000202F000020FEE7FEE7F4
:1016B00070477047FFF720B930B593B030216846C6
:1016C000FEF7B6FD14210CA8FEF7B2FD1D4800255B
:1016D000016841F080510160006800F08050119075
:1016E0001948016841F4804101600068022400F457
:1016F0008040119001200090000401908001CDE90C
:10170000064008AA0420A82182E813000B9068462E
:10171000FFF776FA08B172B6FEE70CA90F2081E850
:1017200031004FF4A0500F904FF4805010900521DD
:101730000CA8FFF77BF9002801D072B6FEE713B0C2
:1017400030BD00004038024000700040024801688F
:1017500041F470010160704788ED00E010B5806BC6
:101760000021C185C184FFF74EFC10BD70B5846BAC
:101770002068406994F83D10C0F3C010002521296D
:1017800004D118B1E584204600F08AF82068406949
:1017900094F83E10C0F38010222904D118B1E585D9
:1017A000204600F056F8206C40F0100020642046DF
:1017B000FFF729FC70BD10B50146806B0968096808
:1017C000C9052FD40021C18501680C3151E8002FD3
:1017D00022F4807241E80023002BF5D10168143116
:1017E00051E8002F22F0010241E80023002BF5D13F
:1017F0000168143151E8002F22F0400241E8002333
:10180000002BF5D1202180F83E10016B012909D170
:1018100001680C3151E8002F22F0100241E800234A
:10182000002BF5D1016B012902D0FFF7E6FD10BDB9
:10183000818DFFF7AFFB10BD10B5806B016B0129E7
:1018400002D0FFF7DBFD10BD818D4908FFF7A2FB39
:1018500010BD01680C3151E8002F22F4907241E86C
:101860000023002BF5D10168143151E8002F22F03C
:10187000010241E80023002BF5D1016B012909D1B8
:1018800001680C3151E8002F22F0100241E80023DA
:10189000002BF5D1202180F83E1000210163704714
:1018A00001680C3151E8002F22F0C00241E800230A
:1018B000002BF5D1202180F83D10704708B590F835
:1018C0003E10222901D0022008BD82684FF48053C7
:1018D0009A4201D1016921B1816A9A421BD04AB171
:1018E0000AE00268816A5268C2F308020A80816ACB
:1018F000891C08E0026972B10268526802F07F0236
:101900000A70816A491C8162C18D491E0904090C53
:10191000C18503D019E002685268F1E70168CA681E
:1019200022F02002CA600168CA6822F48072CA608C
:1019300001684A6922F001024A61202180F83E10C4
:10194000016B012903D0FFF758FD002008BD0021DD
:10195000016301680C3151E8002F22F0100241E8C8
:101960000023002BF5D101680A68D20602D50A6867
:1019700049680091818DFFF70DFBE6E770B50446DD
:1019800000680169E26821F4405111430161216955
:10199000A068E26908436169114308432168CA6885
:1019A00049F20C639A430243CA6020684169A26904
:1019B00021F440711143416131492068884202D0CD
:1019C0003049884202D1FFF7DBF801E0FFF7C8F8A1
:1019D000E2690023192164253226B2F5004F6268BE
:1019E00028D0A0FB0101930F9200FEF7E9FB01460E
:1019F000B0FBF5F06FF01802504301EB800006EBEE
:101A00000010B0FBF5F000F0F002B1FBF5F002EBD6
:101A10000012B1FBF5F06FF01803584301EB8000A2
:101A200006EB0010B0FBF5F000F00F002168104449
:101A3000886070BDA0FB010192185B41FEF7C0FBFE
:101A40000146B0FBF5F00201B1FBF5F06FF01803B1
:101A5000584301EB800006EBC000B0FBF5F000F04E
:101A6000F80002EB4002B1FBF5F0584301EB8000B7
:101A700006EBC000B0FBF5F000F00700D6E7000071
:101A8000001001400014014038B5816282850025B4
:101A9000134604460564222084F83E00A26B1B48CE
:101AA000D063A26B1A481064A26B1A48D064A06B72
:101AB0000A4605652168A06B091DFEF7E7FD206851
:101AC00001684068009084F83C5020680C3050E871
:101AD000001F41F4807140E80012002AF5D120680F
:101AE000143050E8001F41F0010140E80012002AC4
:101AF000F5D12068143050E8001F41F0400140E863
:101B00000012002AF5D1002038BD0000B7170008E8
:101B1000391800086D1700082DE9F041984617465E
:101B20000E460446069D27E0681C25D02DB1FEF721
:101B3000DDFEA0EB0800A8421ED920680C3050E85A
:101B4000001F21F4D07140E80012002AF5D120686E
:101B5000143050E8001F21F0010140E80012002A73
:101B6000F5D1202084F83D0084F83E00002084F860
:101B70003C000320BDE8F0812068006836EA0000E0
:101B800004D00020B842CFD00020F3E70120F9E7CD
:101B90000148FFF739BA00007400002038B510483A
:101BA000006801680F4CC1F3001179B10168416808
:101BB0000091016840680A48FFF7EDF90A4800689B
:101BC0004068C0F121006070FFF776FC2122E11C23
:101BD0000348FFF7FDFBBDE838400148FFF714BAA2
:101BE000B80000202C000020FC000020FEE70021AF
:101BF0000A464318491C89B2DA702129F9D35521C4
:101C00008170027042707047014A024900F023B8A7
:101C1000791C0008280000200907090E002804DBB1
:101C200000F1E02080F80014704700F00F0000F190
:101C3000E02080F8141D704702E008C8121F08C198
:101C4000002AFAD170477047002001E001C1121F3D
:101C5000002AFBD170472DE9F04116460F46044695
:101C6000002503E03946B047641C6D1C207800282D
:101C7000F8D12846BDE8F08113B54FF47A730122FC
:101C800069460248FFF7BCFB01201CBD7400002020
:101C9000FEF73AFEFFF710FDFFF7A6FCFFF78EFCFC
:101CA000FFF7DCFCFFF7BEFC0348FFF7A0FF03A033
:101CB000FFF7AAFFFEE700002C0000207465737494
:101CC00021210D0A00000000000610160006101663
:101CD00000000000000000000102030406070809DC
:101CE0000000000001020304081D0008000000209D
:101CF0002C000000381C0008341D00082C000020B7
:101D000034050000481C000800000000000000002E
:101D100000000000000000000000000000000000C3
:101D20000100000010000000000000000024F4008A
:041D300000000000AF
:040000050800018965
:00000001FF
