:020000040800F2
:1000000020070020CD0100080B140008B5120008DD
:1000100009140008CF020008A7160008000000001D
:100020000000000000000000000000000F140008A5
:10003000D1020008000000000D1400086D14000833
:10004000E7010008E7010008E7010008E7010008F0
:10005000E7010008E7010008E7010008E7010008E0
:10006000E7010008E7010008E7010008E7010008D0
:10007000E7010008E7010008E7010008E7010008C0
:10008000E7010008E7010008E7010008E7010008B0
:10009000E7010008E7010008E7010008E7010008A0
:1000A000E7010008DD140008E7010008D11400088A
:1000B000E9140008E7010008E7010008E70100086B
:1000C000E7010008E7010008E7010008E701000870
:1000D000E7010008E7010008E7010008E701000860
:1000E000E7010008E7010008E7010008E701000850
:1000F000E7010008E7010008E7010008E701000840
:10010000E7010008E7010008E7010008E70100082F
:10011000E7010008E7010008E7010008E70100081F
:10012000E7010008E7010008E7010008E70100080F
:1001300000F002F800F03AF80AA090E8000C8244BF
:100140008344AAF10107DA4501D100F02FF8AFF29C
:10015000090EBAE80F0013F0010F18BFFB1A43F0A5
:10016000010318472419000044190000103A24BF65
:1001700078C878C1FAD8520724BF30C830C144BF0C
:1001800004680C607047000000230024002500264E
:10019000103A28BF78C1FBD8520728BF30C148BFEA
:1001A0000B6070471FB51FBD10B510BD00F058F8AB
:1001B0001146FFF7F7FF01F0AFFA00F076F803B44D
:1001C000FFF7F2FF03BC00F07BF80000094880470E
:1001D00009480047FEE7FEE7FEE7FEE7FEE7FEE729
:1001E000FEE7FEE7FEE7FEE704480549054A064B41
:1001F00070470000CF1400083101000820010020E2
:100200002007002020030020200300204FF00002E0
:1002100000B5134694469646203922BFA0E80C50FC
:10022000A0E80C50B1F12001BFF4F7AF090728BFD7
:10023000A0E80C5048BF0CC05DF804EB890028BF53
:1002400040F8042B08BF704748BF20F8022B11F07C
:10025000804F18BF00F8012B7047704770477047F8
:10026000754600F029F8AE4605006946534620F071
:100270000700854618B020B5FFF7B6FFBDE820405F
:100280004FF000064FF000074FF000084FF0000B52
:1002900021F00701AC46ACE8C009ACE8C009ACE805
:1002A000C009ACE8C0098D4670470446AFF3008032
:1002B0002046FFF784FF000000487047BC00002084
:1002C00001491820ABBEFEE7260002007047FEE79A
:1002D000704772B6FEE700002DE9F84FDFF8C891CD
:1002E000002409F1040A0AF1040B23460F270BF13D
:1002F000040ED1E00125A54006EA0502AA4276D106
:10030000DFF8A8C14E68A6EB0C0866452BD00DDCC3
:10031000032E34D005DC36B3012E19D0022E2FD196
:100320001BE0112E16D0122E2AD119E0B8F5881F25
:1003300019D006DCB8F5803F15D0B8F5801F1FD165
:1003400011E0B8F5001F0ED0B8F5041F18D10AE06F
:10035000CB6815E0CB681B1D12E0CB6808330FE0BB
:10036000CB680C330CE08B682BB1012B4FF00803EA
:1003700003D0456104E0042302E0056100E00023AE
:10038000FF2A01D8064601E000F104064FEA840581
:1003900001D9A5F12005D6F8008007FA05FC28EA66
:1003A0000C0803FA05F548EA0508C6F800804D6810
:1003B000ED0070D53E4DAE6946F00106AE61AD6907
:1003C00024F0030605F0010500953A4D06EB050CF7
:1003D000DCF80850A607360F07FA06F825EA0805E4
:1003E000DFF8D480404503D14FF0000825E052E00B
:1003F000DFF8C880404502D14FF001081DE0DFF86A
:10040000C080404502D14FF0020816E0DFF8B4800A
:10041000404502D14FF003080FE0DFF8AC804045C3
:1004200002D14FF0040808E0DFF8A080404502D177
:100430004FF0050801E04FF0060808FA06F848EA10
:100440000508CCF808804D68D9F80060ED034D46EA
:1004500001D5164300E096432E604D68DAF800603F
:10046000AD03554601D5164300E096432E604D6816
:10047000DBF80060ED025D4601D5164300E09643CF
:100480002E604D68DEF80060AD02754601D516435A
:1004900000E096432E60641C0A681646E2407FF432
:1004A00029AFBDE8F88F00000004014000001110E2
:1004B000001002400000014000080140000C014013
:1004C000001001400014014000180140001C0140D0
:1004D0000AB1016170470904FBE700000148806828
:1004E000704700000400002002488168027811442F
:1004F0008160704704000020074810B5016841F092
:1005000010010160032000F075F80F2000F006F8DC
:1005100000F024F8002010BD0020024070B50D4D01
:1005200004464FF47A712878B1FBF0F00A49096863
:10053000B1FBF0F000F0CCFA48B9102C07D2002241
:100540002146501E00F036F800206C6070BD01207E
:1005500070BD000004000020100000200C4808B509
:10056000816941F001018161816901F0010100911E
:10057000C16941F08051C161C06900F080500090B4
:100580000448416821F0E06141F00071416008BD1C
:100590000010024000000140002809DB00F01F02AB
:1005A000012191404009800000F1E020C0F80011D5
:1005B00070470000F0B40E4B1B680C46C3F30223D7
:1005C000C3F10705042D00D90425191D072901D2FF
:1005D000002300E0DB1E012606FA05F1491E21403A
:1005E00099409E40761E16403143F0BC01F05CB845
:1005F0000CED00E0064900F0070208684FF6FF0323
:10060000184040EA0220034A104308607047000087
:100610000CED00E00000FA052DE9F0470F4605005B
:1006200061D0434E306800F00700B84209D230680C
:1006300020F0070038433060306800F00700B8420F
:1006400051D128683B4C810712D5400703D560681B
:1006500040F4E06060602878000703D5606840F4EB
:10066000605060606068A96820F0F0000843606036
:100670002878C00728D06868012810D0216802288F
:1006800010D0890700292EDA616821F003010143A7
:100690006160FFF723FF804641F288390DE0216851
:1006A0008903EFE78901EDE7FFF718FFA0EB0801E9
:1006B000494502D90320BDE8F0876068696800F009
:1006C0000C00B0EB810FEFD1306800F00700B842AA
:1006D0000BD9306820F0070038433060306800F0F4
:1006E0000700B84201D00120E5E72878400705D58A
:1006F0006068E96820F4E0600843606028780007DB
:1007000006D56068296920F4605040EAC100606045
:1007100000F018F86168084AC1F30311515CC84041
:100720000649086006480068FFF7F8FE0020C2E7A7
:100730000020024000100240781A0008100000203B
:100740000800002012A185B00FC98DE80F0014A089
:10075000144A006804905168134801F00C03042BFC
:1007600010D0082B0ED1C1F38343C9031DF8030039
:100770000AD5516804AAC1F34041515C0A4A50436A
:10078000B0FBF1F005B0704708494843FAE70000B4
:1007900002030405060708090A0B0C0D0E0F1010C2
:1007A000010200000010024000127A0000093D0022
:1007B0002DE9F84F040070D02078C04DC00749D013
:1007C0006868C0F38100012807D06868C0F3810021
:1007D000022809D16868C00306D52868800339D586
:1007E00060680028E7D035E06068B0F5803F0BD046
:1007F00010B1B0F5A02F11D0286820F48030286007
:10080000286820F4802002E0286840F480302860C6
:10081000606890B1FFF762FE06460AE0286840F47F
:1008200080202860F0E700BFFFF758FE801B642897
:1008300073D828688003F7D50CE0FFF74FFE064613
:1008400005E000BFFFF74AFE801B6428F0D8286847
:100850008003F7D420789A4E80074FF001094FF0BB
:10086000000839D5686810F00C0F07D06868C0F32D
:100870008100022809D16868C00306D4286880076F
:1008800014D52069012808D110E02069B0B1C6F85C
:100890000090FFF723FE074605E00AE1FFF71EFE82
:1008A000C01B0228C4D828688007F7D5286861696A
:1008B00020F0F80040EAC10028600DE0C6F8008092
:1008C000FFF70CFE074604E0FFF708FEC01B0228F6
:1008D00023D828688007F7D4207800072CD57948DA
:1008E000A169D9B1C0F80090FFF7F8FD074604E010
:1008F000FFF7F4FDC01B02280FD8686A8007F7D500
:1009000071484FF4FA510068B0FBF1F0009000BF5D
:100910000098411E0091FAD20EE080E0C0F80080FD
:10092000FFF7DCFD074604E0FFF7D8FDC01B0228F7
:1009300075D8686A8007F7D42078400760D5E869E1
:100940000027C00008D4E86940F08050E861E869F9
:10095000012700F0805000905C480168C90513D45D
:100960000168834641F480710160FFF7B7FD82465C
:1009700006E000BFFFF7B2FDA0EB0A0064284ED8E6
:10098000DBF80000C005F5D5E06801280AD008B101
:10099000052813D0286A20F001002862286A20F078
:1009A000040002E0286A40F001002862E06841F299
:1009B000883B98B1FFF792FD82460BE0286A40F031
:1009C00004002862EEE700BFFFF788FDA0EB0A01F4
:1009D00059455AD8286A8007F6D50CE0FFF77EFD06
:1009E000824605E0FFF77AFDA0EB0A0159454CD895
:1009F000286A8007F6D41FB1E86920F08050E861CA
:100A0000E06988B36968C1F38101022944D00228F2
:100A1000C6F8608004D0FFF761FD044638E034E09A
:100A2000FFF75CFD074604E0FFF758FDC01B0228F6
:100A30002BD828688001F7D4206AB0F5803F05D113
:100A40006868A16820F4003008436860D4E90801B0
:100A50000843696821F4741108436860C6F860901F
:100A6000FFF73CFD044606E025E000BFFFF736FD3A
:100A7000001B022809D828688001F7D51BE000BFB9
:100A8000FFF72CFD001B022802D90320BDE8F88FD8
:100A900028688001F4D40EE00128F7D06868226A43
:100AA00000F48031914204D1616A00F470108842F0
:100AB00001D00120EAE70020E8E700000010024032
:100AC00000004242800442421000002000700040BA
:100AD00010B5401EB0F1807F01D3012010BD4FF052
:100AE000E02460610F21601700F0DEFD0020A061AE
:100AF00007202061002010BD7047704770B590F846
:100B00003C20012A2CD0012480F83C40022280F8AD
:100B10003D2003685A689D6822F070060A683243D7
:100B20005A60104B02689A420ED00F4B9A420BD07B
:100B3000B2F1804F08D00D4B9A4205D00C4B9A422F
:100B400002D00C4B9A4204D1496825F08003194326
:100B5000916080F83D40002180F83C10084670BD4F
:100B6000022070BD002C0140003401400004004010
:100B700000080040000C004010B5040003D094F8B9
:100B80003D0010B107E0012010BD002084F83C00BA
:100B9000204600F01FF8022084F83D00211D206847
:100BA00000F0A8FC012084F8460084F83E0084F898
:100BB0003F0084F8400084F8410084F8420084F843
:100BC000430084F8440084F8450084F83D00002088
:100BD00010BD000008B50068B0F1804F12D10A487E
:100BE000C16941F00101C161C069002200F001004A
:100BF000009011461C20FFF7DDFCBDE808401C20DA
:100C0000FFF7CABC08BD00000010024090F83D107C
:100C1000012901D001207047022180F83D100168B0
:100C2000CA6842F00102CA6000680E4988420ED0CC
:100C30000D4988420BD0B0F1804F08D00B49884253
:100C400005D00B49884202D00A49884204D1816804
:100C500001F00701062903D0016841F0010101609C
:100C600000207047002C0140003401400004004087
:100C700000080040000C004070B5044690F83C00AD
:100C8000012817D0012584F83C50022084F83D004B
:100C90002068826822F0770222F47F42826008682E
:100CA000502830D00DDC20284DD005DC98B310281A
:100CB0003BD148E0022070BD302844D0402834D1D8
:100CC00039E0602828D0702806D0B0F5805F2CD09D
:100CD000B0F5005F29D10AE0CB68D1E90121206895
:100CE00000F05BFC2068816841F0770109E0CB6887
:100CF000D1E90121206800F050FC2068816841F4AE
:100D00008041816011E0CA684968206800F057FCA2
:100D10005021206807E016E0CA684968206800F0A2
:100D200095FC6021206800F042FC84F83D500020D2
:100D300084F83C0070BDCA684968206800F03FFC38
:100D400040212068EFE7226801461046EBE70000EB
:100D500070B5224D01682A68914227D1007F012891
:100D600024D11F4C207C10B301281FD1002128461C
:100D700000F08AFAE06029680A6A22F00A020A6230
:100D800029680A6A0A6200212174A1688842A0EBDE
:100D9000010001D800F58030606100F08DFD11493F
:100DA00000F09EFD104900F0C5FC206070BD0021E0
:100DB0000A4800F069FAA0602868016A21F00A0177
:100DC00001622868016A41F00201016200210348C2
:100DD00000F006F90120207470BD00002C000020F6
:100DE000140000200000AA430000FA442DE9F0415D
:100DF000054690F83C000C46012836D0012085F8C5
:100E00003C008AB3042A42D02868082A51D0D4E989
:100E10000023E168066A26F480560662C669076AFE
:100E200026F4407646EA03234FF6FF7606EA0131C0
:100E300023F4704319434FF4005627F4005306EA95
:100E400002321A43C16102622868C16921F440611B
:100E5000C1612868C169A26841EA0221C16100201C
:100E600085F83C00BDE8F08101E00220FAE7D4E912
:100E70000012E368286800F0B3FB2868816921F05C
:100E80000C01816128688169A26811430FE0D4E9EF
:100E90000012E368286800F0EBFB2868816921F400
:100EA0004061816128688169A26841EA022181610B
:100EB000D5E7D4E90027267B016A21F4807101621D
:100EC000C169036A21F00301394321F0F0073107BA
:100ED0004FF4007647EA116123F4007306EA022218
:100EE0001A43C16102622868C16921F00C01C16125
:100EF0002868C169A2681143B0E710B5040003D0A7
:100F000094F83D0010B107E0012010BD002084F8E6
:100F10003C00204600F01EF8022084F83D00211D10
:100F2000206800F0E7FA012084F8460084F83E00CB
:100F300084F83F0084F8400084F8410084F84200BF
:100F400084F8430084F8440084F8450084F83D00A8
:100F5000002010BD00B585B00021009101910291E3
:100F6000039100681A49884230D11A48816941F4D6
:100F700000618161816901F400610491816941F03E
:100F8000400181618069694600F0400004904FF49F
:100F9000007000901048FFF79FF91048416821F059
:100FA000C00141F0E06141F0C00141600022114602
:100FB0001920FFF7FFFA1920FFF7EEFA00220121AE
:100FC0001B20FFF7F7FA1B20FFF7E6FA05B000BD7C
:100FD000002C0140001002400018014000000140B8
:100FE00010B5044651B104290DD0082910D094F849
:100FF000410094F84520012811D10EE094F83E00FC
:1010000094F84220F7E794F83F0094F84320F2E781
:1010100094F8400094F84420EDE7012A01D0012023
:1010200010BD022051B1042911D0082918D084F82C
:10103000410084F845000C291BD13CE084F83E00B7
:1010400084F842002068C26842F0020210E084F88E
:101050003F0084F843002068C26842F0040207E0C1
:1010600084F8400084F844002068C26842F0080216
:10107000C2600122206800F083FA1149206888428A
:101080000ED0104988420BD0B0F1804F08D00E49E5
:10109000884205D00D49884202D00D49884204D1CA
:1010A000816801F00701062903D0016841F00101C0
:1010B0000160002010BD2068C26842F01002D7E72E
:1010C000002C0140003401400004004000080040B2
:1010D000000C004070B50446006801694FF000053F
:1010E000C943890715D4C168C943890711D4E91ECA
:1010F000016101202077206880698007204602D0A6
:10110000FFF726FE04E000F098F8204600F096F87D
:10111000257720680169C943490717D4C168C943C5
:10112000490713D46FF00401016102202077206881
:10113000806910F4407F204602D0FFF709FE04E0EA
:1011400000F07BF8204600F079F8257720680169E7
:10115000C943090716D4C168C943090712D46FF0FF
:1011600008010161042020772068C06980072046BB
:1011700002D0FFF7EDFD04E000F05FF8204600F03C
:101180005DF8257720680169C943C90617D4C1688D
:10119000C943C90613D46FF01001016108202077FC
:1011A0002068C06910F4407F204602D0FFF7D0FDD0
:1011B00004E000F042F8204600F040F8257720686F
:1011C0000169C943C90708D1C168C943C90704D126
:1011D000891E0161204600F033F820680169C94387
:1011E000090609D4C168C943090605D46FF0800116
:1011F00001612046FFF780FC20680169C943490668
:1012000009D4C168C943490605D46FF040010161A2
:10121000204600F04EF820680169C94389060BD4C6
:10122000C168C943890607D46FF0200101612046D7
:10123000BDE87040FFF761BC70BD704770470000AB
:1012400010B50D4900680968884214D10B480C4A52
:101250000178491CC9B20170127C002A0BD10A29FD
:1012600009D10021017000F0EDF8BDE81040002127
:101270000448FFF7B5BE10BD740000200000002038
:10128000140000202C0000200246002041B1042957
:1012900009D008290AD00C2901D11068006C7047C8
:1012A0001068406B70471068806B70471068C06BA7
:1012B00070477047FEE7000070B586B000241B48F9
:1012C0000094019402940394816941F0400181618A
:1012D000816901F040010491816941F0100181614F
:1012E000816901F010010491816941F0040181617B
:1012F00080690F4E00F00400049000224021304627
:10130000FFF7E6F840200125CDE900050320CDE9EF
:10131000024069463046FEF7DFFF80208DE831004D
:1013200069463046FEF7D8FF06B070BD0010024097
:101330000010014010B586B00024194805940494AB
:1013400000940194029415490394016040F2CF2166
:10135000C0E901144FF6FE71C0E9031444618461D1
:10136000FFF7CBFD08B1FEF7B4FF049404A90C48C5
:101370000594FFF7C3FB08B1FEF7ABFF0120CDE9F1
:10138000004002940022694605480394FFF72EFDB1
:10139000002801D0FEF79DFF06B010BD002C0140D3
:1013A0002C00002010B586B000241648009401944B
:1013B0000294039404944FF0804105940160472106
:1013C000C0E9011442F20F71C0E903148461FFF710
:1013D000D3FB08B1FEF77DFF4FF4805000906946C3
:1013E0000848FFF749FC08B1FEF773FF049404A90D
:1013F00004480594FFF782FB002801D0FEF769FF3F
:1014000006B010BD74000020FEE7FEE7704770478D
:10141000084810B5084A0021C0E900128160C16087
:10142000017441610548FFF7DBFDBDE81040044849
:10143000FFF7ECBB1400002000007A442C000020D1
:101440007400002010B5084C012240212046FFF70F
:101450003FF8142000F038F920460022BDE8104083
:101460004021FFF735B8000000100140FFF73CB8FD
:1014700030B58FB028216846FEF7C8FE14210AA8AF
:10148000FEF7C4FE01210804CDE9001000240294F7
:1014900002250491CDE907504FF4E0100990684609
:1014A000FFF786F908B172B6FEE70F20CDE90A050D
:1014B0004FF48060CDE90C4002210AA80E94FFF79A
:1014C000ABF8002801D072B6FEE70FB030BD704710
:1014D0000148FFF7FFBD00002C0000200148FFF786
:1014E000F9BD00002C0000200148FFF7F3BD00000B
:1014F00074000020F0B502681C4B1D4D1D4E1E4FA0
:101500001E4C4FF0804C984209D0A04207D0604555
:1015100005D0A84203D0B04201D0B84204D122F095
:10152000700E4A6842EA0E02984209D0A04207D0E3
:10153000604505D0A84203D0B04201D0B84203D1E3
:1015400022F44075CA682A434D6922F080022A437A
:1015500002608A68C2620A688262984201D0A04230
:1015600001D10969016301214161F0BD002C0140F5
:101570000004004000080040000C0040003401401E
:1015800010B501F01F030121046A99408C430462E5
:10159000016A9A401143016210BD10B5846842EAA5
:1015A000032224F47F440A432243826010BD8268F0
:1015B00022F070020A4342F007018160704710B5C3
:1015C000036A046A24F001040462846924F0F004CC
:1015D00044EA021423F00A020A438461026210BD45
:1015E00070B5046A24F0010404628469056A124E2D
:1015F000B0420ED0114EB0420BD0B0F1804F08D0A7
:101600000F4EB04205D00F4EB04202D00E4EB04247
:1016100003D124F00304144301E044F001041A0749
:1016200024F0F00444EA126225F00A0301F00A01F2
:1016300019438261016270BD002C014000340140F9
:101640000004004000080040000C004010B5036A90
:1016500023F0100303628369046A23F4704343EAAE
:10166000023224F0A00343EA01118261016210BD3D
:1016700030B5046A24F0100404628469056A24F415
:10168000407444EA022222F470444FF6FF7202EAE8
:1016900003322243A02425F0A00304EA01111943D8
:1016A0008261016230BDFEE70907090E002804DBF4
:1016B00000F1E02080F80014704700F00F0000F106
:1016C000E02080F8141D704771B54FF461754FF03C
:1016D000E023104E009819E02C46A04200D80446A2
:1016E0009869614201EBC10110EBC10105D49A690F
:1016F000824208DA8A42FADA05E08A199969814257
:10170000FCDD9142FADC0098001B00900028E3D138
:1017100078BD000040190100FEF7EEFEFFF7A8FEBD
:10172000FFF7CAFDFFF706FEFFF73CFEFFF770FE6E
:10173000FEE700004FF47F0C1CEAD0121EBF1CEA2B
:10174000D11392EA0C0F93EA0C0F00F0858090EA17
:10175000010F48BF42F4807240F4000C41F40000D5
:101760002CF07F4120F07F4000B58142A2EB0302C4
:101770000FF2081CACEB504EC0F100009EF800E0E8
:101780004FEA4E0E00FB0EFC38BF49004FEA2C1CFE
:1017900002F5FA020CFB0EF34FEACE1E4FEA112CB3
:1017A0004FEAC1210EEB635E42EB22420EFB0CFCC2
:1017B0004FEA1C5300FB03114FEA112C4FEA013191
:1017C0000EFB0CFC4FEADC4C00FB0C11C14228BFA5
:1017D00009184CEB03335DF804EB10EB410143EBCC
:1017E000C250B2F57C0F38BF704729D512F0F00F08
:1017F0001CBF00F1C04000F00040704700818283B0
:101800008485868788898B8C8D8E8F91929395960F
:1018100097999A9C9D9FA0A2A3A5A7A8AAACAEB099
:10182000B2B3B5B7B9BCBEC0C2C5C7C9CCCED1D49E
:10183000D7D9DCDFE2E6E9ECF0F3F7FAFE000000CE
:101840004FEA400C0CF1807CBCF17E4F28BF704702
:10185000B0F1C04000F00BB990EA010F0CEAD113CF
:1018600048BF42F48072624538BF634507D213F423
:101870007F0F16D080EA010000F00040704710B5DD
:1018800000F0AFF8097EFC3E00F005B880EA0100E8
:1018900000F00040704780EA010000F0004000F0D6
:1018A000E6B812F47F0F04BF0248704780EA0100D7
:1018B00000F0DDB80000C07FB0FA80F310FA03F248
:1018C000C3F19D030AD0D90501EB1220530638BF9E
:1018D000704700F1010008BF20F0010070470000D0
:1018E0004FF47F0C1CEAD0121EBF1CEAD11392EAFF
:1018F0000C0F93EA0C0F00F0478090EA010F48BFED
:1019000042F480724FF0004C4CEA00204CEA012176
:1019100002EB0302A0FB0113A2F50002002918BF8D
:1019200043F001035B0028BF4FEA330342EB22423E
:101930005FEA132C4CEBC2502EBFBCEB436FB2F5E9
:101940007C0F70474FEA036CBCF1004F08BF20F0DA
:101950000100B2F57C0F38BF70470BD582F0FF0253
:1019600012F5803FC8BF704700F1C040D8BF00F0FB
:101970000040704700F5000C5FEA4C0C48BF704710
:10198000B0F1C04000F073B890EA010F0CEAD11337
:1019900048BF42F48072624538BF634504D280EA92
:1019A000010000F00040704710B500F01AF800BFC9
:1019B0008900013E00F007B800F009B85FEA410C69
:1019C0005FEA1C6C08D080EA010000F050B85FEAC2
:1019D000400C5FEA1C6CF6D14FF00040A0F580008F
:1019E00070470EF1020E2EF0030E5EF8044B2442F7
:1019F00004D44FEA4102B2F17F4F11D84FEA4003BD
:101A0000B3F17F4F0CD80ED14FEAD07CB2F17F4FAB
:101A10000CEB4C0C0CF1020C08BF4CEBD17C04E03D
:101A20004FF0080C01E04FEAD17C0CEB4C0324FA98
:101A300003F404F00704B4F1040C06D20EEB840C9A
:101A4000BDE810404CF0010C6047DFE80CF00708DF
:101A500002024FF00040A0F5800010BD0846420091
:101A600018BFD2F1807288BF00F0004010BDFF2186
:101A700041EAD050C005704700000000000000009F
:101A80000102030406070809A81A00080000002044
:101A9000140000006C010008BC1A000814000020AB
:101AA0000C07000088010008000000000100000091
:0C1AB00010000000000000000024F40002
:0400000508000131BD
:00000001FF
