:020000040800F2
:1000000058060020C1010008633E000801190008DD
:10001000613E0008B9070008A54C00080000000078
:10002000000000000000000000000000293F000860
:10003000BB07000800000000B33E00082B3F00088B
:10004000DB010008DB010008DB010008DB01000820
:10005000DB010008DB010008DB010008DB01000810
:10006000DB010008DB010008DB010008DB01000800
:10007000DB010008DB010008DB010008DB010008F0
:10008000DB010008DB010008DB010008DB010008E0
:10009000DB010008DB010008DB010008DB010008D0
:1000A000DB010008DB010008DB010008DB010008C0
:1000B000DB010008DB010008DB010008DB010008B0
:1000C000DB010008DB010008DB010008DB010008A0
:1000D000DB010008DB0100087D4C0008894C0008AA
:1000E000DB010008DB010008DB010008DB01000880
:1000F000DB010008DB010008DB010008DB01000870
:10010000DB010008DB010008DB010008DB0100085F
:10011000DB010008DB010008DB010008DB0100084F
:10012000DB010008DB010008DB010008DB0100083F
:10013000DB010008DB010008DB010008DB0100082F
:10014000DB010008DB010008DB010008DB0100081F
:10015000DB010008DB010008DB010008DB0100080F
:10016000DB010008DB010008DB010008DB010008FF
:10017000DB010008DB010008DB01000800000000D3
:10018000DB010008DB010008DB010008DB010008DF
:10019000DB010008DB010008DB010008DB010008CF
:1001A000DB010008DB010008DB010008DFF80CD0F0
:1001B00000F0DEFA004800476D570008580600209E
:1001C0000648804706480047FEE7FEE7FEE7FEE7F1
:1001D000FEE7FEE7FEE7FEE7FEE7FEE7D13F0008A9
:1001E000AD0100082DE9F05F0546002092469B46D0
:1001F00088460646814640241BE02846414647463D
:10020000224600F002F953465A46C01A914110D3D3
:1002100011461846224600F0E9F82D1A67EB01084E
:100220004F4622460120002100F0E0F817EB0009BC
:100230004E41201EA4F10104DFDC484631462A4627
:100240004346BDE8F09FD2B201E000F8012B491E01
:10025000FBD270470022F6E710B513460A46044663
:100260001946FFF7F0FF204610BD2DE9FE4F81EA49
:10027000030404F0004421F0004100944FF0000B0F
:1002800023F0004350EA01045ED052EA03045BD03D
:10029000C3F30A54C1F30A552C44A4F2F334019475
:1002A000A0FB0254C1F3130141F48011C3F3130303
:1002B00043F4801301FB024400FB034E840A970AB7
:1002C00044EA815447EA8357A4FB076802958D0AE4
:1002D00005FB07854FEA932C04FB0C542705029D70
:1002E0004FEA065847EA1637B5EB08056EEB070CE0
:1002F000870E920E47EA811742EA8312A7FB02019A
:10030000B6EB0B0164EB00042B0D43EA0C335E18D3
:1003100044EB1C50DA465146E7FB0201C5F31304D7
:100320004FEA0B3343EA14534FEA0432019C43EA89
:100330000603A4F10C040294009CCDE900B400F083
:1003400083F803B0BDE8F08F00200146F9E70EB551
:1003500040F2334102910021CDE900110A460B46DB
:1003600000F072F803B000BDC1F30A5210B5C1F33A
:10037000130140F2FF3341F480119A4201DA002068
:1003800010BD40F233439A42A2F2334203DC5242A0
:1003900000F03BF810BD904010BD00F0004230F07E
:1003A00000400AD0C10D01F56071C0F3160042EAA9
:1003B0000151C208400711437047002001467047B1
:1003C00030B50B46014600202022012409E021FA25
:1003D00002F59D4205D303FA02F5491B04FA02F522
:1003E0002844151EA2F10102F1DC30BD202A04DBF5
:1003F000203A00FA02F1002070479140C2F1200338
:1004000020FA03F3194390407047202A04DB203A76
:1004100021FA02F00021704721FA02F3D040C2F124
:100420002002914008431946704710B5141E73F11D
:10043000000408DA401C41F1000192185B411A43A4
:1004400001D120F0010010BD2DE9F04D92469B46F0
:1004500011B1B1FA81F202E0B0FA80F22032904696
:10046000FFF7C4FF04460F4640EA0A0041EA0B01C9
:1004700053465A46084313D0114653EA010019D097
:10048000C8F140025046FFF7C0FF05460E465046F1
:1004900059464246FFF7AAFF084305D0012004E071
:1004A00020463946BDE8F08D0020054346EAE07657
:1004B0002C4337430A986305E40AA0EB08000022A6
:1004C000FD0A44EA47540A3002D500200146E9E714
:1004D000010510196941DDE9084500196941BDE8C8
:1004E000F04DA2E72DE9FE4F804681EA0300C00FE0
:1004F0000C46009021F0004123F00045B8EB0200CB
:10050000A94105D24046214690461C460B4602466C
:1005100023F00040104347D0270DC7F30A00C3F370
:100520000A510290401A019040286BDAC3F313007D
:1005300040F4801B0098924620B10023D2EB030ABE
:1005400063EB0B0B01985946C0F140025046FFF790
:100550004DFF06460D4650465946019A00F01AF9DD
:1005600010EB08006141002487EA115284EAE77326
:100570001A4340D0009A62B3019A012A4FEA075207
:1005800015DC001B61EB02014FF0004202EA07524A
:10059000CDE90042001C41F5801132462B46FFF7A1
:1005A00053FF03B0BDE8F08F40462146F9E7001B3A
:1005B00061EB0201001C41F5801300185B4120181B
:1005C000A2F5001747EB030140EAD570B6196D415B
:1005D00011E06D084FEA360645EAC0754FEA07524A
:1005E000001B61EB0201001C41F5801149084FEA34
:1005F00030000019514132462B4603B0BDE8F04FA0
:10060000FFF713BF0098012240000023D0EB020245
:1006100063EBE073009821464FEAE074B8EB00000A
:1006200061EB0401E9E783F000435BE781F00041FF
:1006300058E72DE9F04D81EA030404F0004B21F066
:10064000004514464FF0000A23F0004150EA05022D
:1006500020D054EA01021DD0C5F30A570246C5F363
:100660001303C1F31300C1F30A5640F4801543F499
:100670008013A7EB0608101BD64608F2FD3873EB73
:10068000050002D308F1010801E092185B41B8F1BE
:10069000000F03DA00200146BDE8F08D00204FF482
:1006A0008011064684460EE0171B73EB050705D341
:1006B000121B63EB050306434CEA010C49084FEAA1
:1006C000300092185B4150EA0107EDD152EA030075
:1006D00012D082EA040083EA0501084305D0101B0A
:1006E000AB4106D20122002306E000224FF0004376
:1006F00002E06FF0010253101AEB06004CEB0851B8
:1007000010EB0A0041EB0B01BDE8F04DFFF78DBE89
:10071000C1F30A52C1F3130140F2FF3341F48011D7
:100720009A4202DA00200146704740F233439A426F
:10073000A2F2334202DC5242FFF767BEFFF756BE19
:1007400030B5041E71F1000404DB4FF00044404258
:1007500064EB0101141E73F1000405DB1C464FF02D
:100760000043524263EB0403994208BF904230BDFC
:10077000064C074D06E0E06840F0010394E80700EE
:1007800098471034AC42F6D3FFF714FDC4A000081C
:10079000E4A00008202A06DBCB17203A41FA02F039
:1007A00043EAE07306E041FA02F3D040C2F12002CE
:1007B0009140084319467047FEE7704772B6FEE75E
:1007C00070B5B3F5804F05D06FF0704140F822103E
:1007D000002070BD50F82240084B8E891C40D1E9A2
:1007E000003543EA05138D6889692D0245EA0645FF
:1007F0002B430B43234340F82230E9E70000F0CFBE
:10080000F0B50C6850F82430174A1340D1E901259F
:10081000D1E903672A433E4332434E6932438E692E
:100820003243CE6932430E6A32434E6A32438E6A95
:100830003243CE6A3243CE6B32430E6B32434E6B41
:1008400032431A43082D01D142F0400240F82420DF
:100850004A6BB2F5801F05D1096819B1016841F4EE
:10086000801101600020F0BD8000E0FFF0B500EBDA
:100870008204626802F04045D1E9002342EA031293
:100880008B688E891B0243EA06431A430E8A0D4B7E
:1008900003EB065632430E7D5F0107EB06663243DB
:1008A0008E6932432A4362600268D20207D54268E9
:1008B000098A22F4700203EB0151114341600020C8
:1008C000F0BD00000000F0FF00B500F0B1FF0149ED
:1008D000086000BD0000002000B500F0DDFF014908
:1008E000486000BD0000002010B504469FED120ACC
:1008F00000F09EFF00EE900A10481149F8EE600AE1
:1009000000EB0410C0ED020A91ED001AF8EE411A56
:10091000F4EEE10AF1EE10FA0ADD54B191ED010AAC
:10092000B8EE400A90ED001A70EEC00A80EE810A1F
:1009300010BDB8EE410AF5E70000000048000020B5
:10094000000000202DE9F0410446876D00F0CAF94F
:10095000064694F835000025022806D08020606500
:1009600084F834500120BDE8F0812068016821F04E
:10097000160101602068416921F080014161206C0D
:1009800008B9A06C20B12068016821F0080101605D
:100990002068016821F0010101600BE000F0A2F97C
:1009A000801B052806D92020606504F8345F0320E9
:1009B0006070D8E720680068C007EFD194F85C1039
:1009C0003F208840B86004F8345F01206070002048
:1009D000C9E790F83510022903D080214165012034
:1009E0007047052180F835100068016821F0010189
:1009F000016000207047000070B5044600F072F9F5
:100A00000546601C02D004480078044400F06AF9EE
:100A1000401BA042FAD370BD34000020F0B587B06F
:100A200014216846FFF716FC15480168002924D1F7
:100A30000121016013480024016841F001010160B7
:100A40000068022500F0010005904FF68070CDE9A6
:100A5000000502AA03260C2782E8D00069460A484E
:100A600000F016F84EF2B370CDE9000502AA69460F
:100A700082E8D000054800F00BF807B0F0BD000098
:100A80002C0000203838024000100240000C0240C8
:100A90002DE9F84FDFF8F4A1002201240AF1040B3C
:100AA00003254FF00F090BF1040E00BF0B6804FA89
:100AB00002F63340B3426FD10F7907F00307012FDD
:100AC00001D0022F16D187684FEA420805FA08FCC8
:100AD00027EA0C07D1F80CC00CFA08FC4CEA070C0A
:100AE000C0F808C04768B7430E79C6F300169640B1
:100AF0003E4346600E79F643B6070AD0C7684FEA10
:100B0000420C05FA0CF6B7438E6806FA0CF63E4323
:100B1000C6600E7906F00306022E10D1D60800EB4F
:100B20008608D8F8206057074FEAD76C09FA0CF707
:100B3000BE430F6907FA0CF73743C8F82070066800
:100B40004FEA420C05FA0CF7BE430F7907F0030792
:100B500007FA0CF7374307604E68F6001CD54C4E79
:100B6000376847F480473760366822F0030706F499
:100B700080460096474E07EB060CDCF8086897079E
:100B80003F0F09FA07F826EA0806DFF80C8140450E
:100B900003D14FF0000841E072E0DFF800814045EA
:100BA00002D14FF0010839E0DFF8F480404502D16E
:100BB0004FF0020832E0DFF8EC80404502D14FF000
:100BC00003082BE0DFF8E080404502D14FF0040835
:100BD00024E0DFF8D880404502D14FF005081DE041
:100BE000DFF8CC80404502D14FF0060816E0DFF870
:100BF000C480404502D14FF007080FE0DFF8B8800D
:100C0000404502D14FF0080808E0DFF8B0804045C9
:100C100002D14FF0090801E04FF00A0808FA07F87E
:100C200048EA0608CCF80888DAF800605746D1F898
:100C300004C09E435FEACC3C00D51E433E60DBF817
:100C400000605F46D1F804C09E435FEA8C3C00D54B
:100C50001E433E60DEF800607746D1F804C09E4334
:100C60005FEACC2C00D51E433E60084F0C373E682F
:100C7000D1F804C09E435FEA8C2C00D51E433E6031
:100C8000521C102AFFF412AFBDE8F88F003C01405F
:100C9000443802400030014000000240000402409D
:100CA00000080240000C0240001002400014024004
:100CB00000180240001C02400020024000240240B4
:100CC0000069084000D001207047426921EA020310
:100CD0000A4043EA0241816170470AB1816170476D
:100CE0000904FBE7014880687047000034000020D9
:100CF0000248816802781144816070473400002006
:100D00000B4810B5016841F400710160016841F4BD
:100D100080610160016841F480710160032000F08E
:100D20006FF8002000F006F800F024F8002010BD55
:100D3000003C024070B50D4D04464FF47A7128789E
:100D4000B1FBF0F00A490968B1FBF0F000F039FBA3
:100D500048B9102C07D200222146501E00F030F86E
:100D600000206C6070BD012070BD000034000020C8
:100D7000400000200A4808B5016841F48041016044
:100D8000006800F4804000900548001F016841F0B1
:100D900080510160006800F08050009008BD0000A4
:100DA00044380240002809DB00F01F020121914075
:100DB0004009800000F1E020C0F8001170470000F9
:100DC000F0B40E4B1B680C46C3F30223C3F10705B6
:100DD000042D00D90425191D072901D2002300E0A4
:100DE000DB1E012606FA05F1491E214099409E406E
:100DF000761E16403143F0BC04F016B80CED00E04E
:100E0000064900F0070208684FF6FF03184040EA61
:100E10000220034A10430860704700000CED00E018
:100E20000000FA052DE9F0470E46050065D0DFF811
:100E30001481D8F80000F7B200F00F00B04207D2DA
:100E400088F80070D8F8000000F00F00B04254D1CC
:100E500028683D4C810712D5400703D5206840F42F
:100E6000E05020602878000703D5206840F46040F7
:100E700020602068A96820F0F000084320602878EE
:100E8000C0072DD0304968680839012812D00228DF
:100E900013D0032811D00968890700292DDA2168A9
:100EA00021F0030101432160FFF71CFF814641F25D
:100EB000883A0EE009688903EFE709688901ECE7E1
:100EC000FFF710FFA0EB0901514502D90320BDE84F
:100ED000F0872068696800F00C00B0EB810FEFD15B
:100EE000D8F80010404601F00F01B14207D9077051
:100EF000006800F00F00B04201D00120E7E7287839
:100F0000400705D52068E96820F4E05008432060D8
:100F10002878000706D52068296920F4604040EA57
:100F2000C100206000F038F82168084AC1F30311BD
:100F3000515CC8400649086006480068FFF7FAFEA1
:100F40000020C4E7003C024008380240AAA0000884
:100F50004000002038000020044805490068096866
:100F6000044AC1F38221515CC84070474000002010
:100F700008380240BAA0000804480549006809681A
:100F8000044AC1F34231515CC84070474000002020
:100F900008380240BAA00008154810B5006810F0E3
:100FA0000C02144813D01449042A0FD0082A0ED179
:100FB0000F4C241F2268236802F03F025B0207D512
:100FC0002068C0F38810A0FB010106E0084610BDB0
:100FD0002168C1F38811A1FB00010023FFF702F98A
:100FE0002168C1F30141491C4900B0FBF1F010BD7B
:100FF000083802400024F40040787D012DE9F84FC4
:1010000004006ED02078DFF84C93C007A9F10405E6
:101010004AD009F104000168C1F38101012908D017
:101020000068C0F3810002280AD1D9F8000040020C
:1010300006D52868800337D560680028E1D033E002
:101040006068B0F5803F10D0B0F5A02F286810D0B0
:1010500020F480302860286820F4802028606068B0
:10106000A8B1FFF73FFE06460DE0286840F4803047
:10107000F4E740F480202860F7E700BFFFF732FE76
:10108000801B642873D828688003F7D50CE0FFF72D
:1010900029FE064605E000BFFFF724FE801B6428FA
:1010A000F0D828688003F7D42078DFF8AC82800776
:1010B0004FF0000A3ED5A748001D016811F00C0F43
:1010C00008D00068C0F3810002280BD1D9F80000D5
:1010D000400207D42868800716D5E068012800D1AF
:1010E00012E033E1E068B8B10120C8F80000FFF772
:1010F000F9FD064605E000BFFFF7F4FD801B02285E
:10110000C0D828688007F7D52868216920F0F80042
:1011100040EAC10028600DE0C8F800A0FFF7E2FD3A
:10112000064604E0FFF7DEFD801B02281FD8286872
:101130008007F7D42078000722D5864F8748616959
:10114000703771B101210160FFF7CCFD064604E064
:10115000FFF7C8FD801B022809D838688007F7D53B
:101160000EE0C0F800A0FFF7BDFD064605E082E0F6
:10117000FFF7B8FD801B02287DD838688007F7D4B8
:101180002078400768D5DFF8CCB100270BF13C0B85
:10119000DBF80000C0000BD4DBF8001041F08051F8
:1011A000CBF80010DBF80000012700F08050009021
:1011B0006B4E3068C00510D4306840F480703060E9
:1011C000FFF790FD009005E0FFF78CFD0099401AB5
:1011D000022850D83068C005F6D55E4EA0686C363F
:1011E00001280FD00528306810D020F001003060B1
:1011F000306820F004003060A068B8B1FFF772FDDD
:1012000000900FE0306840F00100F4E740F0040087
:101210003060F7E7FFF766FD0099411A41F2883028
:10122000814266D830688007F4D50EE0FFF75AFD9A
:10123000009007E0FFF756FD0099411A41F288300F
:10124000814256D830688007F4D42FB1DBF8001003
:1012500021F08051CBF80010A069C8B33D49091DA9
:101260000968C1F3810102294AD00228504607D0FB
:10127000C8F8600000E03CE0FFF734FD04463BE0C6
:101280004746C8F86000FFF72DFD064605E000BFA1
:10129000FFF728FD801B02282BD828688001F7D48F
:1012A000D4E907010843A16A2E4A490802EB01412B
:1012B000626A41EA8211084394F82C1040EA016105
:1012C000C9F8001001203866FFF70CFD044606E05F
:1012D0003EE000BFFFF706FD001B022809D8286882
:1012E0008001F7D534E000BFFFF7FCFC001B0228AB
:1012F00002D90320BDE8F88F28688001F4D427E0E4
:101300000128F7D0D9F80000E26900F48001914289
:101310001CD1226A00F03F01914217D147F6C071FB
:10132000626A0140B1EB821F10D1A26A4FF0FF3315
:1013300000F4403103EB5202B1EB024F06D194F8B6
:101340002C1000F07060B0EB016F01D00120D1E7EC
:101350000020CFE70438024000004742800E474299
:10136000007000400000FFFF70B515460E460400F7
:1013700003D094F8490010B107E0012070BD0020AF
:1013800084F84800204600F01AF804F108012068AB
:10139000FFF736FA3146A2682068FFF767FAD4E90A
:1013A00001022946236BFFF70BFAA168206850F869
:1013B000212042F0010240F82120002070BDFFF7FB
:1013C0002DBB10B5401EB0F1807F01D3012010BDB0
:1013D0004FF0E02460610F21601703F025FD00202D
:1013E000A06107202061002010BD704770470000F9
:1013F000F8B5026804461068D168536910F00F0F01
:101400004FF0000554D003F0010601F49077374304
:101410005FD0C20705D0CA0503D5226C42F0010295
:101420002264420705D5DA0703D0226C42F002029B
:101430002264820705D5DA0703D0226C42F0040249
:101440002264020707D501F02002324303D0226C48
:1014500042F008022264226C002A35D0800604D5AE
:10146000880602D5204603F0DDFA20684069216C29
:10147000C0F3801001F008010143204625D003F09D
:10148000B9FA2068416949061BD5416921F040013C
:101490004161A06BA8B159490165A06BFFF799FAAA
:1014A000002811D0A06B016D01B0BDE8F0400847E5
:1014B00083060ED58B060CD52046BDE8F84003F018
:1014C000B1BA2046FFF792FFF8BDFFF78FFF256402
:1014D000F8BD266B2023012E53D1C60651D5CE066A
:1014E0004FD5106850680090506940062BD5A16B0D
:1014F000086840680004000CEAD0A68D8642E7D94F
:10150000E085C869B0F5807F18D0D06820F480707D
:10151000D0602068416921F0010141612068416982
:1015200021F04001416184F83E3025632068C168A4
:1015300021F01001C160A06BFFF704FAA08DE18DCE
:10154000401A81B219E0A08DE18D401A81B2E08D80
:101550000028BDD00029BBD0D06820F49070D060A6
:101560002068426922F00102426184F83E3025631E
:101570002068C26822F01002C2602046FFF735FFE3
:10158000F8BD05062BD50D0629D594F83D00212878
:10159000F6D1A068B0F5805F01D12069B0B1206AB2
:1015A000411C2162216800784860E08C401E0004E4
:1015B000000CE084E4D12068C16821F08001C160A2
:1015C0002068C16841F04001C160F8BD206A008810
:1015D000C0F308005060206A801C2062E5E74006E6
:1015E000F3D54806F1D5D168204621F04001D160FD
:1015F00084F83D3000F01BF9F8BD0000E549000813
:1016000070B5040004D094F83D00002510B106E048
:10161000012070BD84F83C50204600F023F82420BF
:1016200084F83D002068C16821F40051C160204663
:1016300003F050FA2068016921F4904101612068AB
:10164000416921F02A0141612068C16841F40051DB
:10165000C1602564202084F83D0084F83E0000200D
:1016600070BD0000F0B587B0044614216846FEF74F
:10167000F1FD2B48294F2668002229491038022302
:1016800003240725BE4220D10E6846F400360E60C2
:10169000096801F400310591016841F00101016020
:1016A000006802AE00F0010005900C20CDE90003B7
:1016B00086E8340069461B48FFF7EAF90022114624
:1016C0002620FFF77DFB262023E0174FBE4222D1C4
:1016D0000E6846F480260E60096801F480210591A9
:1016E000016841F002010160006802AE00F00200F2
:1016F00005904FF44060CDE9000386E83400694668
:101700000A48FFF7C5F9002211462720FFF758FBCA
:101710002720FFF747FB07B0F0BD00000044004062
:1017200040380240000002400048004000040240EF
:1017300090F83E30202B0ED159B152B190F83C3088
:10174000012B08D0012380F83C300023036303F011
:1017500047BA012070470220704700000068054921
:10176000884205D104480178002901D10121017086
:101770007047000000440040080000202DE9F843B5
:10178000044690F83D001F4616460D4620284CD1D1
:10179000C5B1BEB194F83C00012846D0012084F8C0
:1017A0003C004FF00008C4F84080212084F83D0040
:1017B000FFF798FAA6848146E684A068B0F5805FBA
:1017C00003D004E00120BDE8F883206928B12E464B
:1017D0005FF0000584F83C800EE00026FAE78021E7
:1017E000204603F018FAA0B9AEB116F8010B216833
:1017F0004860E08C401EE084E08C4B464FF00002D5
:1018000000970028EBD14FF04001204603F003FA87
:1018100030B10320D7E735F8020BC0F30800E6E744
:10182000202084F83D000020CDE70220CBE7704760
:101830002DE9F041174C0027C4F894723D46012071
:1018400003F060FFD4F818020028FBD100264FF007
:10185000010800BFC4F894826D00012003F052FF1C
:10186000C4F89472D4F8180200B16D1C012003F082
:1018700049FF761CF6B2182EECD3C4F8948285F496
:101880000005012003F03EFFC4F894722846BDE82D
:10189000F0810000000042422DE9F041174C002782
:1018A000C4F88C723D46012003F02CFFD4F81002DE
:1018B0000028FBD100264FF0010800BFC4F88C823D
:1018C0006D00012003F01EFFC4F88C72D4F81002E2
:1018D00000B16D1C012003F015FF761CF6B2182E26
:1018E000ECD3C4F88C8285F40005012003F00AFFD4
:1018F000C4F88C722846BDE8F08100000000424226
:10190000FEE7000010B5064C012220212046FFF71B
:10191000E4F920460122BDE810401021FFF7DDB9AF
:10192000001C024070B5194E05463046316821F45E
:1019300040613160316841F48061316000221021E2
:10194000FFF7CBF90024E80901D0012200E00022D2
:1019500020213046FFF7C1F96806050E0220FFF787
:101960004BF8012210213046FFF7B7F90220FFF7AC
:1019700043F8002210213046FFF7AFF90220FFF7AD
:101980003BF8641CE4B2082CDDD370BD001C02409F
:1019900010B5124C206820F440602060206840F4AC
:1019A00080602060012220212046FFF796F9012265
:1019B00010212046FFF791F90420FFF71DF80022BF
:1019C00020212046FFF789F90420FFF715F820466B
:1019D0000022BDE810401021FFF77FB9001C024033
:1019E00010B5124C206820F440602060206840F45C
:1019F00080602060002210212046FFF76EF900224F
:101A000020212046FFF769F90420FEF7F5FF0122A7
:101A100010212046FFF761F90420FEF7EDFF204674
:101A20000122BDE810402021FFF757B9001C0240F9
:101A300070B5174C0025206820F4406020602068B5
:101A40002060012220212046FFF747F90120FEF700
:101A5000D3FF012210212046FFF73FF90120FEF7B6
:101A6000CBFF07E06D1CEDB2FA2D03D9FFF7B8FFED
:101A7000012070BD20212046FFF722F90028F1D176
:101A8000002210212046FFF728F9002070BD000039
:101A9000001C024010B5E22002F0DCF81D2002F02C
:101AA000CDF8022002F0CAF8042002F0C7F8642042
:101AB000FEF7A2FFE02002F0CDF8012002F0BEF810
:101AC0000A20FEF799FFE02002F0C4F8032002F09C
:101AD000B5F80C20FEF790FF012002F0BBF80A20B9
:101AE000FEF78AFFE62002F0B5F82F2002F0A6F8F4
:101AF000FF2002F0A3F8FF2002F0A0F8B02002F0CF
:101B0000A9F8202002F09AF8002002F097F80320AC
:101B100002F094F840F21F3002F090F8012002F039
:101B20008DF840F2DF1002F089F8002002F086F80C
:101B3000B42002F08FF8042002F080F840F21F4039
:101B400002F07CF8002002F079F82E2002F076F8FE
:101B5000002002F073F8002002F070F8002002F07C
:101B60006DF8002002F06AF8B62002F073F8022047
:101B700002F064F84FF4037002F060F8002002F005
:101B80005DF8172002F05AF8152002F057F80020EF
:101B900002F054F8002002F051F8F02002F05AF858
:101BA000032002F04BF8292002F054F8D02002F074
:101BB00051F8002002F042F8BE2002F04BF8052058
:101BC00002F03CF8FE2002F039F8012002F036F86D
:101BD000002002F033F8002002F030F8002002F07C
:101BE0002DF8B82002F036F8032002F027F8012083
:101BF00002F024F8BA2002F02DF8012002F01EF8BD
:101C0000BDE81040642002F0B9BC10B5ED2002F030
:101C100021F8012002F012F8FE2002F00FF8EE2069
:101C200002F018F8DE2002F009F8212002F006F890
:101C3000F12002F00FF8012002F000F8DF2002F09E
:101C400009F8102001F0FAFFC42002F003F88F20F9
:101C500001F0F4FFC62001F0FDFF002001F0EEFFCF
:101C6000E22001F0EBFFE22001F0E8FFE22001F0CA
:101C7000E5FFBF2001F0EEFFAA2001F0DFFFB0205A
:101C800001F0E8FF0D2001F0D9FF002001F0D6FFA0
:101C90000D2001F0D3FF002001F0D0FF112001F052
:101CA000CDFF002001F0CAFF192001F0C7FF00207E
:101CB00001F0C4FF212001F0C1FF002001F0BEFFB0
:101CC0002D2001F0BBFF002001F0B8FF3D2001F006
:101CD000B5FF002001F0B2FF5D2001F0AFFF002052
:101CE00001F0ACFF5D2001F0A9FF002001F0A6FF8C
:101CF000B12001F0AFFF802001F0A0FF002001F033
:101D00009DFF8B2001F09AFF002001F097FF9620A5
:101D100001F094FF002001F091FFB22001F09AFF42
:101D2000002001F08BFF002001F088FF022001F06D
:101D300085FF002001F082FF032001F07FFF0020DB
:101D400001F07CFFB32001F085FF002001F076FF59
:101D5000002001F073FF002001F070FF002001F06F
:101D60006DFF002001F06AFF002001F067FF0020F6
:101D700001F064FF002001F061FF002001F05EFF30
:101D8000002001F05BFF002001F058FF002001F06F
:101D900055FF002001F052FF002001F04FFF00200E
:101DA00001F04CFF002001F049FF002001F046FF48
:101DB000002001F043FF002001F040FF002001F06F
:101DC0003DFF002001F03AFF002001F037FF002026
:101DD00001F034FF002001F031FFB42001F03AFFA0
:101DE0008B2001F02BFF002001F028FF962001F04E
:101DF00025FF002001F022FFA12001F01FFF00209D
:101E000001F01CFFB52001F025FF022001F016FFB4
:101E1000002001F013FF032001F010FF002001F06B
:101E20000DFF042001F00AFF002001F007FFB6209B
:101E300001F010FF002001F001FF002001F0FEFE84
:101E4000B72001F007FF002001F0F8FE002001F0AC
:101E5000F5FE3F2001F0F2FE002001F0EFFE5E20D3
:101E600001F0ECFE002001F0E9FE642001F0E6FE46
:101E7000002001F0E3FE8C2001F0E0FE002001F0E4
:101E8000DDFEAC2001F0DAFE002001F0D7FEDC2000
:101E900001F0D4FE002001F0D1FE702001F0CEFE52
:101EA000002001F0CBFE902001F0C8FE002001F0E0
:101EB000C5FEEB2001F0C2FE002001F0BFFEDC20D9
:101EC00001F0BCFE002001F0B9FEB82001F0C2FE16
:101ED000002001F0B3FE002001F0B0FE002001F070
:101EE000ADFE002001F0AAFE002001F0A7FE0020B8
:101EF00001F0A4FE002001F0A1FE002001F09EFEF2
:101F0000BA2001F0A7FE242001F098FE002001F085
:101F100095FE002001F092FE002001F08FFEC1200E
:101F200001F098FE202001F089FE002001F086FEDD
:101F3000542001F083FE002001F080FEFF2001F01C
:101F40007DFE002001F07AFEC22001F083FE0A200F
:101F500001F074FE002001F071FE042001F06EFE1D
:101F6000002001F06BFEC32001F074FE3C2001F064
:101F700065FE002001F062FE3A2001F05FFE0020C5
:101F800001F05CFE392001F059FE002001F056FE00
:101F9000372001F053FE002001F050FE3C2001F0FC
:101FA0004DFE002001F04AFE362001F047FE0020E1
:101FB00001F044FE322001F041FE002001F03EFE1F
:101FC0002F2001F03BFE002001F038FE2C2001F014
:101FD00035FE002001F032FE292001F02FFE002006
:101FE00001F02CFE262001F029FE002001F026FE43
:101FF000242001F023FE002001F020FE242001F027
:102000001DFE002001F01AFE232001F017FE002023
:1020100001F014FE3C2001F011FE002001F00EFE44
:10202000362001F00BFE002001F008FE322001F006
:1020300005FE002001F002FE2F2001F0FFFD002030
:1020400001F0FCFD2C2001F0F9FD002001F0F6FD6F
:10205000292001F0F3FD002001F0F0FD262001F021
:10206000EDFD002001F0EAFD242001F0E7FD002055
:1020700001F0E4FD242001F0E1FD002001F0DEFD8F
:10208000232001F0DBFD002001F0D8FDC42001F089
:10209000E1FD622001F0D2FD002001F0CFFD05201E
:1020A00001F0CCFD002001F0C9FD842001F0C6FD47
:1020B000002001F0C3FDF02001F0C0FD002001F080
:1020C000BDFD182001F0BAFD002001F0B7FDA420ED
:1020D00001F0B4FD002001F0B1FD182001F0AEFDCB
:1020E000002001F0ABFD502001F0A8FD002001F020
:1020F000A5FD0C2001F0A2FD002001F09FFD17209E
:1021000001F09CFD002001F099FD952001F096FD65
:10211000002001F093FDF32001F090FD002001F07C
:102120008DFDE62001F08AFD002001F087FDC5202D
:1021300001F090FD322001F081FD002001F07EFDD4
:10214000442001F07BFD002001F078FD652001F0C6
:1021500075FD002001F072FD762001F06FFD00207A
:1021600001F06CFD882001F069FD002001F066FDA2
:10217000C62001F06FFD202001F060FD002001F07D
:102180005DFD172001F05AFD002001F057FD0120F0
:1021900001F054FD002001F051FDC72001F05AFD6F
:1021A000002001F04BFD002001F048FD002001F06F
:1021B00045FD002001F042FDC82001F04BFD00204C
:1021C00001F03CFD002001F039FD002001F036FD5A
:1021D000002001F033FDC92001F03CFD002001F09A
:1021E0002DFD002001F02AFD002001F027FD002038
:1021F00001F024FD002001F021FD002001F01EFD72
:10220000002001F01BFD002001F018FD002001F06E
:1022100015FD002001F012FD002001F00FFD00204F
:1022200001F00CFD002001F009FD002001F006FD89
:10223000002001F003FD002001F000FDE02001F08E
:1022400009FD162001F0FAFC002001F0F7FC1C202B
:1022500001F0F4FC002001F0F1FC212001F0EEFC83
:10226000002001F0EBFC362001F0E8FC002001F03A
:10227000E5FC462001F0E2FC002001F0DFFC5220EA
:1022800001F0DCFC002001F0D9FC642001F0D6FC58
:10229000002001F0D3FC7A2001F0D0FC002001F0F6
:1022A000CDFC8B2001F0CAFC002001F0C7FC992076
:1022B00001F0C4FC002001F0C1FCA82001F0BEFC2C
:1022C000002001F0BBFCB92001F0B8FC002001F0B7
:1022D000B5FCC42001F0B2FC002001F0AFFCCA2024
:1022E00001F0ACFC002001F0A9FCD22001F0A6FC1A
:1022F000002001F0A3FCD92001F0A0FC002001F097
:102300009DFCE02001F09AFC002001F097FCF320F6
:1023100001F094FC002001F091FCE12001F09AFC16
:10232000162001F08BFC002001F088FC1C2001F03D
:1023300085FC002001F082FC222001F07FFC0020BF
:1023400001F07CFC362001F079FC002001F076FCE5
:10235000452001F073FC002001F070FC522001F0D8
:102360006DFC002001F06AFC642001F067FC002095
:1023700001F064FC7A2001F061FC002001F05EFCB9
:102380008B2001F05BFC002001F058FC992001F04B
:1023900055FC002001F052FCA82001F04FFC002069
:1023A00001F04CFCB92001F049FC002001F046FC92
:1023B000C42001F043FC002001F040FCCA2001F0E1
:1023C0003DFC002001F03AFCD22001F037FC002057
:1023D00001F034FCD82001F031FC002001F02EFC8B
:1023E000E02001F02BFC002001F028FCF32001F09C
:1023F00025FC002001F022FCE22001F02BFC05204E
:1024000001F01CFC002001F019FC0B2001F016FC6F
:10241000002001F013FC1B2001F010FC002001F053
:102420000DFC342001F00AFC002001F007FC4420E0
:1024300001F004FC002001F001FC4F2001F0FEFB44
:10244000002001F0FBFB612001F0F8FB002001F00F
:10245000F5FB792001F0F2FB002001F0EFFB882072
:1024600001F0ECFB002001F0E9FB972001F0E6FB16
:10247000002001F0E3FBA62001F0E0FB002001F0CA
:10248000DDFBB72001F0DAFB002001F0D7FBC22012
:1024900001F0D4FB002001F0D1FBC72001F0CEFBFE
:1024A000002001F0CBFBD12001F0C8FB002001F09F
:1024B000C5FBD62001F0C2FB002001F0BFFBDD20F0
:1024C00001F0BCFB002001F0B9FBF32001F0B6FBEA
:1024D000002001F0B3FBE32001F0BCFB052001F07C
:1024E000ADFB002001F0AAFB0A2001F0A7FB0020B1
:1024F00001F0A4FB1C2001F0A1FB002001F09EFBD9
:10250000332001F09BFB002001F098FB442001F0F8
:1025100095FB002001F092FB502001F08FFB002082
:1025200001F08CFB622001F089FB002001F086FBAA
:10253000782001F083FB002001F080FB882001F06F
:102540007DFB002001F07AFB972001F077FB002053
:1025500001F074FBA62001F071FB002001F06EFB7E
:10256000B72001F06BFB002001F068FBC22001F0F6
:1025700065FB002001F062FBC72001F05FFB00203B
:1025800001F05CFBD12001F059FB002001F056FB6B
:10259000D52001F053FB002001F050FBDD2001F0BD
:1025A0004DFB002001F04AFBF32001F047FB002027
:1025B00001F044FBE42001F04DFB012001F03EFB63
:1025C000002001F03BFB012001F038FB002001F06E
:1025D00035FB022001F032FB002001F02FFB2A2006
:1025E00001F02CFB002001F029FB3C2001F026FB30
:1025F000002001F023FB4B2001F020FB002001F024
:102600001DFB5D2001F01AFB002001F017FB742078
:1026100001F014FB002001F011FB842001F00EFBFF
:10262000002001F00BFB932001F008FB002001F0DB
:1026300005FBA22001F002FB002001F0FFFAB3200D
:1026400001F0FCFA002001F0F9FABE2001F0F6FAE0
:10265000002001F0F3FAC42001F0F0FA002001F0AC
:10266000EDFACD2001F0EAFA002001F0E7FAD320DC
:1026700001F0E4FA002001F0E1FADD2001F0DEFAD9
:10268000002001F0DBFAF32001F0D8FA002001F07D
:10269000D5FAE52001F0DEFA002001F0CFFA0020A3
:1026A00001F0CCFA002001F0C9FA002001F0C6FACE
:1026B000022001F0C3FA002001F0C0FA292001F045
:1026C000BDFA002001F0BAFA3C2001F0B7FA002070
:1026D00001F0B4FA4B2001F0B1FA002001F0AEFA9B
:1026E0005D2001F0ABFA002001F0A8FA742001F09F
:1026F000A5FA002001F0A2FA842001F09FFA002040
:1027000001F09CFA932001F099FA002001F096FA6A
:10271000A22001F093FA002001F090FAB32001F01A
:102720008DFA002001F08AFABE2001F087FA00201D
:1027300001F084FAC42001F081FA002001F07EFA51
:10274000CD2001F07BFA002001F078FAD32001F0CF
:1027500075FA002001F072FADC2001F06FFA002017
:1027600001F06CFAF32001F069FA002001F066FA3A
:10277000E62001F06FFA112001F060FA002001F06C
:102780005DFA342001F05AFA002001F057FA562081
:1027900001F054FA002001F051FA762001F04EFACF
:1027A000002001F04BFA772001F048FA002001F0F8
:1027B00045FA662001F042FA002001F03FFA882035
:1027C00001F03CFA002001F039FA992001F036FAC4
:1027D000002001F033FABB2001F030FA002001F0B4
:1027E0002DFA992001F02AFA002001F027FA66203C
:1027F00001F024FA002001F021FA552001F01EFA20
:10280000002001F01BFA552001F018FA002001F019
:1028100015FA452001F012FA002001F00FFA4320CA
:1028200001F00CFA002001F009FA442001F006FA48
:10283000002001F003FAE72001F00CFA322001F049
:10284000FDF9002001F0FAF9552001F0F7F9002018
:1028500001F0F4F9762001F0F1F9002001F0EEF931
:10286000662001F0EBF9002001F0E8F9672001F0A3
:10287000E5F9002001F0E2F9672001F0DFF900201E
:1028800001F0DCF9872001F0D9F9002001F0D6F938
:10289000992001F0D3F9002001F0D0F9BB2001F01C
:1028A000CDF9002001F0CAF9992001F0C7F9002004
:1028B00001F0C4F9772001F0C1F9002001F0BEF960
:1028C000442001F0BBF9002001F0B8F9562001F0D6
:1028D000B5F9002001F0B2F9232001F0AFF9002092
:1028E00001F0ACF9332001F0A9F9002001F0A6F9BC
:1028F000452001F0A3F9002001F0A0F9E82001F043
:10290000A9F9002001F09AF9002001F097F9992027
:1029100001F094F9002001F091F9872001F08EF97F
:10292000002001F08BF9882001F088F9002001F0E7
:1029300085F9772001F082F9002001F07FF9662007
:1029400001F07CF9002001F079F9882001F076F996
:10295000002001F073F9AA2001F070F9002001F0C5
:102960006DF9BB2001F06AF9002001F067F99920A8
:1029700001F064F9002001F061F9662001F05EF9D0
:10298000002001F05BF9552001F058F9002001F01A
:1029900055F9552001F052F9002001F04FF944207B
:1029A00001F04CF9002001F049F9442001F046F90A
:1029B000002001F043F9552001F040F9002001F01A
:1029C0003DF9E92001F046F9AA2001F037F900208D
:1029D00001F034F9002001F031F9002001F02EF966
:1029E000002001F037F9AA2001F028F9CF2001F0EA
:1029F00031F9002001F022F9002001F01FF9002038
:102A000001F01CF9002001F019F9002001F016F97D
:102A1000002001F013F9002001F010F9002001F06E
:102A20000DF9002001F00AF9002001F007F900205B
:102A300001F004F9002001F001F9002001F0FEF896
:102A4000002001F0FBF8002001F0F8F8002001F070
:102A5000F5F8002001F0F2F8F02001F0FBF800207A
:102A600001F0ECF8502001F0E9F8002001F0E6F860
:102A7000002001F0E3F8002001F0E0F8F32001F07D
:102A8000E9F8002001F0DAF8F92001F0E3F8062077
:102A900001F0D4F8102001F0D1F8292001F0CEF88F
:102AA000002001F0CBF83A2001F0D4F8552001F0D5
:102AB000C5F8112001F0CEF86420FDF79DFF292014
:102AC00001F0C8F8352001F0C5F8002001F0B6F893
:102AD000512001F0BFF8FF2001F0B0F8532001F0C1
:102AE000B9F82C2001F0AAF8552001F0B3F88220A3
:102AF00001F0A4F8BDE810402C2001F0ABB82DE99E
:102B0000F05F4FF470435521184601F063FF4FF218
:102B10000104AA21204601F05DFF651C52212846D0
:102B200001F058FFA61C0821304601F053FFE71CB6
:102B30000121384601F04EFF0D214FF4304001F0E5
:102B400049FF0D214BF2010001F044FF0D214BF232
:102B5000020001F03FFF4FF436483421404601F0B7
:102B600039FF34214BF2016001F034FF34214BF284
:102B7000026001F02FFF4FF431490D21484601F06A
:102B800029FF4BF2011A0D21504601F023FF0D21C0
:102B90004BF2021001F01EFF4FF4374B3421584620
:102BA00001F018FF34214BF2017001F013FF3421C2
:102BB0004BF2027001F00EFF00214FF4324001F0A1
:102BC00009FF00214BF2012001F004FF00214BF22C
:102BD000022001F0FFFE24214FF4384001F0FAFEFC
:102BE00024214BF6010001F0F5FE24214BF60200F2
:102BF00001F0F0FE01214FF43F4001F0EBFE0F2108
:102C00004FF4334001F0E6FE0F214BF2013001F0AA
:102C1000E1FE0F214BF2023001F0DCFE34214FF4D3
:102C2000394001F0D7FE34214BF6011001F0D2FEFD
:102C300034214BF6021001F0CDFE08214FF435404F
:102C400001F0C8FE08214BF2015001F0C3FE08213B
:102C50004BF2025001F0BEFE03214FF4424001F05E
:102C6000B9FE24214FF43A4001F0B4FE24214BF682
:102C7000012001F0AFFE24214BF6022001F0AAFE54
:102C800000214FF43C4001F0A5FE78214BF60140B5
:102C900001F0A0FE00214BF6024001F09BFE002156
:102CA0004FF43D4001F096FE78214BF6015001F0C3
:102CB00091FE00214BF6025001F08CFE00214FF4F2
:102CC0003E4001F087FE64214BF6016001F082FE78
:102CD00000214FF4514001F07DFE33214DF20110EF
:102CE00001F078FE00214DF2021001F073FE342154
:102CF0004DF2031001F06EFE00214DF2041001F0C0
:102D000069FE3A214DF2051001F064FE00214DF2FA
:102D1000061001F05FFE4A214DF2071001F05AFE45
:102D200000214DF2081001F055FE5C214DF2091012
:102D300001F050FE00214DF20A1001F04BFE8121FE
:102D40004DF20B1001F046FE00214DF20C1001F087
:102D500041FEA6214DF20D1001F03CFE00214DF286
:102D60000E1001F037FEE5214DF20F1001F032FE9A
:102D700001214DF2101001F02DFE13214DF2111022
:102D800001F028FE01214DF2121001F023FE542122
:102D90004DF2131001F01EFE01214DF2141001F04E
:102DA00019FE82214DF2151001F014FE01214DF2A1
:102DB000161001F00FFECA214DF2171001F00AFEA5
:102DC00002214DF2181001F005FE00214DF21910FC
:102DD00001F000FE02214DF21A1001F0FBFD01216D
:102DE0004DF21B1001F0F6FD02214DF21C1001F016
:102DF000F1FD34214DF21D1001F0ECFD02214DF2E8
:102E00001E1001F0E7FD67214DF21F1001F0E2FDF9
:102E100002214DF2201001F0DDFD84214DF2211040
:102E200001F0D8FD02214DF2221001F0D3FDA421C2
:102E30004DF2231001F0CEFD02214DF2241001F0DD
:102E4000C9FDB7214DF2251001F0C4FD02214DF25C
:102E5000261001F0BFFDCF214DF2271001F0BAFD81
:102E600002214DF2281001F0B5FDDE214DF22910AE
:102E700001F0B0FD02214DF22A1001F0ABFDF2216C
:102E80004DF22B1001F0A6FD02214DF22C1001F0A5
:102E9000A1FDFE214DF22D1001F09CFD03214DF20C
:102EA0002E1001F097FD10214DF22F1001F092FD30
:102EB00003214DF2301001F08DFD33214DF2311020
:102EC00001F088FD03214DF2321001F083FD6D21E8
:102ED0004DF2331001F07EFD00214FF4524001F01D
:102EE00079FD33214DF2012001F074FD00214DF2F6
:102EF000022001F06FFD34214DF2032001F06AFD44
:102F000000214DF2042001F065FD3A214DF205202B
:102F100001F060FD00214DF2062001F05BFD4A2129
:102F20004DF2072001F056FD00214DF2082001F07E
:102F300051FD5C214DF2092001F04CFD00214DF2C4
:102F40000A2001F047FD81214DF20B2001F042FDE6
:102F500000214DF20C2001F03DFDA6214DF20D2087
:102F600001F038FD00214DF20E2001F033FDE52186
:102F70004DF20F2001F02EFD01214DF2102001F045
:102F800029FD13214DF2112001F024FD01214DF204
:102F9000122001F01FFD54214DF2132001F01AFD03
:102FA00001214DF2142001F015FD82214DF2152072
:102FB00001F010FD01214DF2162001F00BFDCA2198
:102FC0004DF2172001F006FD02214DF2182001F00C
:102FD00001FD00214DF2192001F0FCFC02214DF20F
:102FE0001A2001F0F7FC01214DF21B2001F0F2FC48
:102FF00002214DF21C2001F0EDFC34214DF21D2088
:1030000001F0E8FC02214DF21E2001F0E3FC6721F3
:103010004DF21F2001F0DEFC02214DF2202001F0D4
:10302000D9FC84214DF2212001F0D4FC02214DF283
:10303000222001F0CFFCA4214DF2232001F0CAFC94
:1030400002214DF2242001F0C5FCB7214DF22520CC
:1030500001F0C0FC02214DF2262001F0BBFCCF2183
:103060004DF2272001F0B6FC02214DF2282001F09C
:10307000B1FCDE214DF2292001F0ACFC02214DF221
:103080002A2001F0A7FCF2214DF22B2001F0A2FC36
:1030900002214DF22C2001F09DFCFE214DF22D204D
:1030A00001F098FC03214DF22E2001F093FC102139
:1030B0004DF22F2001F08EFC03214DF2302001F063
:1030C00089FC33214DF2312001F084FC03214DF2C3
:1030D000322001F07FFC6D214DF2332001F07AFCAB
:1030E00000214FF4534001F075FC33214DF20130C3
:1030F00001F070FC00214DF2023001F06BFC342134
:103100004DF2033001F066FC00214DF2043001F075
:1031100061FC3A214DF2053001F05CFC00214DF2DA
:10312000063001F057FC4A214DF2073001F052FC05
:1031300000214DF2083001F04DFC5C214DF20930C8
:1031400001F048FC00214DF20A3001F043FC8121DE
:103150004DF20B3001F03EFC00214DF20C3001F03D
:1031600039FCA6214DF20D3001F034FC00214DF266
:103170000E3001F02FFCE5214DF20F3001F02AFC5A
:1031800001214DF2103001F025FC13214DF21130D8
:1031900001F020FC01214DF2123001F01BFC542102
:1031A0004DF2133001F016FC01214DF2143001F004
:1031B00011FC82214DF2153001F00CFC01214DF281
:1031C000163001F007FCCA214DF2173001F002FC65
:1031D00002214DF2183001F0FDFB00214DF21930B3
:1031E00001F0F8FB02214DF21A3001F0F3FB01214E
:1031F0004DF21B3001F0EEFB02214DF21C3001F0CC
:10320000E9FB34214DF21D3001F0E4FB02214DF2C7
:103210001E3001F0DFFB67214DF21F3001F0DAFBB9
:1032200002214DF2203001F0D5FB84214DF22130F6
:1032300001F0D0FB02214DF2223001F0CBFBA421A2
:103240004DF2233001F0C6FB02214DF2243001F093
:10325000C1FBB7214DF2253001F0BCFB02214DF23C
:10326000263001F0B7FBCF214DF2273001F0B2FB41
:1032700002214DF2283001F0ADFBDE214DF2293064
:1032800001F0A8FB02214DF22A3001F0A3FBF2214C
:103290004DF22B3001F09EFB02214DF22C3001F05B
:1032A00099FBFE214DF22D3001F094FB03214DF2EC
:1032B0002E3001F08FFB10214DF22F3001F08AFBF0
:1032C00003214DF2303001F085FB33214DF23130D6
:1032D00001F080FB03214DF2323001F07BFB6D21C8
:1032E0004DF2333001F076FB00214FF4544001F0F1
:1032F00071FB33214DF2014001F06CFB00214DF2D6
:10330000024001F067FB34214DF2034001F062FB03
:1033100000214DF2044001F05DFB3A214DF20540E1
:1033200001F058FB00214DF2064001F053FB4A2109
:103330004DF2074001F04EFB00214DF2084001F034
:1033400049FB5C214DF2094001F044FB00214DF2A4
:103350000A4001F03FFB81214DF20B4001F03AFBA6
:1033600000214DF20C4001F035FBA6214DF20D403D
:1033700001F030FB00214DF20E4001F02BFBE52166
:103380004DF20F4001F026FB01214DF2104001F0FB
:1033900021FB13214DF2114001F01CFB01214DF2E4
:1033A000124001F017FB54214DF2134001F012FBC3
:1033B00001214DF2144001F00DFB82214DF2154028
:1033C00001F008FB01214DF2164001F003FBCA2178
:1033D0004DF2174001F0FEFA02214DF2184001F0C3
:1033E000F9FA00214DF2194001F0F4FA02214DF2F0
:1033F0001A4001F0EFFA01214DF21B4001F0EAFA08
:1034000002214DF21C4001F0E5FA34214DF21D403D
:1034100001F0E0FA02214DF21E4001F0DBFA6721D3
:103420004DF21F4001F0D6FA02214DF2204001F08A
:10343000D1FA84214DF2214001F0CCFA02214DF263
:10344000224001F0C7FAA4214DF2234001F0C2FA54
:1034500002214DF2244001F0BDFAB7214DF2254082
:1034600001F0B8FA02214DF2264001F0B3FACF2163
:103470004DF2274001F0AEFA02214DF2284001F052
:10348000A9FADE214DF2294001F0A4FA02214DF201
:103490002A4001F09FFAF2214DF22B4001F09AFAF6
:1034A00002214DF22C4001F095FAFE214DF22D4003
:1034B00001F090FA03214DF22E4001F08BFA102119
:1034C0004DF22F4001F086FA03214DF2304001F019
:1034D00081FA33214DF2314001F07CFA03214DF2A3
:1034E000324001F077FA6D214DF2334001F072FA6B
:1034F00000214FF4554001F06DFA33214DF2015097
:1035000001F068FA00214DF2025001F063FA342113
:103510004DF2035001F05EFA00214DF2045001F02B
:1035200059FA3A214DF2055001F054FA00214DF2BA
:10353000065001F04FFA4A214DF2075001F04AFAC5
:1035400000214DF2085001F045FA5C214DF209507E
:1035500001F040FA00214DF20A5001F03BFA8121BE
:103560004DF20B5001F036FA00214DF20C5001F0F3
:1035700031FAA6214DF20D5001F02CFA00214DF246
:103580000E5001F027FAE5214DF20F5001F022FA1A
:1035900001214DF2105001F01DFA13214DF211508E
:1035A00001F018FA01214DF2125001F013FA5421E2
:1035B0004DF2135001F00EFA01214DF2145001F0BA
:1035C00009FA82214DF2155001F004FA01214DF261
:1035D000165001F0FFF9CA214DF2175001F0FAF927
:1035E00002214DF2185001F0F5F900214DF2195069
:1035F00001F0F0F902214DF21A5001F0EBF901212E
:103600004DF21B5001F0E6F902214DF21C5001F081
:10361000E1F934214DF21D5001F0DCF902214DF2A7
:103620001E5001F0D7F967214DF21F5001F0D2F979
:1036300002214DF2205001F0CDF984214DF22150AC
:1036400001F0C8F902214DF2225001F0C3F9A42182
:103650004DF2235001F0BEF902214DF2245001F049
:10366000B9F9B7214DF2255001F0B4F902214DF21C
:10367000265001F0AFF9CF214DF2275001F0AAF901
:1036800002214DF2285001F0A5F9DE214DF229501A
:1036900001F0A0F902214DF22A5001F09BF9F2212C
:1036A0004DF22B5001F096F902214DF22C5001F011
:1036B00091F9FE214DF22D5001F08CF903214DF2CC
:1036C0002E5001F087F910214DF22F5001F082F9B0
:1036D00003214DF2305001F07DF933214DF231508C
:1036E00001F078F903214DF2325001F073F96D21A8
:1036F0004DF2335001F06EF900214FF4564001F0C5
:1037000069F933214DF2016001F064F900214DF2B5
:10371000026001F05FF934214DF2036001F05AF9C3
:1037200000214DF2046001F055F93A214DF2056097
:1037300001F050F900214DF2066001F04BF94A21E9
:103740004DF2076001F046F900214DF2086001F0EA
:1037500041F95C214DF2096001F03CF900214DF284
:103760000A6001F037F981214DF20B6001F032F966
:1037700000214DF20C6001F02DF9A6214DF20D60F3
:1037800001F028F900214DF20E6001F023F9E52146
:103790004DF20F6001F01EF901214DF2106001F0B1
:1037A00019F913214DF2116001F014F901214DF2C4
:1037B000126001F00FF954214DF2136001F00AF983
:1037C00001214DF2146001F005F982214DF21560DE
:1037D00001F000F901214DF2166001F0FBF8CA2159
:1037E0004DF2176001F0F6F802214DF2186001F079
:1037F000F1F800214DF2196001F0ECF802214DF2D0
:103800001A6001F0E7F801214DF21B6001F0E2F8C7
:1038100002214DF21C6001F0DDF834214DF21D60F3
:1038200001F0D8F802214DF21E6001F0D3F86721B3
:103830004DF21F6001F0CEF802214DF2206001F040
:10384000C9F884214DF2216001F0C4F802214DF243
:10385000226001F0BFF8A4214DF2236001F0BAF814
:1038600002214DF2246001F0B5F8B7214DF2256038
:1038700001F0B0F802214DF2266001F0ABF8CF2143
:103880004DF2276001F0A6F802214DF2286001F008
:10389000A1F8DE214DF2296001F09CF802214DF2E1
:1038A0002A6001F097F8F2214DF22B6001F092F8B6
:1038B00002214DF22C6001F08DF8FE214DF22D60B9
:1038C00001F088F803214DF22E6001F083F81021F9
:1038D0004DF22F6001F07EF803214DF2306001F0CF
:1038E00079F833214DF2316001F074F803214DF283
:1038F000326001F06FF86D214DF2336001F06AF82B
:103900005521184601F066F8AA21204601F062F818
:103910005221284601F05EF80821304601F05AF89D
:103920000021384601F056F8CC21484601F052F803
:103930000021504601F04EF80521404601F04AF8BA
:103940007021584601F046F870214BF2017001F0E9
:1039500041F801214FF4384001F03CF803214BF6C7
:10396000010001F037F803214BF6020001F032F8B4
:1039700003214BF6030001F02DF802214FF43C40E7
:1039800001F028F800214BF6014001F023F8002156
:103990004BF6024001F01EF8D0214FF4494001F0EF
:1039A00019F802214CF6011001F014F850214CF6E0
:1039B000021001F00FF850214CF6031001F00AF844
:1039C00050214CF6041001F005F800214FF454503A
:1039D00001F000F855214FF4685000F0FBFF4FF460
:1039E000885000F037F97820FDF706F8BDE8F05F61
:1039F0004FF4245000F02EB910B5CF2000F02AF972
:103A0000002000F01BF9C12000F018F9302000F070
:103A100015F9ED2000F01EF9642000F00FF90320E5
:103A200000F00CF9122000F009F9812000F006F9ED
:103A3000E82000F00FF9852000F000F9102000F0D8
:103A4000FDF87A2000F0FAF8CB2000F003F93920D5
:103A500000F0F4F82C2000F0F1F8002000F0EEF86F
:103A6000342000F0EBF8022000F0E8F8F72000F036
:103A7000F1F8202000F0E2F8EA2000F0EBF8002056
:103A800000F0DCF8002000F0D9F8C02000F0E2F8E7
:103A90001B2000F0D3F8C12000F0DCF8012000F07A
:103AA000CDF8C52000F0D6F8302000F0C7F830205F
:103AB00000F0C4F8C72000F0CDF8B72000F0BEF841
:103AC000362000F0C7F8482000F0B8F83A2000F09F
:103AD000C1F8552000F0B2F8B12000F0BBF800208A
:103AE00000F0ACF81A2000F0A9F8B62000F0B2F807
:103AF0000A2000F0A3F8A22000F0A0F8F22000F0C5
:103B0000A9F8002000F09AF8262000F0A3F8012080
:103B100000F094F8E02000F09DF80F2000F08EF8FF
:103B20002A2000F08BF8282000F088F8082000F008
:103B300085F80E2000F082F8082000F07FF854206D
:103B400000F07CF8A92000F079F8432000F076F826
:103B50000A2000F073F80F2000F070F8002000F049
:103B60006DF8002000F06AF8002000F067F80020EF
:103B700000F064F8E12000F06DF8002000F05EF83D
:103B8000152000F05BF8172000F058F8072000F02F
:103B900055F8112000F052F8062000F04FF82B20C5
:103BA00000F04CF8562000F049F83C2000F046F8B0
:103BB000052000F043F8102000F040F80F2000F03E
:103BC0003DF83F2000F03AF83F2000F037F80F2092
:103BD00000F034F82B2000F03DF8002000F02EF823
:103BE000002000F02BF8012000F028F83F2000F022
:103BF00025F82A2000F02EF8002000F01FF8002001
:103C000000F01CF8002000F019F8EF2000F016F882
:103C1000112000F01FF87820FCF7EEFEBDE8104000
:103C2000292000F017B80000034808B50088ADF857
:103C30000000BDF8000008BD0000086001B5BDF837
:103C40000000ADF80000BDF800000149088008BD83
:103C50000000086001B5BDF80000ADF80000BDF837
:103C600000000149088008BDFEFF076000B587B06D
:103C70001C216846FCF7EEFA16484FF0204110224E
:103C800001601549416000218160C160C0E90412F2
:103C90008161C16113020162C0E90913C16201635C
:103CA00041638163C16341640F20009001903C2017
:103CB00002900520CDE903021120CDE90501002283
:103CC00069460448FDF750FB002801D0FCF776FD5B
:103CD00007B000BD80010020040100A02DE9F043E1
:103CE00087B014216846FCF7B5FA3D480025016805
:103CF00041F010010160016801F0100105910168B7
:103D000041F080010160016801F0800105910168C6
:103D100041F001010160016801F0010105910168B4
:103D200041F002010160016801F0020105910168A2
:103D300041F00801016000682A4F00F0080005907A
:103D4000012228213846FCF7C8FFDFF89C800122B9
:103D500030214046FCF7C1FFDFF89090002221217E
:103D60004846FCF7BAFF2820012402268DE871009E
:103D700069463846FCF78CFE5020CDE900056946BF
:103D800038460295FCF784FE3020CDE90004CDE9E9
:103D9000024669464046FCF77BFE01AA009482E891
:103DA000700069464846FCF773FECDE90065694638
:103DB00048460295FCF76CFE2003CDE900056946F4
:103DC00002944846FCF764FE2020CDE90004CDE9CA
:103DD000024669464846FCF75BFE07B0BDE8F08343
:103DE0003038024000100240001C02400004024033
:103DF0000C4810B50A4901604FF41651416000218A
:103E000081600C22C160C0E904128161C161FDF7CB
:103E1000F7FB002803D0BDE81040FCF7CFBC10BD75
:103E200000440040D00100200C4810B50A49016050
:103E30004FF4E1314160002181600C22C160C0E992
:103E400004128161C161FDF7DBFB002803D0BDE8EE
:103E50001040FCF7B3BC10BD004800401402002025
:103E6000FEE7FEE710B5FDF74DFDFDF791FD4020A3
:103E7000FDF758FDFDF7DCFD0446FDF7B1FDFF2021
:103E800000F002F8204610BD10B50446FDF780FD95
:103E90004020FDF747FDFDF7CBFD2046FDF742FD35
:103EA000FDF7C6FDFDF79CFDBDE810400A20FCF7BC
:103EB000A3BD704770B51A490A786AB1012A0FD0BC
:103EC000184B022A11D0032A0ED100220A700A28A8
:103ED0004C78104611D01FE0B32805D1012002E034
:103EE000B32801D10220087070BD0D2803D04A7894
:103EF0009854521C0BE00320F5E70A4D123504E0FC
:103F00001E5C2E541A54401CC0B2A042F8D34A7012
:103F100070BD1A54401CC0B2A042FAD3F7E70000AB
:103F20000B00002068000020704710B500F014F965
:103F3000BDE81040FCF7DCBE30B593B030216846D8
:103F4000FCF788F914210CA8FCF784F91E48002519
:103F5000016841F080510160006800F080501190CC
:103F60001A48016841F4404101600068022400F4ED
:103F70004040119001200090000401908001CDE9A3
:103F80000640192008904FF4A870CDE909040420D8
:103F90000B906846FDF732F808B172B6FEE70CA93F
:103FA0000F2081E831004FF4A0500F904FF4805063
:103FB000109005210CA8FCF735FF002801D072B63F
:103FC000FEE713B030BD00004038024000700040F2
:103FD0000248016841F470010160704788ED00E01B
:103FE0000D4801214FF47A72017042800B4AC26180
:103FF00080F8201064224284094BC36380F840108B
:10400000A0F84220074AC26580F860100A21A0F893
:1040100062100549C16770479C000020AD57000839
:10402000D557000835580008695900082DE9F047B0
:104030004FF0E0242DED028BA16960693A4F3A6898
:10404000401C02FB1019DFF8E4A09FED398A00261E
:104050000AEB4615287AB0B3401E2872A169606940
:104060003A68401C02FB1018E8698047A169606942
:104070003A68401C02FB1011B8EB010000EE100A78
:1040800028616069F8EEC00A00F1010000EE100A34
:10409000B8EE401A80EE810A20EE080A85ED050A86
:1040A000688800EE900AF8EE600A88EE201A61EE49
:1040B000000A9FED201A80EE810ADFED1F0A20EE34
:1040C000200A85ED060A06F10106F6B2042EBFD3DA
:1040D000A16960693A68401C02FB1010B9EB00014D
:1040E00016480160626902F1010200EE102AF8EE42
:1040F000400A00EE101AB8EEC01A81EE200A20EE37
:10410000080A80ED010A82688A4200DA8160D0EDF7
:10411000030AF4EEC00AF1EE10FA01D280ED030AB0
:10412000BDEC028BBDE8F0873C0000209C00002025
:1041300000007A44002474490000C842180000209E
:10414000044A10B502EB401200211170AFF3008059
:1041500010BD00009C0000202DE9F0411A4F1B4EBD
:10416000002500BF07EB4514E06838B1012802D1F3
:104170002846AFF30080E068401EE060207860B120
:10418000E06850B9608861683268511A884204D882
:10419000207A401C2072306860606D1CEDB2042DE6
:1041A000E0D330684FF47A71B0FBF1F201FB1200FA
:1041B000002806D106480168816090ED010A80ED73
:1041C000030ABDE8F08100009C0000203C000020B4
:1041D0001800002070B50A490646002408884D885A
:1041E00021464543204600F0CDFA00F0E9FBB0B28D
:1041F000044901E00880641CAC42FBD370BD0000A0
:104200008E000020000008602DE9F04F33492C2477
:104210000A4688712A2592882B2645F2105B4FF4B6
:10422000305E4FF448774FF0F00949F2413A4FF4CD
:10423000A07845F2103C4FF4F07358B1A1F800801B
:10424000A1F80290524501D0624529D10C814D81DF
:104250008E8139E0A1F80090A1F80280524501D08A
:10426000624508D10C814D818E81624531D1A1F822
:1042700000804B802DE05A4508D1A1F808E04FF4AA
:10428000285048814FF42C50888106E0A2F5C85090
:1042900063381ED10C814E818D810B804F8018E0D8
:1042A0005A4508D1A1F808E04FF4285048814FF44E
:1042B0002C50888106E0A2F5C850633804D10C81E7
:1042C0004D818E810F804B80624502D10B80A1F819
:1042D0000280BDE8F04F002000F078B98E00002089
:1042E0002DE9F041344C90460D460246060AA1885D
:1042F00020462F0A4089A1F51343413B0BD0A1F57D
:10430000A643103B07D0B3F5007310D0A1F5C853F6
:10431000633B25D048E0FFF79DFC3046FFF78EFC5D
:10432000D0B2FFF78BFCA089FFF794FC36E0FFF7D3
:1043300091FC3046FFF782FC6089401C80B2FFF799
:1043400089FCD0B2FFF77AFCA089FFF783FC3846DE
:10435000FFF774FCA089401C80B2FFF77BFC20E0D3
:10436000A17919B92188891A491E8AB2FFF772FC0E
:10437000160A3046FFF762FCD0B2FFF75FFC30460A
:10438000FFF75CFCD0B2FFF759FCA089FFF762FC95
:104390003846FFF753FCE8B2FFF750FC3846FFF70A
:1043A0004DFCE8B2FFF74AFC044920890880891CCB
:1043B000A1F80080BDE8F0818E000020FEFF0760BC
:1043C0002DE9F0438146A2EB09020798521C1F46D3
:1043D00095B20C4686B2DFF82C800FE021464846A5
:1043E00000F0D0F900F0ECFA0020414602E00E8027
:1043F000401C80B2A842FAD3641CA4B2BC42EDD9DE
:10440000BDE8F083000008602DE9F0476420FCF768
:10441000F3FAD320FFF71EFCFFF706FC554CA080F3
:10442000FFF702FCA080FFF7FFFB4FF6FF7909EAD8
:104430000020A080FFF7F8FBA18849F2413608432D
:10444000A08045F2103745F2105541F66318B0428E
:1044500047D0D420FFF7FEFBFFF7E6FBA080FFF775
:10446000E3FBA080FFF7E0FB09EA00204A46A080BA
:10447000FFF7DAFBA1880843A080B84231D04FF49F
:104480005A40FFF7E7FBFFF7CFFBA0804FF45B40FC
:10449000FFF7E0FBFFF7C8FB02EA0020A0804FF423
:1044A0005C40FFF7D7FBFFF7BFFBA1880843A08064
:1044B000B0F5004F1ED0A84213D0A120FFF7CAFBD1
:1044C000FFF7B2FBA080FFF7AFFB02EA0020A0805D
:1044D000FFF7AAFBA1880843A0F5AE41A08061398F
:1044E00005D080B2B04207D1FFF786FA12E0A4F8F7
:1044F00004800DE0A58006E0B84202D1FDF785FBFF
:1045000008E0A84202D1FEF7FAFA03E0404501D1E3
:10451000FDF7C0FAA088B04205D0B84203D0A84247
:1045200001D0404519D14FF02040D0F8041121F0BE
:104530000F01C0F80411D0F8041121F47061C0F823
:104540000411D0F8041141F00401C0F80411D0F8AE
:10455000041141F48061C0F804110020FFF754FEFB
:10456000012220210448FCF7B8FB4846BDE8F0478B
:10457000FFF730BE8E0000200004024010B5024656
:10458000BE20FFF767FB0520FFF758FB1046FBF73F
:10459000DEFE9FED0C1B53EC112BFBF766FEFBF7C9
:1045A000E3FE80B2FFF74AFB0120FFF747FBFF2045
:1045B000FFF744FB0020FFF741FBBDE8104000205F
:1045C000FFF73CBB6666666666660440F0B56C4CF9
:1045D00000232146A279898841F66316012A01D079
:1045E0001AB11BE0B14202D118E0B14216D108283D
:1045F00014D2DFE800F00406080A0C0E10120620A0
:104600000CE007200AE0042008E0052006E0012075
:1046100004E0002002E0032000E00220A1F513479F
:1046200045F2103245F21055413F05D0914203D07A
:10463000A94201D0B14277D1082812D2DFE800F0B8
:10464000110406080A0C0E1080230AE0402308E03B
:10465000C02306E0202304E0602302E0A02300E062
:10466000E023A94202D14FF4585000E03620914295
:1046700005D0A94203D0B14201D043F00803194646
:1046800000F0A8F9A188B1420AD098062088628873
:1046900002D5904202D303E0904201D9228060808B
:1046A0006089A94241D1FFF7D5FA0020FFF7C6FA89
:1046B0006089401C80B2FFF7CDFA0020FFF7BEFAF8
:1046C0006089801C80B2FFF7C5FA2088401EC0F3C5
:1046D0000F20FFF7B3FA6089C01C80B2FFF7BAFA67
:1046E0002078401EC0B2FFF7A9FAA089FFF7B2FAFE
:1046F0000020FFF7A3FAA089401C80B2FFF7AAFAB6
:104700000020FFF79BFAA089801C80B2FFF7A2FA75
:104710006088401EC0F30F20FFF790FAA089C01CEC
:1047200080B2FFF797FA22E028E0FFF793FA002023
:10473000FFF784FA0020FFF781FA2088401EC0F3BB
:104740000F20FFF77BFA2078401EC0B2FFF776FA01
:10475000A089FFF77FFA0020FFF770FA0020FFF72B
:104760006DFA6088401EC0F30F20FFF767FAA0784B
:10477000BDE8F040401EC0B2FFF760BAF0BD0000D7
:104780008E000020F0B53F4A0D460446060A918887
:1047900010462F0A4089A1F51343413B28D0A1F5CB
:1047A000A643103B24D0A1F5C853633B2FD0A1F5FD
:1047B000AA43103B64D1FFF74DFA3046FFF73EFAAB
:1047C0005089401C80B2FFF745FAE0B2FFF736FA95
:1047D0009089FFF73FFA3846FFF730FA9089401C7E
:1047E00080B2FFF737FAE8B2BDE8F040FFF726BA2B
:1047F000FFF730FA3046FFF721FAE0B2FFF71EFA72
:104800009089FFF727FA3846FFF718FAEBE7917916
:1048100029B3FFF71FFA3046FFF710FAE0B2FFF7AF
:104820000DFA1088401EC0F30F20FFF707FA10782A
:10483000401EC0B2FFF702FA9089FFF70BFA384624
:10484000FFF7FCF9E8B2FFF7F9F95088401EC0F312
:104850000F20FFF7F3F99078401EC0B2C4E711882B
:10486000091B491E8CB2FFF7F5F90020FFF7E6F9A6
:104870000020FFF7E3F9200AFFF7E0F9E0B2D9E7FB
:10488000F0BD00008E0000202DE9FF4F1D460C46B4
:104890008A46580700D0012000EBD500690810FBBC
:1048A00001F0203A00F0FF09D0B20026DFF8A4B0F2
:1048B00002904BE00C2D11D0102D14D0182D17D0D4
:1048C000202D45D12449029801EBC0104FF000087B
:1048D000875D380613D52148026814E00298204904
:1048E00000EB400008E01F49029801EB0010EDE7E3
:1048F00002981D4900EBC00001EB8000E6E70D982F
:1049000028B91648426821460098FFF7E9FC780666
:10491000070E641CBBF80200A4B2A04218D9A4EB95
:104920000A00A84209D100985446401C80B2009069
:10493000BBF8001081420BD906E008F1010000F03D
:10494000FF08B8F1080FC4D3761CF6B24E45B1D3B8
:10495000BDE8FF8F8E0000202A71000810000020A3
:104960006A590008DE5D0008CE6300082DE9F84FA3
:10497000044600F0FF0910190D46DDE90AB61FFADA
:1049800080F8581987B24FF0000A12E0444503D36B
:1049900005EB0B004C4685B2BD420FD25B46294663
:1049A0002046CDF800A0FFF76FFF04EB5B0084B258
:1049B000761C3278A2F120005E28E7D9BDE8F88F96
:1049C0000248034900890880704700008E000020DB
:1049D000FEFF0760024A1080901C018070470000B3
:1049E000FEFF076010B5806B0021C185C184FCF714
:1049F000FDFC10BD0168CA6822F49072CA600168AB
:104A00004A6922F001024A61016B012904D101685F
:104A1000CA6822F01002CA60202180F83E100021EE
:104A20000163704710B5044690F83E00222801D07B
:104A3000022010BDA1684FF48052914201D120693B
:104A400020B1A06A91421BD049B10AE02168A06A56
:104A50004968C1F308010180A06A801C08E021694F
:104A600071B12168496801F07F010170A06A401CA2
:104A7000A062E08D401E0004000CE08503D01CE025
:104A800021684968F1E72068C16821F02001C16010
:104A90002068C16821F48071C1602068416921F0FB
:104AA00001014161202084F83E00206B012806D0DE
:104AB0002046FCF753FE00202063002010BD206834
:104AC000C16821F01001C160A18D2046FCF78DFC6A
:104AD000F1E7000070B5044600680169E26821F45E
:104AE0004051114301612169A068E269084361698D
:104AF000114308432168CA6849F20C639A43024390
:104B0000CA6020684169A26921F440711143416182
:104B100031492068884202D03049884202D1FCF7EE
:104B20002BFA01E0FCF718FAE26900231921642549
:104B30003226B2F5004F626828D0A0FB0101930F26
:104B40009200FBF74FFB0146B0FBF5F06FF0180247
:104B5000504301EB800006EB0010B0FBF5F000F0D5
:104B6000F002B1FBF5F002EB0012B1FBF5F06FF0D3
:104B70001803584301EB800006EB0010B0FBF5F082
:104B800000F00F0021681044886070BDA0FB010197
:104B900092185B41FBF726FB0146B0FBF5F00201E2
:104BA000B1FBF5F06FF01803584301EB800006EB02
:104BB000C000B0FBF5F000F0F80002EB4002B1FBE2
:104BC000F5F0584301EB800006EBC000B0FBF5F0B8
:104BD00000F00700D6E7000000100140001401407B
:104BE00081628285C28500210164222280F83E20F4
:104BF00080F83C100168CA6842F48072CA6001689B
:104C00004A6942F001024A610068C16841F020012E
:104C1000C160002070472DE9F041984617460E46C6
:104C20000446069D1DE0681C1BD02DB1FCF75AF808
:104C3000A0EB0800A84214D92068C16821F4D07103
:104C4000C1602068416921F001014161202084F8A0
:104C50003D0084F83E00002084F83C000320BDE8BD
:104C6000F0812068006836EA000004D00020B842D5
:104C7000D9D00020F3E70120F9E700000148FCF754
:104C8000B7BB0000D0010020044810B50078FFF742
:104C900011F9BDE810400248FCF7AABB290000202A
:104CA00014020020FEE700002DE9FC410026FFF77A
:104CB000D9F8FFF7A9FB20242AA0CDE9004023461C
:104CC0004FF4827228210A20FFF750FE2AA22DA15C
:104CD000314800F095F8304D4FF4B97720233A462B
:104CE00050210A20CDE90045FFF740FE9FED2B0B38
:104CF0002CA153EC102B284600F082F820233A46D2
:104D000078210A20CDE90045FFF730FE32462CA17C
:104D1000284600F075F820233A46AA210A20CDE95A
:104D20000045FFF723FE01222B492C48FCF700FD2C
:104D3000FBF7CAFD4FF47A742046FBF75DFE204670
:104D4000FBF75AFEFBF7C0FDFBF7C6FD2046FBF75D
:104D500053FE2046FBF750FEFBF7BEFDBDE8FC41CD
:104D6000FFF73EB941706F6C6C6F2053544D333276
:104D70004634323900000000646973636F6E6E65FB
:104D80006374000050686F6E6520636F6E6E6563BC
:104D9000743A2573000000001C0100200000000090
:104DA00000000000546F74616C2057656967687477
:104DB000203A252E32666B672020202020202000FC
:104DC000506572736F6E206E756D6265723A256400
:104DD000202020202020200009000020D0010020D9
:104DE0000FB4054B10B503A9044A029800F0EEF881
:104DF00010BC5DF814FB000055570008440000206B
:104E00000FB4084B10B504A902AA039800F0DEF80D
:104E1000044602A9002000F070FC204610BC5DF89A
:104E200014FB0000FB5600080907090E002804DBEC
:104E300000F1E02080F80014704700F00F0000F14E
:104E4000E02080F8141D704702E008C8121F08C156
:104E5000002AFAD170477047002001E001C1121FFB
:104E6000002AFBD1704700002DE9FF5FDDE9022039
:104E7000010DDDF838B0024318D044F61050A1F20D
:104E8000FF3141430D140F98012820D0A5EB0B00F2
:104E9000401C5FEA000A4FF00004474EDFF81C9107
:104EA000A046504616D5CAF1000728E00F98012405
:104EB00043A2012808D0002100980F9BC0E90021DF
:104EC000C0E90243BDE8FF9F6FEA0B01F4E7CBF1B5
:104ED0000000DEE7074612E0F80707D02246334617
:104EE00040464946FBF7C1F980468946224633468B
:104EF00010461946FBF7B9F904460E467F10002FFD
:104F0000EAD1DDE90201BAF1000F42464B4602DA6E
:104F1000FBF7ABF901E0FBF78CFB04460E460022E1
:104F2000284BFBF70DFC03D84FF0FF30014607E09C
:104F30000022254B20463146FBF7D4FAFBF7E8FB6D
:104F4000102409E0002C0ADB0A220023FBF74AF9AF
:104F5000019B30321A55641E50EA0102F2D1641CE2
:104F6000019AC4F1110314440F9A012A03D00122BB
:104F700008430DD10AE0084304D000204FF0110B84
:104F80000F9080E7A3EB0B056D1E0DE05B4504DD84
:104F90004FF0000205F1010504E003DA4FF00002D2
:104FA000A5F10105002AECD000980F99C0E9023163
:104FB000C0E9004586E70000000024400000F03F03
:104FC000300000000000F0430000E03F2DE9FF4FFB
:104FD00095B09B468946064600250FE2252877D1E5
:104FE00000242746F84A0121059400E0044316F8FE
:104FF000013F203B01FA03F01042F7D130782A2814
:1050000011D06FF02F033078A0F13002092A16D8A2
:10501000059A44F0020402EB820203EB42021044C0
:10502000761C0590EFE759F8042B0592002A03DA65
:10503000504244F40054059044F00204761C307849
:105040002E2816D116F8010F44F004042A280DD09A
:105050006FF02F023078A0F13003092B09D807EB4D
:10506000870302EB4303C718761CF3E759F8047B68
:10507000761C30786C280FD006DC4C2817D06828B6
:105080000DD06A2814D104E0742810D07A280FD1EA
:105090000DE044F400140AE044F4801401E044F408
:1050A00040147278824202D104F58014761C761C7A
:1050B000307866280BD013DC582877D009DC00281C
:1050C00075D04528F6D04628F4D047281AD19DE15E
:1050D00018E0632835D0642879D0652812D195E18D
:1050E000702873D008DC6728F1D069286FD06E284B
:1050F0000DD06F2806D1B5E073282CD0752875D057
:10510000782874D05A46179990476D1C75E1C4F3FE
:105110000250022809D003280DD0D9F80010042825
:105120000DD00D6009F1040967E1D9F80010EA1704
:10513000C1E90052F6E7D9F800100D80F2E70D70D2
:10514000F0E719F8041B8DF8001000208DF801001D
:10515000EA46012003E059F804AB4FF0FF30610745
:105160004FF0000102D40DE008F101018846B94278
:105170000FDA8045F8DB1AF808100029F4D108E0AE
:1051800008F1010188468142FADB1AF8081000296B
:10519000F6D105985B46A0EB080721463846179ADA
:1051A00000F094FA284400EB080507E04DE029E1FF
:1051B0000DE01AF8010B5A4617999047B8F101080B
:1051C000F7D25B4621463846179A13E142E00A229D
:1051D0000092C4F302524FF0000A022A08D059F894
:1051E00004CB032A4FEAEC710AD00DE029E02AE053
:1051F00009F1070121F00702F2E802C1914609E036
:105200000FFA8CFC4FEAEC71042A03D14FFA8CFCA4
:105210004FEAEC71002907DA0A460021DCF1000CA4
:1052200061EB02012D2202E0220504D52B228DF82C
:105230000420012203E0E20701D02022F7E7904694
:1052400059E00A2102E010220DE010214FF0000A7F
:1052500000910BE010224FF0000A44F004040827EC
:10526000009203E008224FF0000A0092C4F30252B9
:10527000022A05D059F804CB0021032A08D009E0FE
:1052800009F1070121F00702F2E802C1914605E0A9
:105290001FFA8CFC042A01D10CF0FF0C4FF000081F
:1052A000220728D5702806D0009B83F0100353EA0C
:1052B0000A0305D00EE040228DF80420012208E008
:1052C0005CEA010206D030228DF804208DF805003A
:1052D00002229046009B83F0080353EA0A030AD196
:1052E0005CEA010201D1620705D530228DF8042065
:1052F0004FF001087F1E582804D034A003900EA858
:1053000002900DE036A0F9E753466046009AFAF79E
:1053100069FF84460398825C0298401E02900270E6
:105320005CEA0100F0D1029806A9081A00F1200AEF
:10533000600702D524F4803400E00127574502DDE0
:10534000A7EB0A0000E0002000EB0A01009005989E
:105350004144401A0590E00306D45B462146179A63
:10536000059800F0B3F90544002706E001A85A4665
:10537000C05D179990476D1C7F1C4745F6DBE00325
:105380000CD55B462146179A059800F09FF9054415
:1053900004E030205A46179990476D1C0099481E2A
:1053A00000900029F5DC08E0029802995A4600783E
:1053B000491C0291179990476D1CBAF10001AAF19E
:1053C000010AF1DC65E100000928010030313233C7
:1053D0003435363738396162636465660000000031
:1053E000303132333435363738394142434445461B
:1053F0000000000000F058F90544761C30780028C1
:105400007FF4ECAD19B02846BDE8F08F620700D4F8
:10541000062709F1070222F0070CFCE80223E14607
:1054200003F000485FEA080C02D00FF2702C0DE088
:105430005FEA045C02D50FF2682C07E05FEAC47CE7
:1054400002D00FF2602C01E0AFF2700C4FF0FF3889
:1054500023F00043CDF850C065280CD006DC452869
:1054600009D046281DD047283DD13DE0662818D0F8
:1054700067287ED138E00021112F01DB112000E0E8
:10548000781CCDE9000106A90EA8FFF7EDFCDDE9C7
:105490000F010E9A03910021009207F1010A049175
:1054A0004DE04FF000400097CDE9011006A90EA88D
:1054B000FFF7DAFCDDE90F0203920E9B119900223F
:1054C000DDF80CA00093049211B9791C00EB010ADD
:1054D000B7EB0A0004D4C0F1FF3007F1010A0490D1
:1054E000AAEB0700019044E0012F00DA0127002118
:1054F000112F01DD112000E03846CDE9000106A999
:105500000EA8FFF7B1FCDDE90F010E9A039100210F
:1055100004910092BA4621070CD40399514500DA50
:105520008A46BAF1010F05DD009AAAF10101515C2A
:10553000302908D0B84202DA10F1040F06DA01214E
:10554000CDE9011015E0AAF10101E9E7002805DC29
:10555000049901440491AAEB000102E0411C514569
:1055600000DD8A460499401A401C01904FF000402B
:105570000290200704D40198504501DBCDF8048047
:1055800000208DF84F0002980DF14F07B0F1004F49
:1055900025D02B200E9002984FF0020800280CDA3C
:1055A000404202902D200E9007E00A210298FAF75F
:1055B00007FF3031029007F8011DB8F10001A8F192
:1055C0000108F2DC02980028EFD1791E0E980870CD
:1055D000307800F0200040F0450007F8020D12A8D6
:1055E000C01B00F107081498007800B1012000EBFF
:1055F0000A01019801EBE07105984144401A401EF0
:105600000590E00306D45B462146179A059800F002
:105610005DF805441498007818B15A4617999047D8
:105620006D1CE00324D55B462146179A059800F0CF
:105630004DF805441CE00498002807DBDDE9030170
:10564000884203DD0098405C179901E017993020EB
:105650005A469047049805F10105401C04900198B2
:10566000401E019004D12E205A46179990476D1C78
:10567000BAF10001AAF1010ADDDC05E017F8010B1F
:105680005A46179990476D1CB8F10001A8F101081E
:10569000F4DC5B462146179A0598ABE62D00000026
:1056A0002B000000200000002DE9F04104460025F9
:1056B0001E461746880404D405E039462020B0472A
:1056C0006D1C641EF9D52846BDE8F0812DE9F04136
:1056D000044600251E469046C80301D5302700E049
:1056E0002027880404D505E041463846B0476D1CA4
:1056F000641EF9D52846BDE8F0810A68531C0B608A
:105700001070704771B54FF461754FF0E023104E83
:1057100000981AE02C46A04200D804469869A4EBF1
:10572000C40101EB410110EBC10105D49A69824229
:1057300008DA8A42FADA05E08A1999698142FCDDC1
:105740009142FADC0098001B00900028E2D178BD5D
:105750004090020013B54FF47A7301226946024863
:10576000FCF70CF801201CBDD001002008B5FBF7A8
:10577000C7FAFEF7E1FBFEF7B1FAFEF777FAFEF79C
:1057800037FBFEF751FBFFF78FFA4FF4FC600090F8
:105790004FF47A734FF42F724FF4C8710020FEF764
:1057A0000FFE00BFFEF742FCFCE7000008B5012138
:1057B0000748FBF78AFA4FF4FC6000904FF47A73C5
:1057C0004FF42F724FF4C8710020FEF7F9FD08BDA9
:1057D000000402401CB50D480078012814D10CA229
:1057E0000EA11348FFF70CFB11492020CDE9000161
:1057F00003464FF4B97250210A20FFF7B7F8BDE80D
:105800001C400120FEF79CBC1CBD000008000020CD
:10581000636F6E6E656374656420200050686F6E00
:105820006520636F6E6E6563743A25730000000037
:105830001C01002070B52DED028B84B09FED358AE0
:10584000002402AD2046FBF74FF805EB8400641CF2
:10585000E4B280ED000A022CF4D3002005EB8001B5
:10586000401C91ED000AC0B2022830EE088AF5D340
:10587000B0EE080AF1EE040A28EE000A80EE208A53
:1058800018EE100AFAF789FD41EC100B22A153EC37
:10589000102B2848FFF7B4FA26492020CDE9000153
:1058A00003464FF4B97278210A20FFF75FF818EE2B
:1058B000100A21494FF47A744FF42F754FF4C876CB
:1058C00088421DDD1DA0FFF78BFA18EE100AFAF7CB
:1058D00064FD41EC100B1DA053EC102BFFF780FA78
:1058E0004FF47840009023462A4631460020FEF7C8
:1058F00067FD1C490120087004B0BDEC028B70BD2F
:105900004FF4FC60009023462A4631460020FEF703
:1059100057FDF1E700000000546F74616C2057657B
:1059200069676874203A252E32666B672020202034
:10593000202000001C010020000016434F766572F5
:105940007765696768742121210D0A004E6F772001
:1059500057656967687420697320252E3266206B4D
:1059600067000000280000207047000000000000D1
:10597000000000000000000000003F4000000000A8
:10598000000000003000400030004000000009002E
:105990000BC03D000BC03D00090018C024407FE053
:1059A000224031800000180024C01B000D803240CE
:1059B000018003801C4027401C80074000401000ED
:1059C0006000000000000000000000000000000077
:1059D0001F80204040200000402020401F80000009
:1059E0000000090006001F800600090000000400F6
:1059F00004003F800400040000000010006000006C
:105A00000000000000000400040004000400040082
:105A10000000000000400000000000000000002026
:105A200001C006003800400000001F8020402040D8
:105A300020401F800000000010403FC000400000D8
:105A4000000018C02140224024401840000010806F
:105A50002040244024401B80000002000D00110063
:105A60003FC0014000003C8024402440244023806B
:105A700000001F8024402440344003800000300098
:105A8000200027C03800200000001B802440244054
:105A900024401B8000001C0022C0224022401F80A6
:105AA00000000000000008400000000000000000AE
:105AB00000000460000000000000000004000A0074
:105AC0001100208040400900090009000900090078
:105AD000000000004040208011000A00040018006F
